{
  "_format": "hh-sol-artifact-1",
  "contractName": "MyNFT",
  "sourceName": "contracts/MyNFT.sol",
  "abi": [
    {
      "inputs": [],
      "stateMutability": "nonpayable",
      "type": "constructor"
    },
    {
      "anonymous": false,
      "inputs": [
        {
          "indexed": true,
          "internalType": "address",
          "name": "owner",
          "type": "address"
        },
        {
          "indexed": true,
          "internalType": "address",
          "name": "approved",
          "type": "address"
        },
        {
          "indexed": true,
          "internalType": "uint256",
          "name": "tokenId",
          "type": "uint256"
        }
      ],
      "name": "Approval",
      "type": "event"
    },
    {
      "anonymous": false,
      "inputs": [
        {
          "indexed": true,
          "internalType": "address",
          "name": "owner",
          "type": "address"
        },
        {
          "indexed": true,
          "internalType": "address",
          "name": "operator",
          "type": "address"
        },
        {
          "indexed": false,
          "internalType": "bool",
          "name": "approved",
          "type": "bool"
        }
      ],
      "name": "ApprovalForAll",
      "type": "event"
    },
    {
      "anonymous": false,
      "inputs": [
        {
          "indexed": true,
          "internalType": "address",
          "name": "previousOwner",
          "type": "address"
        },
        {
          "indexed": true,
          "internalType": "address",
          "name": "newOwner",
          "type": "address"
        }
      ],
      "name": "OwnershipTransferred",
      "type": "event"
    },
    {
      "anonymous": false,
      "inputs": [
        {
          "indexed": false,
          "internalType": "address",
          "name": "account",
          "type": "address"
        }
      ],
      "name": "Paused",
      "type": "event"
    },
    {
      "anonymous": false,
      "inputs": [
        {
          "indexed": true,
          "internalType": "address",
          "name": "from",
          "type": "address"
        },
        {
          "indexed": true,
          "internalType": "address",
          "name": "to",
          "type": "address"
        },
        {
          "indexed": true,
          "internalType": "uint256",
          "name": "tokenId",
          "type": "uint256"
        }
      ],
      "name": "Transfer",
      "type": "event"
    },
    {
      "anonymous": false,
      "inputs": [
        {
          "indexed": false,
          "internalType": "address",
          "name": "account",
          "type": "address"
        }
      ],
      "name": "Unpaused",
      "type": "event"
    },
    {
      "inputs": [
        {
          "internalType": "address",
          "name": "to",
          "type": "address"
        },
        {
          "internalType": "uint256",
          "name": "tokenId",
          "type": "uint256"
        }
      ],
      "name": "approve",
      "outputs": [],
      "stateMutability": "nonpayable",
      "type": "function"
    },
    {
      "inputs": [
        {
          "internalType": "address",
          "name": "owner",
          "type": "address"
        }
      ],
      "name": "balanceOf",
      "outputs": [
        {
          "internalType": "uint256",
          "name": "",
          "type": "uint256"
        }
      ],
      "stateMutability": "view",
      "type": "function"
    },
    {
      "inputs": [
        {
          "internalType": "uint256",
          "name": "tokenId",
          "type": "uint256"
        }
      ],
      "name": "burn",
      "outputs": [],
      "stateMutability": "nonpayable",
      "type": "function"
    },
    {
      "inputs": [
        {
          "internalType": "uint256",
          "name": "tokenId",
          "type": "uint256"
        }
      ],
      "name": "getApproved",
      "outputs": [
        {
          "internalType": "address",
          "name": "",
          "type": "address"
        }
      ],
      "stateMutability": "view",
      "type": "function"
    },
    {
      "inputs": [
        {
          "internalType": "address",
          "name": "owner",
          "type": "address"
        },
        {
          "internalType": "address",
          "name": "operator",
          "type": "address"
        }
      ],
      "name": "isApprovedForAll",
      "outputs": [
        {
          "internalType": "bool",
          "name": "",
          "type": "bool"
        }
      ],
      "stateMutability": "view",
      "type": "function"
    },
    {
      "inputs": [],
      "name": "maxSupply",
      "outputs": [
        {
          "internalType": "uint256",
          "name": "",
          "type": "uint256"
        }
      ],
      "stateMutability": "view",
      "type": "function"
    },
    {
      "inputs": [],
      "name": "name",
      "outputs": [
        {
          "internalType": "string",
          "name": "",
          "type": "string"
        }
      ],
      "stateMutability": "view",
      "type": "function"
    },
    {
      "inputs": [],
      "name": "owner",
      "outputs": [
        {
          "internalType": "address",
          "name": "",
          "type": "address"
        }
      ],
      "stateMutability": "view",
      "type": "function"
    },
    {
      "inputs": [
        {
          "internalType": "uint256",
          "name": "tokenId",
          "type": "uint256"
        }
      ],
      "name": "ownerOf",
      "outputs": [
        {
          "internalType": "address",
          "name": "",
          "type": "address"
        }
      ],
      "stateMutability": "view",
      "type": "function"
    },
    {
      "inputs": [],
      "name": "pause",
      "outputs": [],
      "stateMutability": "nonpayable",
      "type": "function"
    },
    {
      "inputs": [],
      "name": "paused",
      "outputs": [
        {
          "internalType": "bool",
          "name": "",
          "type": "bool"
        }
      ],
      "stateMutability": "view",
      "type": "function"
    },
    {
      "inputs": [],
      "name": "renounceOwnership",
      "outputs": [],
      "stateMutability": "nonpayable",
      "type": "function"
    },
    {
      "inputs": [
        {
          "internalType": "address",
          "name": "to",
          "type": "address"
        }
      ],
      "name": "safeMint",
      "outputs": [],
      "stateMutability": "payable",
      "type": "function"
    },
    {
      "inputs": [
        {
          "internalType": "address",
          "name": "from",
          "type": "address"
        },
        {
          "internalType": "address",
          "name": "to",
          "type": "address"
        },
        {
          "internalType": "uint256",
          "name": "tokenId",
          "type": "uint256"
        }
      ],
      "name": "safeTransferFrom",
      "outputs": [],
      "stateMutability": "nonpayable",
      "type": "function"
    },
    {
      "inputs": [
        {
          "internalType": "address",
          "name": "from",
          "type": "address"
        },
        {
          "internalType": "address",
          "name": "to",
          "type": "address"
        },
        {
          "internalType": "uint256",
          "name": "tokenId",
          "type": "uint256"
        },
        {
          "internalType": "bytes",
          "name": "data",
          "type": "bytes"
        }
      ],
      "name": "safeTransferFrom",
      "outputs": [],
      "stateMutability": "nonpayable",
      "type": "function"
    },
    {
      "inputs": [
        {
          "internalType": "address",
          "name": "operator",
          "type": "address"
        },
        {
          "internalType": "bool",
          "name": "approved",
          "type": "bool"
        }
      ],
      "name": "setApprovalForAll",
      "outputs": [],
      "stateMutability": "nonpayable",
      "type": "function"
    },
    {
      "inputs": [
        {
          "internalType": "bytes4",
          "name": "interfaceId",
          "type": "bytes4"
        }
      ],
      "name": "supportsInterface",
      "outputs": [
        {
          "internalType": "bool",
          "name": "",
          "type": "bool"
        }
      ],
      "stateMutability": "view",
      "type": "function"
    },
    {
      "inputs": [],
      "name": "symbol",
      "outputs": [
        {
          "internalType": "string",
          "name": "",
          "type": "string"
        }
      ],
      "stateMutability": "view",
      "type": "function"
    },
    {
      "inputs": [
        {
          "internalType": "uint256",
          "name": "index",
          "type": "uint256"
        }
      ],
      "name": "tokenByIndex",
      "outputs": [
        {
          "internalType": "uint256",
          "name": "",
          "type": "uint256"
        }
      ],
      "stateMutability": "view",
      "type": "function"
    },
    {
      "inputs": [
        {
          "internalType": "address",
          "name": "owner",
          "type": "address"
        },
        {
          "internalType": "uint256",
          "name": "index",
          "type": "uint256"
        }
      ],
      "name": "tokenOfOwnerByIndex",
      "outputs": [
        {
          "internalType": "uint256",
          "name": "",
          "type": "uint256"
        }
      ],
      "stateMutability": "view",
      "type": "function"
    },
    {
      "inputs": [
        {
          "internalType": "uint256",
          "name": "tokenId",
          "type": "uint256"
        }
      ],
      "name": "tokenURI",
      "outputs": [
        {
          "internalType": "string",
          "name": "",
          "type": "string"
        }
      ],
      "stateMutability": "view",
      "type": "function"
    },
    {
      "inputs": [],
      "name": "totalSupply",
      "outputs": [
        {
          "internalType": "uint256",
          "name": "",
          "type": "uint256"
        }
      ],
      "stateMutability": "view",
      "type": "function"
    },
    {
      "inputs": [
        {
          "internalType": "address",
          "name": "from",
          "type": "address"
        },
        {
          "internalType": "address",
          "name": "to",
          "type": "address"
        },
        {
          "internalType": "uint256",
          "name": "tokenId",
          "type": "uint256"
        }
      ],
      "name": "transferFrom",
      "outputs": [],
      "stateMutability": "nonpayable",
      "type": "function"
    },
    {
      "inputs": [
        {
          "internalType": "address",
          "name": "newOwner",
          "type": "address"
        }
      ],
      "name": "transferOwnership",
      "outputs": [],
      "stateMutability": "nonpayable",
      "type": "function"
    },
    {
      "inputs": [],
      "name": "unpause",
      "outputs": [],
      "stateMutability": "nonpayable",
      "type": "function"
    },
    {
      "inputs": [],
      "name": "withDraw",
      "outputs": [],
      "stateMutability": "nonpayable",
      "type": "function"
    }
  ],
  "bytecode": "0x6080604052600a600c553480156200001657600080fd5b506040518060400160405280600581526020017f4d794e46540000000000000000000000000000000000000000000000000000008152506040518060400160405280600481526020017f4d4e46540000000000000000000000000000000000000000000000000000000081525081600090805190602001906200009b929190620001fd565b508060019080519060200190620000b4929190620001fd565b5050506000600a60006101000a81548160ff021916908315150217905550620000f2620000e66200012c60201b60201c565b6200013460201b60201c565b620001267fb1ad167f3afcefc66ea9f03899ccb0c8f8a107097a5d61f2f3b0aee74b2fb26860001b620001fa60201b60201c565b62000312565b600033905090565b6000600a60019054906101000a900473ffffffffffffffffffffffffffffffffffffffff16905081600a60016101000a81548173ffffffffffffffffffffffffffffffffffffffff021916908373ffffffffffffffffffffffffffffffffffffffff1602179055508173ffffffffffffffffffffffffffffffffffffffff168173ffffffffffffffffffffffffffffffffffffffff167f8be0079c531659141344cd1fd0a4f28419497f9722a3daafe3b4186f6b6457e060405160405180910390a35050565b50565b8280546200020b90620002dc565b90600052602060002090601f0160209004810192826200022f57600085556200027b565b82601f106200024a57805160ff19168380011785556200027b565b828001600101855582156200027b579182015b828111156200027a5782518255916020019190600101906200025d565b5b5090506200028a91906200028e565b5090565b5b80821115620002a95760008160009055506001016200028f565b5090565b7f4e487b7100000000000000000000000000000000000000000000000000000000600052602260045260246000fd5b60006002820490506001821680620002f557607f821691505b602082108114156200030c576200030b620002ad565b5b50919050565b613e3380620003226000396000f3fe6080604052600436106101815760003560e01c80635c975abb116100d157806395d89b411161008a578063c87b56dd11610064578063c87b56dd14610539578063d5abeb0114610576578063e985e9c5146105a1578063f2fde38b146105de57610181565b806395d89b41146104bc578063a22cb465146104e7578063b88d4fde1461051057610181565b80635c975abb146103be5780636352211e146103e957806370a0823114610426578063715018a6146104635780638456cb591461047a5780638da5cb5b1461049157610181565b806323b872dd1161013e57806340d097c31161011857806340d097c31461031357806342842e0e1461032f57806342966c68146103585780634f6ccce71461038157610181565b806323b872dd146102965780632f745c59146102bf5780633f4ba83a146102fc57610181565b806301ffc9a71461018657806306fdde03146101c3578063081812fc146101ee578063095ea7b31461022b5780630fdb1c101461025457806318160ddd1461026b575b600080fd5b34801561019257600080fd5b506101ad60048036038101906101a89190612b6b565b610607565b6040516101ba9190612bb3565b60405180910390f35b3480156101cf57600080fd5b506101d861069d565b6040516101e59190612c67565b60405180910390f35b3480156101fa57600080fd5b5061021560048036038101906102109190612cbf565b61072f565b6040516102229190612d2d565b60405180910390f35b34801561023757600080fd5b50610252600480360381019061024d9190612d74565b610775565b005b34801561026057600080fd5b5061026961088d565b005b34801561027757600080fd5b50610280610a5c565b60405161028d9190612dc3565b60405180910390f35b3480156102a257600080fd5b506102bd60048036038101906102b89190612dde565b610a69565b005b3480156102cb57600080fd5b506102e660048036038101906102e19190612d74565b610ac9565b6040516102f39190612dc3565b60405180910390f35b34801561030857600080fd5b50610311610b6e565b005b61032d60048036038101906103289190612e31565b610c04565b005b34801561033b57600080fd5b5061035660048036038101906103519190612dde565b610e5a565b005b34801561036457600080fd5b5061037f600480360381019061037a9190612cbf565b610e7a565b005b34801561038d57600080fd5b506103a860048036038101906103a39190612cbf565b610ed6565b6040516103b59190612dc3565b60405180910390f35b3480156103ca57600080fd5b506103d3610f47565b6040516103e09190612bb3565b60405180910390f35b3480156103f557600080fd5b50610410600480360381019061040b9190612cbf565b610f5e565b60405161041d9190612d2d565b60405180910390f35b34801561043257600080fd5b5061044d60048036038101906104489190612e31565b611010565b60405161045a9190612dc3565b60405180910390f35b34801561046f57600080fd5b506104786110c8565b005b34801561048657600080fd5b5061048f6110dc565b005b34801561049d57600080fd5b506104a6611172565b6040516104b39190612d2d565b60405180910390f35b3480156104c857600080fd5b506104d161119c565b6040516104de9190612c67565b60405180910390f35b3480156104f357600080fd5b5061050e60048036038101906105099190612e8a565b61122e565b005b34801561051c57600080fd5b5061053760048036038101906105329190612fff565b611244565b005b34801561054557600080fd5b50610560600480360381019061055b9190612cbf565b6112a6565b60405161056d9190612c67565b60405180910390f35b34801561058257600080fd5b5061058b61130e565b6040516105989190612dc3565b60405180910390f35b3480156105ad57600080fd5b506105c860048036038101906105c39190613082565b611314565b6040516105d59190612bb3565b60405180910390f35b3480156105ea57600080fd5b5061060560048036038101906106009190612e31565b6113a8565b005b60006106357f99a3e04198777249964151fd45fb7ae467870083b980986b6ec7900c390dcf9960001b61142c565b6106617fd3c4ed41653d39f1f97449684f73cafec2f13a89cc77cdc43bbc1d53a430888060001b61142c565b61068d7f4a9a0749a4978ae0253d04e50920d5baa314d45cbb1dc493622bfc99beeb9f2260001b61142c565b6106968261142f565b9050919050565b6060600080546106ac906130f1565b80601f01602080910402602001604051908101604052809291908181526020018280546106d8906130f1565b80156107255780601f106106fa57610100808354040283529160200191610725565b820191906000526020600020905b81548152906001019060200180831161070857829003601f168201915b5050505050905090565b600061073a826114a9565b6004600083815260200190815260200160002060009054906101000a900473ffffffffffffffffffffffffffffffffffffffff169050919050565b600061078082610f5e565b90508073ffffffffffffffffffffffffffffffffffffffff168373ffffffffffffffffffffffffffffffffffffffff1614156107f1576040517f08c379a00000000000000000000000000000000000000000000000000000000081526004016107e890613195565b60405180910390fd5b8073ffffffffffffffffffffffffffffffffffffffff166108106114f4565b73ffffffffffffffffffffffffffffffffffffffff16148061083f575061083e816108396114f4565b611314565b5b61087e576040517f08c379a000000000000000000000000000000000000000000000000000000000815260040161087590613227565b60405180910390fd5b61088883836114fc565b505050565b6108956115b5565b6108c17f2910f5c8dae5f59f6acd513ab38e5e98431b0db6e506350435edcf4577d3099560001b61142c565b6108ed7f161db56bb3254cabe927ab83349f08a644e200a0ea3006482b5f14f40cfb221d60001b61142c565b6109197f34c60da6e0699bdf61d6fb9fbb988f76defcd213cc561bb5e69dc652b938948560001b61142c565b6109457fc42dc01c70a59f9d88280b4d2cf0a1385386b4dd3de8bf8092b9db9df04d634e60001b61142c565b60004711610988576040517f08c379a000000000000000000000000000000000000000000000000000000000815260040161097f90613293565b60405180910390fd5b6109b47f20c6b3b3c65a395984d5ed76ba6026d7957a48204b20f5dad539f9bef948050d60001b61142c565b6109e07fe9ef399ed383fecf77762dc21aab36d4c13f5caf93c4f06ef0cafe1d65a9f85460001b61142c565b610a0c7f460768182e13cbc154c35d0d61db20dc6839f47ab0f809bc64727aefd61c707160001b61142c565b610a14611172565b73ffffffffffffffffffffffffffffffffffffffff166108fc479081150290604051600060405180830381858888f19350505050158015610a59573d6000803e3d6000fd5b50565b6000600880549050905090565b610a7a610a746114f4565b82611633565b610ab9576040517f08c379a0000000000000000000000000000000000000000000000000000000008152600401610ab090613325565b60405180910390fd5b610ac48383836116c8565b505050565b6000610ad483611010565b8210610b15576040517f08c379a0000000000000000000000000000000000000000000000000000000008152600401610b0c906133b7565b60405180910390fd5b600660008473ffffffffffffffffffffffffffffffffffffffff1673ffffffffffffffffffffffffffffffffffffffff168152602001908152602001600020600083815260200190815260200160002054905092915050565b610b766115b5565b610ba27f779b59d5c1c7b049497e041c0d11a1797531999bdb37ae57ea7fd06a7006a72060001b61142c565b610bce7f99e7926a76b5c568117362fb4e58e0503756325844675cad8fcdf22ec16fc2d360001b61142c565b610bfa7f0eda8c6d2f640dea44bb31f99f3a7556112b542181a5a6da5f4ab0b38fdea23d60001b61142c565b610c0261192f565b565b610c307f25035969d8fcfdb5ac345754f1822f0c1254c730ee37cd544ddd5241dead687e60001b61142c565b610c5c7fc2f45b5d2966acfbbd26a36d8d945fa9948e6e01de1d67d1f8ad1dea8c6c777660001b61142c565b610c887fb92effb4853df95c92c5b5019bc165dbd99b74b9b3375565bdc74f9906b63e7c60001b61142c565b610cb47fa48bc744ecf9effb2344859317d645c2928a30bf5346bbfdd209eb54f56324d360001b61142c565b600c54610cbf610a5c565b1115610d00576040517f08c379a0000000000000000000000000000000000000000000000000000000008152600401610cf790613449565b60405180910390fd5b610d2c7f5cf0be332b397a71412f240acbe77397de7a57c62985194d9e711e4d6ca1a07860001b61142c565b610d587f10517f148cf40de33e282723921ce946c0fda98133e0152fc277380fdd1df5fc60001b61142c565b610d847f587bf48c9e0f5ac255ad248aae16541c706b4168e03d371c8709db85d3daea3660001b61142c565b6000610d90600b611992565b9050610dbe7fc43af9e9f208eeb2801dc160aa7efa4f4955f24d18752069e7cb6ef6d98c1f8760001b61142c565b610dea7f8698a6fa842417461108153dbbafcd9ef9c700fafaf21d631c43e57c5941b53160001b61142c565b610df4600b6119a0565b610e207f7178c18b3e8ab8bd9fb234884a4f70cee022b86ce50e3beb84feb7d8ae1b173260001b61142c565b610e4c7fed181ce35c503d2dbe6d68d23edcf5ae35a756b7cb19f5bdf4d7d8309983945160001b61142c565b610e5682826119b6565b5050565b610e7583838360405180602001604052806000815250611244565b505050565b610e8b610e856114f4565b82611633565b610eca576040517f08c379a0000000000000000000000000000000000000000000000000000000008152600401610ec190613325565b60405180910390fd5b610ed3816119d4565b50565b6000610ee0610a5c565b8210610f21576040517f08c379a0000000000000000000000000000000000000000000000000000000008152600401610f18906134db565b60405180910390fd5b60088281548110610f3557610f346134fb565b5b90600052602060002001549050919050565b6000600a60009054906101000a900460ff16905090565b6000806002600084815260200190815260200160002060009054906101000a900473ffffffffffffffffffffffffffffffffffffffff169050600073ffffffffffffffffffffffffffffffffffffffff168173ffffffffffffffffffffffffffffffffffffffff161415611007576040517f08c379a0000000000000000000000000000000000000000000000000000000008152600401610ffe90613576565b60405180910390fd5b80915050919050565b60008073ffffffffffffffffffffffffffffffffffffffff168273ffffffffffffffffffffffffffffffffffffffff161415611081576040517f08c379a000000000000000000000000000000000000000000000000000000000815260040161107890613608565b60405180910390fd5b600360008373ffffffffffffffffffffffffffffffffffffffff1673ffffffffffffffffffffffffffffffffffffffff168152602001908152602001600020549050919050565b6110d06115b5565b6110da6000611af1565b565b6110e46115b5565b6111107f2599348140ddb86c02b927fe84bce7f96ac8320a6a448fc4d6ec031821d71dbe60001b61142c565b61113c7f2b2ba011c525544b6aa8d7e9184ec584bd7d1ef78c37262995a90ea84e3f27f760001b61142c565b6111687f1145b333b62f1b023ef85eb4e3ffbbb3eaa127393029fde411a35d921a0152bd60001b61142c565b611170611bb7565b565b6000600a60019054906101000a900473ffffffffffffffffffffffffffffffffffffffff16905090565b6060600180546111ab906130f1565b80601f01602080910402602001604051908101604052809291908181526020018280546111d7906130f1565b80156112245780601f106111f957610100808354040283529160200191611224565b820191906000526020600020905b81548152906001019060200180831161120757829003601f168201915b5050505050905090565b6112406112396114f4565b8383611c1a565b5050565b61125561124f6114f4565b83611633565b611294576040517f08c379a000000000000000000000000000000000000000000000000000000000815260040161128b90613325565b60405180910390fd5b6112a084848484611d87565b50505050565b60606112b1826114a9565b60006112bb611de3565b905060008151116112db5760405180602001604052806000815250611306565b806112e584611ea4565b6040516020016112f6929190613664565b6040516020818303038152906040525b915050919050565b600c5481565b6000600560008473ffffffffffffffffffffffffffffffffffffffff1673ffffffffffffffffffffffffffffffffffffffff16815260200190815260200160002060008373ffffffffffffffffffffffffffffffffffffffff1673ffffffffffffffffffffffffffffffffffffffff16815260200190815260200160002060009054906101000a900460ff16905092915050565b6113b06115b5565b600073ffffffffffffffffffffffffffffffffffffffff168173ffffffffffffffffffffffffffffffffffffffff161415611420576040517f08c379a0000000000000000000000000000000000000000000000000000000008152600401611417906136fa565b60405180910390fd5b61142981611af1565b50565b50565b60007f780e9d63000000000000000000000000000000000000000000000000000000007bffffffffffffffffffffffffffffffffffffffffffffffffffffffff1916827bffffffffffffffffffffffffffffffffffffffffffffffffffffffff191614806114a257506114a182612005565b5b9050919050565b6114b2816120e7565b6114f1576040517f08c379a00000000000000000000000000000000000000000000000000000000081526004016114e890613576565b60405180910390fd5b50565b600033905090565b816004600083815260200190815260200160002060006101000a81548173ffffffffffffffffffffffffffffffffffffffff021916908373ffffffffffffffffffffffffffffffffffffffff160217905550808273ffffffffffffffffffffffffffffffffffffffff1661156f83610f5e565b73ffffffffffffffffffffffffffffffffffffffff167f8c5be1e5ebec7d5bd14f71427d1e84f3dd0314c0f7b2291e5b200ac8c7c3b92560405160405180910390a45050565b6115bd6114f4565b73ffffffffffffffffffffffffffffffffffffffff166115db611172565b73ffffffffffffffffffffffffffffffffffffffff1614611631576040517f08c379a000000000000000000000000000000000000000000000000000000000815260040161162890613766565b60405180910390fd5b565b60008061163f83610f5e565b90508073ffffffffffffffffffffffffffffffffffffffff168473ffffffffffffffffffffffffffffffffffffffff16148061168157506116808185611314565b5b806116bf57508373ffffffffffffffffffffffffffffffffffffffff166116a78461072f565b73ffffffffffffffffffffffffffffffffffffffff16145b91505092915050565b8273ffffffffffffffffffffffffffffffffffffffff166116e882610f5e565b73ffffffffffffffffffffffffffffffffffffffff161461173e576040517f08c379a0000000000000000000000000000000000000000000000000000000008152600401611735906137f8565b60405180910390fd5b600073ffffffffffffffffffffffffffffffffffffffff168273ffffffffffffffffffffffffffffffffffffffff1614156117ae576040517f08c379a00000000000000000000000000000000000000000000000000000000081526004016117a59061388a565b60405180910390fd5b6117b9838383612153565b6117c46000826114fc565b6001600360008573ffffffffffffffffffffffffffffffffffffffff1673ffffffffffffffffffffffffffffffffffffffff168152602001908152602001600020600082825461181491906138d9565b925050819055506001600360008473ffffffffffffffffffffffffffffffffffffffff1673ffffffffffffffffffffffffffffffffffffffff168152602001908152602001600020600082825461186b919061390d565b92505081905550816002600083815260200190815260200160002060006101000a81548173ffffffffffffffffffffffffffffffffffffffff021916908373ffffffffffffffffffffffffffffffffffffffff160217905550808273ffffffffffffffffffffffffffffffffffffffff168473ffffffffffffffffffffffffffffffffffffffff167fddf252ad1be2c89b69c2b068fc378daa952ba7f163c4a11628f55a4df523b3ef60405160405180910390a461192a8383836121ef565b505050565b6119376121f4565b6000600a60006101000a81548160ff0219169083151502179055507f5db9ee0a495bf2e6ff9c91a7834c1ba4fdd244a5e8aa4e537bd38aeae4b073aa61197b6114f4565b6040516119889190612d2d565b60405180910390a1565b600081600001549050919050565b6001816000016000828254019250508190555050565b6119d082826040518060200160405280600081525061223d565b5050565b60006119df82610f5e565b90506119ed81600084612153565b6119f86000836114fc565b6001600360008373ffffffffffffffffffffffffffffffffffffffff1673ffffffffffffffffffffffffffffffffffffffff1681526020019081526020016000206000828254611a4891906138d9565b925050819055506002600083815260200190815260200160002060006101000a81549073ffffffffffffffffffffffffffffffffffffffff021916905581600073ffffffffffffffffffffffffffffffffffffffff168273ffffffffffffffffffffffffffffffffffffffff167fddf252ad1be2c89b69c2b068fc378daa952ba7f163c4a11628f55a4df523b3ef60405160405180910390a4611aed816000846121ef565b5050565b6000600a60019054906101000a900473ffffffffffffffffffffffffffffffffffffffff16905081600a60016101000a81548173ffffffffffffffffffffffffffffffffffffffff021916908373ffffffffffffffffffffffffffffffffffffffff1602179055508173ffffffffffffffffffffffffffffffffffffffff168173ffffffffffffffffffffffffffffffffffffffff167f8be0079c531659141344cd1fd0a4f28419497f9722a3daafe3b4186f6b6457e060405160405180910390a35050565b611bbf612298565b6001600a60006101000a81548160ff0219169083151502179055507f62e78cea01bee320cd4e420270b5ea74000d11b0c9f74754ebdbfc544b05a258611c036114f4565b604051611c109190612d2d565b60405180910390a1565b8173ffffffffffffffffffffffffffffffffffffffff168373ffffffffffffffffffffffffffffffffffffffff161415611c89576040517f08c379a0000000000000000000000000000000000000000000000000000000008152600401611c80906139af565b60405180910390fd5b80600560008573ffffffffffffffffffffffffffffffffffffffff1673ffffffffffffffffffffffffffffffffffffffff16815260200190815260200160002060008473ffffffffffffffffffffffffffffffffffffffff1673ffffffffffffffffffffffffffffffffffffffff16815260200190815260200160002060006101000a81548160ff0219169083151502179055508173ffffffffffffffffffffffffffffffffffffffff168373ffffffffffffffffffffffffffffffffffffffff167f17307eab39ab6107e8899845ad3d59bd9653f200f220920489ca2b5937696c3183604051611d7a9190612bb3565b60405180910390a3505050565b611d928484846116c8565b611d9e848484846122e2565b611ddd576040517f08c379a0000000000000000000000000000000000000000000000000000000008152600401611dd490613a41565b60405180910390fd5b50505050565b6060611e117fe2fb211d26a079b20fc3965744490ee43a49fed67c74bfa989437d39fbe4c19160001b61142c565b611e3d7fb9136f6a84e947708995f20d296d40557428eae8291ca37285aabaed0dd677ef60001b61142c565b611e697fe931934baf8b59b588417ceda43b58851a0d8a92cfb6e5b10b84a42c07f22b1c60001b61142c565b6040518060400160405280601d81526020017f68747470733a2f2f6170692e6d796e66742e636f6d2f746f6b656e732f000000815250905090565b60606000821415611eec576040518060400160405280600181526020017f30000000000000000000000000000000000000000000000000000000000000008152509050612000565b600082905060005b60008214611f1e578080611f0790613a61565b915050600a82611f179190613ad9565b9150611ef4565b60008167ffffffffffffffff811115611f3a57611f39612ed4565b5b6040519080825280601f01601f191660200182016040528015611f6c5781602001600182028036833780820191505090505b5090505b60008514611ff957600182611f8591906138d9565b9150600a85611f949190613b0a565b6030611fa0919061390d565b60f81b818381518110611fb657611fb56134fb565b5b60200101907effffffffffffffffffffffffffffffffffffffffffffffffffffffffffffff1916908160001a905350600a85611ff29190613ad9565b9450611f70565b8093505050505b919050565b60007f80ac58cd000000000000000000000000000000000000000000000000000000007bffffffffffffffffffffffffffffffffffffffffffffffffffffffff1916827bffffffffffffffffffffffffffffffffffffffffffffffffffffffff191614806120d057507f5b5e139f000000000000000000000000000000000000000000000000000000007bffffffffffffffffffffffffffffffffffffffffffffffffffffffff1916827bffffffffffffffffffffffffffffffffffffffffffffffffffffffff1916145b806120e057506120df82612479565b5b9050919050565b60008073ffffffffffffffffffffffffffffffffffffffff166002600084815260200190815260200160002060009054906101000a900473ffffffffffffffffffffffffffffffffffffffff1673ffffffffffffffffffffffffffffffffffffffff1614159050919050565b61215b612298565b6121877fca97c9482532a03c61dfc5675220e2ecbbb6584d30bf894e7aaa1019d3a2083e60001b61142c565b6121b37fb28c44b0d8825031a0d2bb53de9bc8abe16958a60b719ed958a425d2e0a5fe9f60001b61142c565b6121df7f7f8c85ba96140f1f2f4a096ce07642f86e7169305204be3bdf185b3f2552b8d860001b61142c565b6121ea8383836124e3565b505050565b505050565b6121fc610f47565b61223b576040517f08c379a000000000000000000000000000000000000000000000000000000000815260040161223290613b87565b60405180910390fd5b565b61224783836125f7565b61225460008484846122e2565b612293576040517f08c379a000000000000000000000000000000000000000000000000000000000815260040161228a90613a41565b60405180910390fd5b505050565b6122a0610f47565b156122e0576040517f08c379a00000000000000000000000000000000000000000000000000000000081526004016122d790613bf3565b60405180910390fd5b565b60006123038473ffffffffffffffffffffffffffffffffffffffff166127d1565b1561246c578373ffffffffffffffffffffffffffffffffffffffff1663150b7a0261232c6114f4565b8786866040518563ffffffff1660e01b815260040161234e9493929190613c68565b602060405180830381600087803b15801561236857600080fd5b505af192505050801561239957506040513d601f19601f820116820180604052508101906123969190613cc9565b60015b61241c573d80600081146123c9576040519150601f19603f3d011682016040523d82523d6000602084013e6123ce565b606091505b50600081511415612414576040517f08c379a000000000000000000000000000000000000000000000000000000000815260040161240b90613a41565b60405180910390fd5b805181602001fd5b63150b7a0260e01b7bffffffffffffffffffffffffffffffffffffffffffffffffffffffff1916817bffffffffffffffffffffffffffffffffffffffffffffffffffffffff191614915050612471565b600190505b949350505050565b60007f01ffc9a7000000000000000000000000000000000000000000000000000000007bffffffffffffffffffffffffffffffffffffffffffffffffffffffff1916827bffffffffffffffffffffffffffffffffffffffffffffffffffffffff1916149050919050565b6124ee8383836127f4565b600073ffffffffffffffffffffffffffffffffffffffff168373ffffffffffffffffffffffffffffffffffffffff1614156125315761252c816127f9565b612570565b8173ffffffffffffffffffffffffffffffffffffffff168373ffffffffffffffffffffffffffffffffffffffff161461256f5761256e8382612842565b5b5b600073ffffffffffffffffffffffffffffffffffffffff168273ffffffffffffffffffffffffffffffffffffffff1614156125b3576125ae816129af565b6125f2565b8273ffffffffffffffffffffffffffffffffffffffff168273ffffffffffffffffffffffffffffffffffffffff16146125f1576125f08282612a80565b5b5b505050565b600073ffffffffffffffffffffffffffffffffffffffff168273ffffffffffffffffffffffffffffffffffffffff161415612667576040517f08c379a000000000000000000000000000000000000000000000000000000000815260040161265e90613d42565b60405180910390fd5b612670816120e7565b156126b0576040517f08c379a00000000000000000000000000000000000000000000000000000000081526004016126a790613dae565b60405180910390fd5b6126bc60008383612153565b6001600360008473ffffffffffffffffffffffffffffffffffffffff1673ffffffffffffffffffffffffffffffffffffffff168152602001908152602001600020600082825461270c919061390d565b92505081905550816002600083815260200190815260200160002060006101000a81548173ffffffffffffffffffffffffffffffffffffffff021916908373ffffffffffffffffffffffffffffffffffffffff160217905550808273ffffffffffffffffffffffffffffffffffffffff16600073ffffffffffffffffffffffffffffffffffffffff167fddf252ad1be2c89b69c2b068fc378daa952ba7f163c4a11628f55a4df523b3ef60405160405180910390a46127cd600083836121ef565b5050565b6000808273ffffffffffffffffffffffffffffffffffffffff163b119050919050565b505050565b6008805490506009600083815260200190815260200160002081905550600881908060018154018082558091505060019003906000526020600020016000909190919091505550565b6000600161284f84611010565b61285991906138d9565b905060006007600084815260200190815260200160002054905081811461293e576000600660008673ffffffffffffffffffffffffffffffffffffffff1673ffffffffffffffffffffffffffffffffffffffff168152602001908152602001600020600084815260200190815260200160002054905080600660008773ffffffffffffffffffffffffffffffffffffffff1673ffffffffffffffffffffffffffffffffffffffff168152602001908152602001600020600084815260200190815260200160002081905550816007600083815260200190815260200160002081905550505b6007600084815260200190815260200160002060009055600660008573ffffffffffffffffffffffffffffffffffffffff1673ffffffffffffffffffffffffffffffffffffffff16815260200190815260200160002060008381526020019081526020016000206000905550505050565b600060016008805490506129c391906138d9565b90506000600960008481526020019081526020016000205490506000600883815481106129f3576129f26134fb565b5b906000526020600020015490508060088381548110612a1557612a146134fb565b5b906000526020600020018190555081600960008381526020019081526020016000208190555060096000858152602001908152602001600020600090556008805480612a6457612a63613dce565b5b6001900381819060005260206000200160009055905550505050565b6000612a8b83611010565b905081600660008573ffffffffffffffffffffffffffffffffffffffff1673ffffffffffffffffffffffffffffffffffffffff168152602001908152602001600020600083815260200190815260200160002081905550806007600084815260200190815260200160002081905550505050565b6000604051905090565b600080fd5b600080fd5b60007fffffffff0000000000000000000000000000000000000000000000000000000082169050919050565b612b4881612b13565b8114612b5357600080fd5b50565b600081359050612b6581612b3f565b92915050565b600060208284031215612b8157612b80612b09565b5b6000612b8f84828501612b56565b91505092915050565b60008115159050919050565b612bad81612b98565b82525050565b6000602082019050612bc86000830184612ba4565b92915050565b600081519050919050565b600082825260208201905092915050565b60005b83811015612c08578082015181840152602081019050612bed565b83811115612c17576000848401525b50505050565b6000601f19601f8301169050919050565b6000612c3982612bce565b612c438185612bd9565b9350612c53818560208601612bea565b612c5c81612c1d565b840191505092915050565b60006020820190508181036000830152612c818184612c2e565b905092915050565b6000819050919050565b612c9c81612c89565b8114612ca757600080fd5b50565b600081359050612cb981612c93565b92915050565b600060208284031215612cd557612cd4612b09565b5b6000612ce384828501612caa565b91505092915050565b600073ffffffffffffffffffffffffffffffffffffffff82169050919050565b6000612d1782612cec565b9050919050565b612d2781612d0c565b82525050565b6000602082019050612d426000830184612d1e565b92915050565b612d5181612d0c565b8114612d5c57600080fd5b50565b600081359050612d6e81612d48565b92915050565b60008060408385031215612d8b57612d8a612b09565b5b6000612d9985828601612d5f565b9250506020612daa85828601612caa565b9150509250929050565b612dbd81612c89565b82525050565b6000602082019050612dd86000830184612db4565b92915050565b600080600060608486031215612df757612df6612b09565b5b6000612e0586828701612d5f565b9350506020612e1686828701612d5f565b9250506040612e2786828701612caa565b9150509250925092565b600060208284031215612e4757612e46612b09565b5b6000612e5584828501612d5f565b91505092915050565b612e6781612b98565b8114612e7257600080fd5b50565b600081359050612e8481612e5e565b92915050565b60008060408385031215612ea157612ea0612b09565b5b6000612eaf85828601612d5f565b9250506020612ec085828601612e75565b9150509250929050565b600080fd5b600080fd5b7f4e487b7100000000000000000000000000000000000000000000000000000000600052604160045260246000fd5b612f0c82612c1d565b810181811067ffffffffffffffff82111715612f2b57612f2a612ed4565b5b80604052505050565b6000612f3e612aff565b9050612f4a8282612f03565b919050565b600067ffffffffffffffff821115612f6a57612f69612ed4565b5b612f7382612c1d565b9050602081019050919050565b82818337600083830152505050565b6000612fa2612f9d84612f4f565b612f34565b905082815260208101848484011115612fbe57612fbd612ecf565b5b612fc9848285612f80565b509392505050565b600082601f830112612fe657612fe5612eca565b5b8135612ff6848260208601612f8f565b91505092915050565b6000806000806080858703121561301957613018612b09565b5b600061302787828801612d5f565b945050602061303887828801612d5f565b935050604061304987828801612caa565b925050606085013567ffffffffffffffff81111561306a57613069612b0e565b5b61307687828801612fd1565b91505092959194509250565b6000806040838503121561309957613098612b09565b5b60006130a785828601612d5f565b92505060206130b885828601612d5f565b9150509250929050565b7f4e487b7100000000000000000000000000000000000000000000000000000000600052602260045260246000fd5b6000600282049050600182168061310957607f821691505b6020821081141561311d5761311c6130c2565b5b50919050565b7f4552433732313a20617070726f76616c20746f2063757272656e74206f776e6560008201527f7200000000000000000000000000000000000000000000000000000000000000602082015250565b600061317f602183612bd9565b915061318a82613123565b604082019050919050565b600060208201905081810360008301526131ae81613172565b9050919050565b7f4552433732313a20617070726f76652063616c6c6572206973206e6f7420746f60008201527f6b656e206f776e6572206e6f7220617070726f76656420666f7220616c6c0000602082015250565b6000613211603e83612bd9565b915061321c826131b5565b604082019050919050565b6000602082019050818103600083015261324081613204565b9050919050565b7f42616c616e636520697320300000000000000000000000000000000000000000600082015250565b600061327d600c83612bd9565b915061328882613247565b602082019050919050565b600060208201905081810360008301526132ac81613270565b9050919050565b7f4552433732313a2063616c6c6572206973206e6f7420746f6b656e206f776e6560008201527f72206e6f7220617070726f766564000000000000000000000000000000000000602082015250565b600061330f602e83612bd9565b915061331a826132b3565b604082019050919050565b6000602082019050818103600083015261333e81613302565b9050919050565b7f455243373231456e756d657261626c653a206f776e657220696e646578206f7560008201527f74206f6620626f756e6473000000000000000000000000000000000000000000602082015250565b60006133a1602b83612bd9565b91506133ac82613345565b604082019050919050565b600060208201905081810360008301526133d081613394565b9050919050565b7f546865206d696e74696e67206c696d697420686173207265616368656420746f60008201527f20697473206d61782c20536f7272792100000000000000000000000000000000602082015250565b6000613433603083612bd9565b915061343e826133d7565b604082019050919050565b6000602082019050818103600083015261346281613426565b9050919050565b7f455243373231456e756d657261626c653a20676c6f62616c20696e646578206f60008201527f7574206f6620626f756e64730000000000000000000000000000000000000000602082015250565b60006134c5602c83612bd9565b91506134d082613469565b604082019050919050565b600060208201905081810360008301526134f4816134b8565b9050919050565b7f4e487b7100000000000000000000000000000000000000000000000000000000600052603260045260246000fd5b7f4552433732313a20696e76616c696420746f6b656e2049440000000000000000600082015250565b6000613560601883612bd9565b915061356b8261352a565b602082019050919050565b6000602082019050818103600083015261358f81613553565b9050919050565b7f4552433732313a2061646472657373207a65726f206973206e6f74206120766160008201527f6c6964206f776e65720000000000000000000000000000000000000000000000602082015250565b60006135f2602983612bd9565b91506135fd82613596565b604082019050919050565b60006020820190508181036000830152613621816135e5565b9050919050565b600081905092915050565b600061363e82612bce565b6136488185613628565b9350613658818560208601612bea565b80840191505092915050565b60006136708285613633565b915061367c8284613633565b91508190509392505050565b7f4f776e61626c653a206e6577206f776e657220697320746865207a65726f206160008201527f6464726573730000000000000000000000000000000000000000000000000000602082015250565b60006136e4602683612bd9565b91506136ef82613688565b604082019050919050565b60006020820190508181036000830152613713816136d7565b9050919050565b7f4f776e61626c653a2063616c6c6572206973206e6f7420746865206f776e6572600082015250565b6000613750602083612bd9565b915061375b8261371a565b602082019050919050565b6000602082019050818103600083015261377f81613743565b9050919050565b7f4552433732313a207472616e736665722066726f6d20696e636f72726563742060008201527f6f776e6572000000000000000000000000000000000000000000000000000000602082015250565b60006137e2602583612bd9565b91506137ed82613786565b604082019050919050565b60006020820190508181036000830152613811816137d5565b9050919050565b7f4552433732313a207472616e7366657220746f20746865207a65726f2061646460008201527f7265737300000000000000000000000000000000000000000000000000000000602082015250565b6000613874602483612bd9565b915061387f82613818565b604082019050919050565b600060208201905081810360008301526138a381613867565b9050919050565b7f4e487b7100000000000000000000000000000000000000000000000000000000600052601160045260246000fd5b60006138e482612c89565b91506138ef83612c89565b925082821015613902576139016138aa565b5b828203905092915050565b600061391882612c89565b915061392383612c89565b9250827fffffffffffffffffffffffffffffffffffffffffffffffffffffffffffffffff03821115613958576139576138aa565b5b828201905092915050565b7f4552433732313a20617070726f766520746f2063616c6c657200000000000000600082015250565b6000613999601983612bd9565b91506139a482613963565b602082019050919050565b600060208201905081810360008301526139c88161398c565b9050919050565b7f4552433732313a207472616e7366657220746f206e6f6e20455243373231526560008201527f63656976657220696d706c656d656e7465720000000000000000000000000000602082015250565b6000613a2b603283612bd9565b9150613a36826139cf565b604082019050919050565b60006020820190508181036000830152613a5a81613a1e565b9050919050565b6000613a6c82612c89565b91507fffffffffffffffffffffffffffffffffffffffffffffffffffffffffffffffff821415613a9f57613a9e6138aa565b5b600182019050919050565b7f4e487b7100000000000000000000000000000000000000000000000000000000600052601260045260246000fd5b6000613ae482612c89565b9150613aef83612c89565b925082613aff57613afe613aaa565b5b828204905092915050565b6000613b1582612c89565b9150613b2083612c89565b925082613b3057613b2f613aaa565b5b828206905092915050565b7f5061757361626c653a206e6f7420706175736564000000000000000000000000600082015250565b6000613b71601483612bd9565b9150613b7c82613b3b565b602082019050919050565b60006020820190508181036000830152613ba081613b64565b9050919050565b7f5061757361626c653a2070617573656400000000000000000000000000000000600082015250565b6000613bdd601083612bd9565b9150613be882613ba7565b602082019050919050565b60006020820190508181036000830152613c0c81613bd0565b9050919050565b600081519050919050565b600082825260208201905092915050565b6000613c3a82613c13565b613c448185613c1e565b9350613c54818560208601612bea565b613c5d81612c1d565b840191505092915050565b6000608082019050613c7d6000830187612d1e565b613c8a6020830186612d1e565b613c976040830185612db4565b8181036060830152613ca98184613c2f565b905095945050505050565b600081519050613cc381612b3f565b92915050565b600060208284031215613cdf57613cde612b09565b5b6000613ced84828501613cb4565b91505092915050565b7f4552433732313a206d696e7420746f20746865207a65726f2061646472657373600082015250565b6000613d2c602083612bd9565b9150613d3782613cf6565b602082019050919050565b60006020820190508181036000830152613d5b81613d1f565b9050919050565b7f4552433732313a20746f6b656e20616c7265616479206d696e74656400000000600082015250565b6000613d98601c83612bd9565b9150613da382613d62565b602082019050919050565b60006020820190508181036000830152613dc781613d8b565b9050919050565b7f4e487b7100000000000000000000000000000000000000000000000000000000600052603160045260246000fdfea26469706673582212203c2c37cb473965790176542e262410864d7fef5c58e0384cdb18425eecc1147664736f6c63430008090033",
  "linkReferences": {},
  "deployedLinkReferences": {}
}