{
  "_format": "hh-sol-artifact-1",
  "contractName": "MyNFT",
  "sourceName": "contracts/MyNFT.sol",
  "abi": [
    {
      "inputs": [],
      "stateMutability": "nonpayable",
      "type": "constructor"
    },
    {
      "anonymous": false,
      "inputs": [
        {
          "indexed": true,
          "internalType": "address",
          "name": "owner",
          "type": "address"
        },
        {
          "indexed": true,
          "internalType": "address",
          "name": "approved",
          "type": "address"
        },
        {
          "indexed": true,
          "internalType": "uint256",
          "name": "tokenId",
          "type": "uint256"
        }
      ],
      "name": "Approval",
      "type": "event"
    },
    {
      "anonymous": false,
      "inputs": [
        {
          "indexed": true,
          "internalType": "address",
          "name": "owner",
          "type": "address"
        },
        {
          "indexed": true,
          "internalType": "address",
          "name": "operator",
          "type": "address"
        },
        {
          "indexed": false,
          "internalType": "bool",
          "name": "approved",
          "type": "bool"
        }
      ],
      "name": "ApprovalForAll",
      "type": "event"
    },
    {
      "anonymous": false,
      "inputs": [
        {
          "indexed": true,
          "internalType": "address",
          "name": "previousOwner",
          "type": "address"
        },
        {
          "indexed": true,
          "internalType": "address",
          "name": "newOwner",
          "type": "address"
        }
      ],
      "name": "OwnershipTransferred",
      "type": "event"
    },
    {
      "anonymous": false,
      "inputs": [
        {
          "indexed": false,
          "internalType": "address",
          "name": "account",
          "type": "address"
        }
      ],
      "name": "Paused",
      "type": "event"
    },
    {
      "anonymous": false,
      "inputs": [
        {
          "indexed": true,
          "internalType": "address",
          "name": "from",
          "type": "address"
        },
        {
          "indexed": true,
          "internalType": "address",
          "name": "to",
          "type": "address"
        },
        {
          "indexed": true,
          "internalType": "uint256",
          "name": "tokenId",
          "type": "uint256"
        }
      ],
      "name": "Transfer",
      "type": "event"
    },
    {
      "anonymous": false,
      "inputs": [
        {
          "indexed": false,
          "internalType": "address",
          "name": "account",
          "type": "address"
        }
      ],
      "name": "Unpaused",
      "type": "event"
    },
    {
      "inputs": [
        {
          "internalType": "address",
          "name": "to",
          "type": "address"
        },
        {
          "internalType": "uint256",
          "name": "tokenId",
          "type": "uint256"
        }
      ],
      "name": "approve",
      "outputs": [],
      "stateMutability": "nonpayable",
      "type": "function"
    },
    {
      "inputs": [
        {
          "internalType": "address",
          "name": "owner",
          "type": "address"
        }
      ],
      "name": "balanceOf",
      "outputs": [
        {
          "internalType": "uint256",
          "name": "",
          "type": "uint256"
        }
      ],
      "stateMutability": "view",
      "type": "function"
    },
    {
      "inputs": [
        {
          "internalType": "uint256",
          "name": "tokenId",
          "type": "uint256"
        }
      ],
      "name": "burn",
      "outputs": [],
      "stateMutability": "nonpayable",
      "type": "function"
    },
    {
      "inputs": [
        {
          "internalType": "uint256",
          "name": "tokenId",
          "type": "uint256"
        }
      ],
      "name": "getApproved",
      "outputs": [
        {
          "internalType": "address",
          "name": "",
          "type": "address"
        }
      ],
      "stateMutability": "view",
      "type": "function"
    },
    {
      "inputs": [
        {
          "internalType": "address",
          "name": "owner",
          "type": "address"
        },
        {
          "internalType": "address",
          "name": "operator",
          "type": "address"
        }
      ],
      "name": "isApprovedForAll",
      "outputs": [
        {
          "internalType": "bool",
          "name": "",
          "type": "bool"
        }
      ],
      "stateMutability": "view",
      "type": "function"
    },
    {
      "inputs": [],
      "name": "maxSupply",
      "outputs": [
        {
          "internalType": "uint256",
          "name": "",
          "type": "uint256"
        }
      ],
      "stateMutability": "view",
      "type": "function"
    },
    {
      "inputs": [],
      "name": "mintRate",
      "outputs": [
        {
          "internalType": "uint256",
          "name": "",
          "type": "uint256"
        }
      ],
      "stateMutability": "view",
      "type": "function"
    },
    {
      "inputs": [],
      "name": "name",
      "outputs": [
        {
          "internalType": "string",
          "name": "",
          "type": "string"
        }
      ],
      "stateMutability": "view",
      "type": "function"
    },
    {
      "inputs": [],
      "name": "owner",
      "outputs": [
        {
          "internalType": "address",
          "name": "",
          "type": "address"
        }
      ],
      "stateMutability": "view",
      "type": "function"
    },
    {
      "inputs": [
        {
          "internalType": "uint256",
          "name": "tokenId",
          "type": "uint256"
        }
      ],
      "name": "ownerOf",
      "outputs": [
        {
          "internalType": "address",
          "name": "",
          "type": "address"
        }
      ],
      "stateMutability": "view",
      "type": "function"
    },
    {
      "inputs": [],
      "name": "pause",
      "outputs": [],
      "stateMutability": "nonpayable",
      "type": "function"
    },
    {
      "inputs": [],
      "name": "paused",
      "outputs": [
        {
          "internalType": "bool",
          "name": "",
          "type": "bool"
        }
      ],
      "stateMutability": "view",
      "type": "function"
    },
    {
      "inputs": [],
      "name": "renounceOwnership",
      "outputs": [],
      "stateMutability": "nonpayable",
      "type": "function"
    },
    {
      "inputs": [
        {
          "internalType": "address",
          "name": "to",
          "type": "address"
        }
      ],
      "name": "safeMint",
      "outputs": [],
      "stateMutability": "payable",
      "type": "function"
    },
    {
      "inputs": [
        {
          "internalType": "address",
          "name": "from",
          "type": "address"
        },
        {
          "internalType": "address",
          "name": "to",
          "type": "address"
        },
        {
          "internalType": "uint256",
          "name": "tokenId",
          "type": "uint256"
        }
      ],
      "name": "safeTransferFrom",
      "outputs": [],
      "stateMutability": "nonpayable",
      "type": "function"
    },
    {
      "inputs": [
        {
          "internalType": "address",
          "name": "from",
          "type": "address"
        },
        {
          "internalType": "address",
          "name": "to",
          "type": "address"
        },
        {
          "internalType": "uint256",
          "name": "tokenId",
          "type": "uint256"
        },
        {
          "internalType": "bytes",
          "name": "data",
          "type": "bytes"
        }
      ],
      "name": "safeTransferFrom",
      "outputs": [],
      "stateMutability": "nonpayable",
      "type": "function"
    },
    {
      "inputs": [
        {
          "internalType": "address",
          "name": "operator",
          "type": "address"
        },
        {
          "internalType": "bool",
          "name": "approved",
          "type": "bool"
        }
      ],
      "name": "setApprovalForAll",
      "outputs": [],
      "stateMutability": "nonpayable",
      "type": "function"
    },
    {
      "inputs": [
        {
          "internalType": "bytes4",
          "name": "interfaceId",
          "type": "bytes4"
        }
      ],
      "name": "supportsInterface",
      "outputs": [
        {
          "internalType": "bool",
          "name": "",
          "type": "bool"
        }
      ],
      "stateMutability": "view",
      "type": "function"
    },
    {
      "inputs": [],
      "name": "symbol",
      "outputs": [
        {
          "internalType": "string",
          "name": "",
          "type": "string"
        }
      ],
      "stateMutability": "view",
      "type": "function"
    },
    {
      "inputs": [
        {
          "internalType": "uint256",
          "name": "index",
          "type": "uint256"
        }
      ],
      "name": "tokenByIndex",
      "outputs": [
        {
          "internalType": "uint256",
          "name": "",
          "type": "uint256"
        }
      ],
      "stateMutability": "view",
      "type": "function"
    },
    {
      "inputs": [
        {
          "internalType": "address",
          "name": "owner",
          "type": "address"
        },
        {
          "internalType": "uint256",
          "name": "index",
          "type": "uint256"
        }
      ],
      "name": "tokenOfOwnerByIndex",
      "outputs": [
        {
          "internalType": "uint256",
          "name": "",
          "type": "uint256"
        }
      ],
      "stateMutability": "view",
      "type": "function"
    },
    {
      "inputs": [
        {
          "internalType": "uint256",
          "name": "tokenId",
          "type": "uint256"
        }
      ],
      "name": "tokenURI",
      "outputs": [
        {
          "internalType": "string",
          "name": "",
          "type": "string"
        }
      ],
      "stateMutability": "view",
      "type": "function"
    },
    {
      "inputs": [],
      "name": "totalSupply",
      "outputs": [
        {
          "internalType": "uint256",
          "name": "",
          "type": "uint256"
        }
      ],
      "stateMutability": "view",
      "type": "function"
    },
    {
      "inputs": [
        {
          "internalType": "address",
          "name": "to",
          "type": "address"
        },
        {
          "internalType": "uint256",
          "name": "amount",
          "type": "uint256"
        }
      ],
      "name": "transfer",
      "outputs": [],
      "stateMutability": "nonpayable",
      "type": "function"
    },
    {
      "inputs": [
        {
          "internalType": "address",
          "name": "from",
          "type": "address"
        },
        {
          "internalType": "address",
          "name": "to",
          "type": "address"
        },
        {
          "internalType": "uint256",
          "name": "tokenId",
          "type": "uint256"
        }
      ],
      "name": "transferFrom",
      "outputs": [],
      "stateMutability": "nonpayable",
      "type": "function"
    },
    {
      "inputs": [
        {
          "internalType": "address",
          "name": "newOwner",
          "type": "address"
        }
      ],
      "name": "transferOwnership",
      "outputs": [],
      "stateMutability": "nonpayable",
      "type": "function"
    },
    {
      "inputs": [],
      "name": "unpause",
      "outputs": [],
      "stateMutability": "nonpayable",
      "type": "function"
    },
    {
      "inputs": [],
      "name": "withDraw",
      "outputs": [],
      "stateMutability": "nonpayable",
      "type": "function"
    }
  ],
  "bytecode": "0x6080604052662386f26fc10000600c55600a600d553480156200002157600080fd5b506040518060400160405280600581526020017f4d794e46540000000000000000000000000000000000000000000000000000008152506040518060400160405280600481526020017f4d4e4654000000000000000000000000000000000000000000000000000000008152508160009080519060200190620000a6929190620001d1565b508060019080519060200190620000bf929190620001d1565b5050506000600a60006101000a81548160ff021916908315150217905550620000fd620000f16200010360201b60201c565b6200010b60201b60201c565b620002e6565b600033905090565b6000600a60019054906101000a900473ffffffffffffffffffffffffffffffffffffffff16905081600a60016101000a81548173ffffffffffffffffffffffffffffffffffffffff021916908373ffffffffffffffffffffffffffffffffffffffff1602179055508173ffffffffffffffffffffffffffffffffffffffff168173ffffffffffffffffffffffffffffffffffffffff167f8be0079c531659141344cd1fd0a4f28419497f9722a3daafe3b4186f6b6457e060405160405180910390a35050565b828054620001df90620002b0565b90600052602060002090601f0160209004810192826200020357600085556200024f565b82601f106200021e57805160ff19168380011785556200024f565b828001600101855582156200024f579182015b828111156200024e57825182559160200191906001019062000231565b5b5090506200025e919062000262565b5090565b5b808211156200027d57600081600090555060010162000263565b5090565b7f4e487b7100000000000000000000000000000000000000000000000000000000600052602260045260246000fd5b60006002820490506001821680620002c957607f821691505b60208210811415620002e057620002df62000281565b5b50919050565b6139c980620002f66000396000f3fe6080604052600436106101b75760003560e01c80636352211e116100ec578063a9059cbb1161008a578063ca0dcf1611610064578063ca0dcf16146105d5578063d5abeb0114610600578063e985e9c51461062b578063f2fde38b14610668576101b7565b8063a9059cbb14610546578063b88d4fde1461056f578063c87b56dd14610598576101b7565b80638456cb59116100c65780638456cb59146104b05780638da5cb5b146104c757806395d89b41146104f2578063a22cb4651461051d576101b7565b80636352211e1461041f57806370a082311461045c578063715018a614610499576101b7565b80632f745c591161015957806342842e0e1161013357806342842e0e1461036557806342966c681461038e5780634f6ccce7146103b75780635c975abb146103f4576101b7565b80632f745c59146102f55780633f4ba83a1461033257806340d097c314610349576101b7565b8063095ea7b311610195578063095ea7b3146102615780630fdb1c101461028a57806318160ddd146102a157806323b872dd146102cc576101b7565b806301ffc9a7146101bc57806306fdde03146101f9578063081812fc14610224575b600080fd5b3480156101c857600080fd5b506101e360048036038101906101de9190612695565b610691565b6040516101f091906126dd565b60405180910390f35b34801561020557600080fd5b5061020e6106a3565b60405161021b9190612791565b60405180910390f35b34801561023057600080fd5b5061024b600480360381019061024691906127e9565b610735565b6040516102589190612857565b60405180910390f35b34801561026d57600080fd5b506102886004803603810190610283919061289e565b61077b565b005b34801561029657600080fd5b5061029f610893565b005b3480156102ad57600080fd5b506102b661092e565b6040516102c391906128ed565b60405180910390f35b3480156102d857600080fd5b506102f360048036038101906102ee9190612908565b61093b565b005b34801561030157600080fd5b5061031c6004803603810190610317919061289e565b61099b565b60405161032991906128ed565b60405180910390f35b34801561033e57600080fd5b50610347610a40565b005b610363600480360381019061035e919061295b565b610a52565b005b34801561037157600080fd5b5061038c60048036038101906103879190612908565b610b09565b005b34801561039a57600080fd5b506103b560048036038101906103b091906127e9565b610b29565b005b3480156103c357600080fd5b506103de60048036038101906103d991906127e9565b610b85565b6040516103eb91906128ed565b60405180910390f35b34801561040057600080fd5b50610409610bf6565b60405161041691906126dd565b60405180910390f35b34801561042b57600080fd5b50610446600480360381019061044191906127e9565b610c0d565b6040516104539190612857565b60405180910390f35b34801561046857600080fd5b50610483600480360381019061047e919061295b565b610cbf565b60405161049091906128ed565b60405180910390f35b3480156104a557600080fd5b506104ae610d77565b005b3480156104bc57600080fd5b506104c5610d8b565b005b3480156104d357600080fd5b506104dc610d9d565b6040516104e99190612857565b60405180910390f35b3480156104fe57600080fd5b50610507610dc7565b6040516105149190612791565b60405180910390f35b34801561052957600080fd5b50610544600480360381019061053f91906129b4565b610e59565b005b34801561055257600080fd5b5061056d6004803603810190610568919061289e565b610e6f565b005b34801561057b57600080fd5b5061059660048036038101906105919190612b29565b610e73565b005b3480156105a457600080fd5b506105bf60048036038101906105ba91906127e9565b610ed5565b6040516105cc9190612791565b60405180910390f35b3480156105e157600080fd5b506105ea610f3d565b6040516105f791906128ed565b60405180910390f35b34801561060c57600080fd5b50610615610f43565b60405161062291906128ed565b60405180910390f35b34801561063757600080fd5b50610652600480360381019061064d9190612bac565b610f49565b60405161065f91906126dd565b60405180910390f35b34801561067457600080fd5b5061068f600480360381019061068a919061295b565b610fdd565b005b600061069c82611061565b9050919050565b6060600080546106b290612c1b565b80601f01602080910402602001604051908101604052809291908181526020018280546106de90612c1b565b801561072b5780601f106107005761010080835404028352916020019161072b565b820191906000526020600020905b81548152906001019060200180831161070e57829003601f168201915b5050505050905090565b6000610740826110db565b6004600083815260200190815260200160002060009054906101000a900473ffffffffffffffffffffffffffffffffffffffff169050919050565b600061078682610c0d565b90508073ffffffffffffffffffffffffffffffffffffffff168373ffffffffffffffffffffffffffffffffffffffff1614156107f7576040517f08c379a00000000000000000000000000000000000000000000000000000000081526004016107ee90612cbf565b60405180910390fd5b8073ffffffffffffffffffffffffffffffffffffffff16610816611126565b73ffffffffffffffffffffffffffffffffffffffff16148061084557506108448161083f611126565b610f49565b5b610884576040517f08c379a000000000000000000000000000000000000000000000000000000000815260040161087b90612d51565b60405180910390fd5b61088e838361112e565b505050565b61089b6111e7565b600047116108de576040517f08c379a00000000000000000000000000000000000000000000000000000000081526004016108d590612dbd565b60405180910390fd5b6108e6610d9d565b73ffffffffffffffffffffffffffffffffffffffff166108fc479081150290604051600060405180830381858888f1935050505015801561092b573d6000803e3d6000fd5b50565b6000600880549050905090565b61094c610946611126565b82611265565b61098b576040517f08c379a000000000000000000000000000000000000000000000000000000000815260040161098290612e4f565b60405180910390fd5b6109968383836112fa565b505050565b60006109a683610cbf565b82106109e7576040517f08c379a00000000000000000000000000000000000000000000000000000000081526004016109de90612ee1565b60405180910390fd5b600660008473ffffffffffffffffffffffffffffffffffffffff1673ffffffffffffffffffffffffffffffffffffffff168152602001908152602001600020600083815260200190815260200160002054905092915050565b610a486111e7565b610a50611561565b565b600d54610a5d61092e565b1115610a9e576040517f08c379a0000000000000000000000000000000000000000000000000000000008152600401610a9590612f73565b60405180910390fd5b600c54341015610ae3576040517f08c379a0000000000000000000000000000000000000000000000000000000008152600401610ada90612fdf565b60405180910390fd5b6000610aef600b6115c4565b9050610afb600b6115d2565b610b0582826115e8565b5050565b610b2483838360405180602001604052806000815250610e73565b505050565b610b3a610b34611126565b82611265565b610b79576040517f08c379a0000000000000000000000000000000000000000000000000000000008152600401610b7090612e4f565b60405180910390fd5b610b8281611606565b50565b6000610b8f61092e565b8210610bd0576040517f08c379a0000000000000000000000000000000000000000000000000000000008152600401610bc790613071565b60405180910390fd5b60088281548110610be457610be3613091565b5b90600052602060002001549050919050565b6000600a60009054906101000a900460ff16905090565b6000806002600084815260200190815260200160002060009054906101000a900473ffffffffffffffffffffffffffffffffffffffff169050600073ffffffffffffffffffffffffffffffffffffffff168173ffffffffffffffffffffffffffffffffffffffff161415610cb6576040517f08c379a0000000000000000000000000000000000000000000000000000000008152600401610cad9061310c565b60405180910390fd5b80915050919050565b60008073ffffffffffffffffffffffffffffffffffffffff168273ffffffffffffffffffffffffffffffffffffffff161415610d30576040517f08c379a0000000000000000000000000000000000000000000000000000000008152600401610d279061319e565b60405180910390fd5b600360008373ffffffffffffffffffffffffffffffffffffffff1673ffffffffffffffffffffffffffffffffffffffff168152602001908152602001600020549050919050565b610d7f6111e7565b610d896000611723565b565b610d936111e7565b610d9b6117e9565b565b6000600a60019054906101000a900473ffffffffffffffffffffffffffffffffffffffff16905090565b606060018054610dd690612c1b565b80601f0160208091040260200160405190810160405280929190818152602001828054610e0290612c1b565b8015610e4f5780601f10610e2457610100808354040283529160200191610e4f565b820191906000526020600020905b815481529060010190602001808311610e3257829003601f168201915b5050505050905090565b610e6b610e64611126565b838361184c565b5050565b5050565b610e84610e7e611126565b83611265565b610ec3576040517f08c379a0000000000000000000000000000000000000000000000000000000008152600401610eba90612e4f565b60405180910390fd5b610ecf848484846119b9565b50505050565b6060610ee0826110db565b6000610eea611a15565b90506000815111610f0a5760405180602001604052806000815250610f35565b80610f1484611a52565b604051602001610f259291906131fa565b6040516020818303038152906040525b915050919050565b600c5481565b600d5481565b6000600560008473ffffffffffffffffffffffffffffffffffffffff1673ffffffffffffffffffffffffffffffffffffffff16815260200190815260200160002060008373ffffffffffffffffffffffffffffffffffffffff1673ffffffffffffffffffffffffffffffffffffffff16815260200190815260200160002060009054906101000a900460ff16905092915050565b610fe56111e7565b600073ffffffffffffffffffffffffffffffffffffffff168173ffffffffffffffffffffffffffffffffffffffff161415611055576040517f08c379a000000000000000000000000000000000000000000000000000000000815260040161104c90613290565b60405180910390fd5b61105e81611723565b50565b60007f780e9d63000000000000000000000000000000000000000000000000000000007bffffffffffffffffffffffffffffffffffffffffffffffffffffffff1916827bffffffffffffffffffffffffffffffffffffffffffffffffffffffff191614806110d457506110d382611bb3565b5b9050919050565b6110e481611c95565b611123576040517f08c379a000000000000000000000000000000000000000000000000000000000815260040161111a9061310c565b60405180910390fd5b50565b600033905090565b816004600083815260200190815260200160002060006101000a81548173ffffffffffffffffffffffffffffffffffffffff021916908373ffffffffffffffffffffffffffffffffffffffff160217905550808273ffffffffffffffffffffffffffffffffffffffff166111a183610c0d565b73ffffffffffffffffffffffffffffffffffffffff167f8c5be1e5ebec7d5bd14f71427d1e84f3dd0314c0f7b2291e5b200ac8c7c3b92560405160405180910390a45050565b6111ef611126565b73ffffffffffffffffffffffffffffffffffffffff1661120d610d9d565b73ffffffffffffffffffffffffffffffffffffffff1614611263576040517f08c379a000000000000000000000000000000000000000000000000000000000815260040161125a906132fc565b60405180910390fd5b565b60008061127183610c0d565b90508073ffffffffffffffffffffffffffffffffffffffff168473ffffffffffffffffffffffffffffffffffffffff1614806112b357506112b28185610f49565b5b806112f157508373ffffffffffffffffffffffffffffffffffffffff166112d984610735565b73ffffffffffffffffffffffffffffffffffffffff16145b91505092915050565b8273ffffffffffffffffffffffffffffffffffffffff1661131a82610c0d565b73ffffffffffffffffffffffffffffffffffffffff1614611370576040517f08c379a00000000000000000000000000000000000000000000000000000000081526004016113679061338e565b60405180910390fd5b600073ffffffffffffffffffffffffffffffffffffffff168273ffffffffffffffffffffffffffffffffffffffff1614156113e0576040517f08c379a00000000000000000000000000000000000000000000000000000000081526004016113d790613420565b60405180910390fd5b6113eb838383611d01565b6113f660008261112e565b6001600360008573ffffffffffffffffffffffffffffffffffffffff1673ffffffffffffffffffffffffffffffffffffffff1681526020019081526020016000206000828254611446919061346f565b925050819055506001600360008473ffffffffffffffffffffffffffffffffffffffff1673ffffffffffffffffffffffffffffffffffffffff168152602001908152602001600020600082825461149d91906134a3565b92505081905550816002600083815260200190815260200160002060006101000a81548173ffffffffffffffffffffffffffffffffffffffff021916908373ffffffffffffffffffffffffffffffffffffffff160217905550808273ffffffffffffffffffffffffffffffffffffffff168473ffffffffffffffffffffffffffffffffffffffff167fddf252ad1be2c89b69c2b068fc378daa952ba7f163c4a11628f55a4df523b3ef60405160405180910390a461155c838383611d19565b505050565b611569611d1e565b6000600a60006101000a81548160ff0219169083151502179055507f5db9ee0a495bf2e6ff9c91a7834c1ba4fdd244a5e8aa4e537bd38aeae4b073aa6115ad611126565b6040516115ba9190612857565b60405180910390a1565b600081600001549050919050565b6001816000016000828254019250508190555050565b611602828260405180602001604052806000815250611d67565b5050565b600061161182610c0d565b905061161f81600084611d01565b61162a60008361112e565b6001600360008373ffffffffffffffffffffffffffffffffffffffff1673ffffffffffffffffffffffffffffffffffffffff168152602001908152602001600020600082825461167a919061346f565b925050819055506002600083815260200190815260200160002060006101000a81549073ffffffffffffffffffffffffffffffffffffffff021916905581600073ffffffffffffffffffffffffffffffffffffffff168273ffffffffffffffffffffffffffffffffffffffff167fddf252ad1be2c89b69c2b068fc378daa952ba7f163c4a11628f55a4df523b3ef60405160405180910390a461171f81600084611d19565b5050565b6000600a60019054906101000a900473ffffffffffffffffffffffffffffffffffffffff16905081600a60016101000a81548173ffffffffffffffffffffffffffffffffffffffff021916908373ffffffffffffffffffffffffffffffffffffffff1602179055508173ffffffffffffffffffffffffffffffffffffffff168173ffffffffffffffffffffffffffffffffffffffff167f8be0079c531659141344cd1fd0a4f28419497f9722a3daafe3b4186f6b6457e060405160405180910390a35050565b6117f1611dc2565b6001600a60006101000a81548160ff0219169083151502179055507f62e78cea01bee320cd4e420270b5ea74000d11b0c9f74754ebdbfc544b05a258611835611126565b6040516118429190612857565b60405180910390a1565b8173ffffffffffffffffffffffffffffffffffffffff168373ffffffffffffffffffffffffffffffffffffffff1614156118bb576040517f08c379a00000000000000000000000000000000000000000000000000000000081526004016118b290613545565b60405180910390fd5b80600560008573ffffffffffffffffffffffffffffffffffffffff1673ffffffffffffffffffffffffffffffffffffffff16815260200190815260200160002060008473ffffffffffffffffffffffffffffffffffffffff1673ffffffffffffffffffffffffffffffffffffffff16815260200190815260200160002060006101000a81548160ff0219169083151502179055508173ffffffffffffffffffffffffffffffffffffffff168373ffffffffffffffffffffffffffffffffffffffff167f17307eab39ab6107e8899845ad3d59bd9653f200f220920489ca2b5937696c31836040516119ac91906126dd565b60405180910390a3505050565b6119c48484846112fa565b6119d084848484611e0c565b611a0f576040517f08c379a0000000000000000000000000000000000000000000000000000000008152600401611a06906135d7565b60405180910390fd5b50505050565b60606040518060400160405280601d81526020017f68747470733a2f2f6170692e6d796e66742e636f6d2f746f6b656e732f000000815250905090565b60606000821415611a9a576040518060400160405280600181526020017f30000000000000000000000000000000000000000000000000000000000000008152509050611bae565b600082905060005b60008214611acc578080611ab5906135f7565b915050600a82611ac5919061366f565b9150611aa2565b60008167ffffffffffffffff811115611ae857611ae76129fe565b5b6040519080825280601f01601f191660200182016040528015611b1a5781602001600182028036833780820191505090505b5090505b60008514611ba757600182611b33919061346f565b9150600a85611b4291906136a0565b6030611b4e91906134a3565b60f81b818381518110611b6457611b63613091565b5b60200101907effffffffffffffffffffffffffffffffffffffffffffffffffffffffffffff1916908160001a905350600a85611ba0919061366f565b9450611b1e565b8093505050505b919050565b60007f80ac58cd000000000000000000000000000000000000000000000000000000007bffffffffffffffffffffffffffffffffffffffffffffffffffffffff1916827bffffffffffffffffffffffffffffffffffffffffffffffffffffffff19161480611c7e57507f5b5e139f000000000000000000000000000000000000000000000000000000007bffffffffffffffffffffffffffffffffffffffffffffffffffffffff1916827bffffffffffffffffffffffffffffffffffffffffffffffffffffffff1916145b80611c8e5750611c8d82611fa3565b5b9050919050565b60008073ffffffffffffffffffffffffffffffffffffffff166002600084815260200190815260200160002060009054906101000a900473ffffffffffffffffffffffffffffffffffffffff1673ffffffffffffffffffffffffffffffffffffffff1614159050919050565b611d09611dc2565b611d1483838361200d565b505050565b505050565b611d26610bf6565b611d65576040517f08c379a0000000000000000000000000000000000000000000000000000000008152600401611d5c9061371d565b60405180910390fd5b565b611d718383612121565b611d7e6000848484611e0c565b611dbd576040517f08c379a0000000000000000000000000000000000000000000000000000000008152600401611db4906135d7565b60405180910390fd5b505050565b611dca610bf6565b15611e0a576040517f08c379a0000000000000000000000000000000000000000000000000000000008152600401611e0190613789565b60405180910390fd5b565b6000611e2d8473ffffffffffffffffffffffffffffffffffffffff166122fb565b15611f96578373ffffffffffffffffffffffffffffffffffffffff1663150b7a02611e56611126565b8786866040518563ffffffff1660e01b8152600401611e7894939291906137fe565b602060405180830381600087803b158015611e9257600080fd5b505af1925050508015611ec357506040513d601f19601f82011682018060405250810190611ec0919061385f565b60015b611f46573d8060008114611ef3576040519150601f19603f3d011682016040523d82523d6000602084013e611ef8565b606091505b50600081511415611f3e576040517f08c379a0000000000000000000000000000000000000000000000000000000008152600401611f35906135d7565b60405180910390fd5b805181602001fd5b63150b7a0260e01b7bffffffffffffffffffffffffffffffffffffffffffffffffffffffff1916817bffffffffffffffffffffffffffffffffffffffffffffffffffffffff191614915050611f9b565b600190505b949350505050565b60007f01ffc9a7000000000000000000000000000000000000000000000000000000007bffffffffffffffffffffffffffffffffffffffffffffffffffffffff1916827bffffffffffffffffffffffffffffffffffffffffffffffffffffffff1916149050919050565b61201883838361231e565b600073ffffffffffffffffffffffffffffffffffffffff168373ffffffffffffffffffffffffffffffffffffffff16141561205b5761205681612323565b61209a565b8173ffffffffffffffffffffffffffffffffffffffff168373ffffffffffffffffffffffffffffffffffffffff161461209957612098838261236c565b5b5b600073ffffffffffffffffffffffffffffffffffffffff168273ffffffffffffffffffffffffffffffffffffffff1614156120dd576120d8816124d9565b61211c565b8273ffffffffffffffffffffffffffffffffffffffff168273ffffffffffffffffffffffffffffffffffffffff161461211b5761211a82826125aa565b5b5b505050565b600073ffffffffffffffffffffffffffffffffffffffff168273ffffffffffffffffffffffffffffffffffffffff161415612191576040517f08c379a0000000000000000000000000000000000000000000000000000000008152600401612188906138d8565b60405180910390fd5b61219a81611c95565b156121da576040517f08c379a00000000000000000000000000000000000000000000000000000000081526004016121d190613944565b60405180910390fd5b6121e660008383611d01565b6001600360008473ffffffffffffffffffffffffffffffffffffffff1673ffffffffffffffffffffffffffffffffffffffff168152602001908152602001600020600082825461223691906134a3565b92505081905550816002600083815260200190815260200160002060006101000a81548173ffffffffffffffffffffffffffffffffffffffff021916908373ffffffffffffffffffffffffffffffffffffffff160217905550808273ffffffffffffffffffffffffffffffffffffffff16600073ffffffffffffffffffffffffffffffffffffffff167fddf252ad1be2c89b69c2b068fc378daa952ba7f163c4a11628f55a4df523b3ef60405160405180910390a46122f760008383611d19565b5050565b6000808273ffffffffffffffffffffffffffffffffffffffff163b119050919050565b505050565b6008805490506009600083815260200190815260200160002081905550600881908060018154018082558091505060019003906000526020600020016000909190919091505550565b6000600161237984610cbf565b612383919061346f565b9050600060076000848152602001908152602001600020549050818114612468576000600660008673ffffffffffffffffffffffffffffffffffffffff1673ffffffffffffffffffffffffffffffffffffffff168152602001908152602001600020600084815260200190815260200160002054905080600660008773ffffffffffffffffffffffffffffffffffffffff1673ffffffffffffffffffffffffffffffffffffffff168152602001908152602001600020600084815260200190815260200160002081905550816007600083815260200190815260200160002081905550505b6007600084815260200190815260200160002060009055600660008573ffffffffffffffffffffffffffffffffffffffff1673ffffffffffffffffffffffffffffffffffffffff16815260200190815260200160002060008381526020019081526020016000206000905550505050565b600060016008805490506124ed919061346f565b905060006009600084815260200190815260200160002054905060006008838154811061251d5761251c613091565b5b90600052602060002001549050806008838154811061253f5761253e613091565b5b90600052602060002001819055508160096000838152602001908152602001600020819055506009600085815260200190815260200160002060009055600880548061258e5761258d613964565b5b6001900381819060005260206000200160009055905550505050565b60006125b583610cbf565b905081600660008573ffffffffffffffffffffffffffffffffffffffff1673ffffffffffffffffffffffffffffffffffffffff168152602001908152602001600020600083815260200190815260200160002081905550806007600084815260200190815260200160002081905550505050565b6000604051905090565b600080fd5b600080fd5b60007fffffffff0000000000000000000000000000000000000000000000000000000082169050919050565b6126728161263d565b811461267d57600080fd5b50565b60008135905061268f81612669565b92915050565b6000602082840312156126ab576126aa612633565b5b60006126b984828501612680565b91505092915050565b60008115159050919050565b6126d7816126c2565b82525050565b60006020820190506126f260008301846126ce565b92915050565b600081519050919050565b600082825260208201905092915050565b60005b83811015612732578082015181840152602081019050612717565b83811115612741576000848401525b50505050565b6000601f19601f8301169050919050565b6000612763826126f8565b61276d8185612703565b935061277d818560208601612714565b61278681612747565b840191505092915050565b600060208201905081810360008301526127ab8184612758565b905092915050565b6000819050919050565b6127c6816127b3565b81146127d157600080fd5b50565b6000813590506127e3816127bd565b92915050565b6000602082840312156127ff576127fe612633565b5b600061280d848285016127d4565b91505092915050565b600073ffffffffffffffffffffffffffffffffffffffff82169050919050565b600061284182612816565b9050919050565b61285181612836565b82525050565b600060208201905061286c6000830184612848565b92915050565b61287b81612836565b811461288657600080fd5b50565b60008135905061289881612872565b92915050565b600080604083850312156128b5576128b4612633565b5b60006128c385828601612889565b92505060206128d4858286016127d4565b9150509250929050565b6128e7816127b3565b82525050565b600060208201905061290260008301846128de565b92915050565b60008060006060848603121561292157612920612633565b5b600061292f86828701612889565b935050602061294086828701612889565b9250506040612951868287016127d4565b9150509250925092565b60006020828403121561297157612970612633565b5b600061297f84828501612889565b91505092915050565b612991816126c2565b811461299c57600080fd5b50565b6000813590506129ae81612988565b92915050565b600080604083850312156129cb576129ca612633565b5b60006129d985828601612889565b92505060206129ea8582860161299f565b9150509250929050565b600080fd5b600080fd5b7f4e487b7100000000000000000000000000000000000000000000000000000000600052604160045260246000fd5b612a3682612747565b810181811067ffffffffffffffff82111715612a5557612a546129fe565b5b80604052505050565b6000612a68612629565b9050612a748282612a2d565b919050565b600067ffffffffffffffff821115612a9457612a936129fe565b5b612a9d82612747565b9050602081019050919050565b82818337600083830152505050565b6000612acc612ac784612a79565b612a5e565b905082815260208101848484011115612ae857612ae76129f9565b5b612af3848285612aaa565b509392505050565b600082601f830112612b1057612b0f6129f4565b5b8135612b20848260208601612ab9565b91505092915050565b60008060008060808587031215612b4357612b42612633565b5b6000612b5187828801612889565b9450506020612b6287828801612889565b9350506040612b73878288016127d4565b925050606085013567ffffffffffffffff811115612b9457612b93612638565b5b612ba087828801612afb565b91505092959194509250565b60008060408385031215612bc357612bc2612633565b5b6000612bd185828601612889565b9250506020612be285828601612889565b9150509250929050565b7f4e487b7100000000000000000000000000000000000000000000000000000000600052602260045260246000fd5b60006002820490506001821680612c3357607f821691505b60208210811415612c4757612c46612bec565b5b50919050565b7f4552433732313a20617070726f76616c20746f2063757272656e74206f776e6560008201527f7200000000000000000000000000000000000000000000000000000000000000602082015250565b6000612ca9602183612703565b9150612cb482612c4d565b604082019050919050565b60006020820190508181036000830152612cd881612c9c565b9050919050565b7f4552433732313a20617070726f76652063616c6c6572206973206e6f7420746f60008201527f6b656e206f776e6572206e6f7220617070726f76656420666f7220616c6c0000602082015250565b6000612d3b603e83612703565b9150612d4682612cdf565b604082019050919050565b60006020820190508181036000830152612d6a81612d2e565b9050919050565b7f42616c616e636520697320300000000000000000000000000000000000000000600082015250565b6000612da7600c83612703565b9150612db282612d71565b602082019050919050565b60006020820190508181036000830152612dd681612d9a565b9050919050565b7f4552433732313a2063616c6c6572206973206e6f7420746f6b656e206f776e6560008201527f72206e6f7220617070726f766564000000000000000000000000000000000000602082015250565b6000612e39602e83612703565b9150612e4482612ddd565b604082019050919050565b60006020820190508181036000830152612e6881612e2c565b9050919050565b7f455243373231456e756d657261626c653a206f776e657220696e646578206f7560008201527f74206f6620626f756e6473000000000000000000000000000000000000000000602082015250565b6000612ecb602b83612703565b9150612ed682612e6f565b604082019050919050565b60006020820190508181036000830152612efa81612ebe565b9050919050565b7f546865206d696e74696e67206c696d697420686173207265616368656420746f60008201527f20697473206d61782c20536f7272792100000000000000000000000000000000602082015250565b6000612f5d603083612703565b9150612f6882612f01565b604082019050919050565b60006020820190508181036000830152612f8c81612f50565b9050919050565b7f4e6f7420656e6f75676820657468657200000000000000000000000000000000600082015250565b6000612fc9601083612703565b9150612fd482612f93565b602082019050919050565b60006020820190508181036000830152612ff881612fbc565b9050919050565b7f455243373231456e756d657261626c653a20676c6f62616c20696e646578206f60008201527f7574206f6620626f756e64730000000000000000000000000000000000000000602082015250565b600061305b602c83612703565b915061306682612fff565b604082019050919050565b6000602082019050818103600083015261308a8161304e565b9050919050565b7f4e487b7100000000000000000000000000000000000000000000000000000000600052603260045260246000fd5b7f4552433732313a20696e76616c696420746f6b656e2049440000000000000000600082015250565b60006130f6601883612703565b9150613101826130c0565b602082019050919050565b60006020820190508181036000830152613125816130e9565b9050919050565b7f4552433732313a2061646472657373207a65726f206973206e6f74206120766160008201527f6c6964206f776e65720000000000000000000000000000000000000000000000602082015250565b6000613188602983612703565b91506131938261312c565b604082019050919050565b600060208201905081810360008301526131b78161317b565b9050919050565b600081905092915050565b60006131d4826126f8565b6131de81856131be565b93506131ee818560208601612714565b80840191505092915050565b600061320682856131c9565b915061321282846131c9565b91508190509392505050565b7f4f776e61626c653a206e6577206f776e657220697320746865207a65726f206160008201527f6464726573730000000000000000000000000000000000000000000000000000602082015250565b600061327a602683612703565b91506132858261321e565b604082019050919050565b600060208201905081810360008301526132a98161326d565b9050919050565b7f4f776e61626c653a2063616c6c6572206973206e6f7420746865206f776e6572600082015250565b60006132e6602083612703565b91506132f1826132b0565b602082019050919050565b60006020820190508181036000830152613315816132d9565b9050919050565b7f4552433732313a207472616e736665722066726f6d20696e636f72726563742060008201527f6f776e6572000000000000000000000000000000000000000000000000000000602082015250565b6000613378602583612703565b91506133838261331c565b604082019050919050565b600060208201905081810360008301526133a78161336b565b9050919050565b7f4552433732313a207472616e7366657220746f20746865207a65726f2061646460008201527f7265737300000000000000000000000000000000000000000000000000000000602082015250565b600061340a602483612703565b9150613415826133ae565b604082019050919050565b60006020820190508181036000830152613439816133fd565b9050919050565b7f4e487b7100000000000000000000000000000000000000000000000000000000600052601160045260246000fd5b600061347a826127b3565b9150613485836127b3565b92508282101561349857613497613440565b5b828203905092915050565b60006134ae826127b3565b91506134b9836127b3565b9250827fffffffffffffffffffffffffffffffffffffffffffffffffffffffffffffffff038211156134ee576134ed613440565b5b828201905092915050565b7f4552433732313a20617070726f766520746f2063616c6c657200000000000000600082015250565b600061352f601983612703565b915061353a826134f9565b602082019050919050565b6000602082019050818103600083015261355e81613522565b9050919050565b7f4552433732313a207472616e7366657220746f206e6f6e20455243373231526560008201527f63656976657220696d706c656d656e7465720000000000000000000000000000602082015250565b60006135c1603283612703565b91506135cc82613565565b604082019050919050565b600060208201905081810360008301526135f0816135b4565b9050919050565b6000613602826127b3565b91507fffffffffffffffffffffffffffffffffffffffffffffffffffffffffffffffff82141561363557613634613440565b5b600182019050919050565b7f4e487b7100000000000000000000000000000000000000000000000000000000600052601260045260246000fd5b600061367a826127b3565b9150613685836127b3565b92508261369557613694613640565b5b828204905092915050565b60006136ab826127b3565b91506136b6836127b3565b9250826136c6576136c5613640565b5b828206905092915050565b7f5061757361626c653a206e6f7420706175736564000000000000000000000000600082015250565b6000613707601483612703565b9150613712826136d1565b602082019050919050565b60006020820190508181036000830152613736816136fa565b9050919050565b7f5061757361626c653a2070617573656400000000000000000000000000000000600082015250565b6000613773601083612703565b915061377e8261373d565b602082019050919050565b600060208201905081810360008301526137a281613766565b9050919050565b600081519050919050565b600082825260208201905092915050565b60006137d0826137a9565b6137da81856137b4565b93506137ea818560208601612714565b6137f381612747565b840191505092915050565b60006080820190506138136000830187612848565b6138206020830186612848565b61382d60408301856128de565b818103606083015261383f81846137c5565b905095945050505050565b60008151905061385981612669565b92915050565b60006020828403121561387557613874612633565b5b60006138838482850161384a565b91505092915050565b7f4552433732313a206d696e7420746f20746865207a65726f2061646472657373600082015250565b60006138c2602083612703565b91506138cd8261388c565b602082019050919050565b600060208201905081810360008301526138f1816138b5565b9050919050565b7f4552433732313a20746f6b656e20616c7265616479206d696e74656400000000600082015250565b600061392e601c83612703565b9150613939826138f8565b602082019050919050565b6000602082019050818103600083015261395d81613921565b9050919050565b7f4e487b7100000000000000000000000000000000000000000000000000000000600052603160045260246000fdfea26469706673582212204a7c60e789899f0b2f96e80fbb7e739ea454cdbf2d6ea9efe518460ed179162164736f6c63430008090033",
  "linkReferences": {},
  "deployedLinkReferences": {}
}