{
  "_format": "hh-sol-artifact-1",
  "contractName": "MyNFT",
  "sourceName": "contracts/MyNFT.sol",
  "abi": [
    {
      "inputs": [],
      "stateMutability": "nonpayable",
      "type": "constructor"
    },
    {
      "anonymous": false,
      "inputs": [
        {
          "indexed": true,
          "internalType": "address",
          "name": "owner",
          "type": "address"
        },
        {
          "indexed": true,
          "internalType": "address",
          "name": "approved",
          "type": "address"
        },
        {
          "indexed": true,
          "internalType": "uint256",
          "name": "tokenId",
          "type": "uint256"
        }
      ],
      "name": "Approval",
      "type": "event"
    },
    {
      "anonymous": false,
      "inputs": [
        {
          "indexed": true,
          "internalType": "address",
          "name": "owner",
          "type": "address"
        },
        {
          "indexed": true,
          "internalType": "address",
          "name": "operator",
          "type": "address"
        },
        {
          "indexed": false,
          "internalType": "bool",
          "name": "approved",
          "type": "bool"
        }
      ],
      "name": "ApprovalForAll",
      "type": "event"
    },
    {
      "anonymous": false,
      "inputs": [
        {
          "indexed": true,
          "internalType": "address",
          "name": "previousOwner",
          "type": "address"
        },
        {
          "indexed": true,
          "internalType": "address",
          "name": "newOwner",
          "type": "address"
        }
      ],
      "name": "OwnershipTransferred",
      "type": "event"
    },
    {
      "anonymous": false,
      "inputs": [
        {
          "indexed": false,
          "internalType": "address",
          "name": "account",
          "type": "address"
        }
      ],
      "name": "Paused",
      "type": "event"
    },
    {
      "anonymous": false,
      "inputs": [
        {
          "indexed": true,
          "internalType": "address",
          "name": "from",
          "type": "address"
        },
        {
          "indexed": true,
          "internalType": "address",
          "name": "to",
          "type": "address"
        },
        {
          "indexed": true,
          "internalType": "uint256",
          "name": "tokenId",
          "type": "uint256"
        }
      ],
      "name": "Transfer",
      "type": "event"
    },
    {
      "anonymous": false,
      "inputs": [
        {
          "indexed": false,
          "internalType": "address",
          "name": "account",
          "type": "address"
        }
      ],
      "name": "Unpaused",
      "type": "event"
    },
    {
      "inputs": [
        {
          "internalType": "address",
          "name": "to",
          "type": "address"
        },
        {
          "internalType": "uint256",
          "name": "tokenId",
          "type": "uint256"
        }
      ],
      "name": "approve",
      "outputs": [],
      "stateMutability": "nonpayable",
      "type": "function"
    },
    {
      "inputs": [
        {
          "internalType": "address",
          "name": "owner",
          "type": "address"
        }
      ],
      "name": "balanceOf",
      "outputs": [
        {
          "internalType": "uint256",
          "name": "",
          "type": "uint256"
        }
      ],
      "stateMutability": "view",
      "type": "function"
    },
    {
      "inputs": [
        {
          "internalType": "uint256",
          "name": "tokenId",
          "type": "uint256"
        }
      ],
      "name": "burn",
      "outputs": [],
      "stateMutability": "nonpayable",
      "type": "function"
    },
    {
      "inputs": [
        {
          "internalType": "uint256",
          "name": "tokenId",
          "type": "uint256"
        }
      ],
      "name": "getApproved",
      "outputs": [
        {
          "internalType": "address",
          "name": "",
          "type": "address"
        }
      ],
      "stateMutability": "view",
      "type": "function"
    },
    {
      "inputs": [
        {
          "internalType": "address",
          "name": "owner",
          "type": "address"
        },
        {
          "internalType": "address",
          "name": "operator",
          "type": "address"
        }
      ],
      "name": "isApprovedForAll",
      "outputs": [
        {
          "internalType": "bool",
          "name": "",
          "type": "bool"
        }
      ],
      "stateMutability": "view",
      "type": "function"
    },
    {
      "inputs": [],
      "name": "maxSupply",
      "outputs": [
        {
          "internalType": "uint256",
          "name": "",
          "type": "uint256"
        }
      ],
      "stateMutability": "view",
      "type": "function"
    },
    {
      "inputs": [],
      "name": "name",
      "outputs": [
        {
          "internalType": "string",
          "name": "",
          "type": "string"
        }
      ],
      "stateMutability": "view",
      "type": "function"
    },
    {
      "inputs": [],
      "name": "owner",
      "outputs": [
        {
          "internalType": "address",
          "name": "",
          "type": "address"
        }
      ],
      "stateMutability": "view",
      "type": "function"
    },
    {
      "inputs": [
        {
          "internalType": "uint256",
          "name": "tokenId",
          "type": "uint256"
        }
      ],
      "name": "ownerOf",
      "outputs": [
        {
          "internalType": "address",
          "name": "",
          "type": "address"
        }
      ],
      "stateMutability": "view",
      "type": "function"
    },
    {
      "inputs": [],
      "name": "pause",
      "outputs": [],
      "stateMutability": "nonpayable",
      "type": "function"
    },
    {
      "inputs": [],
      "name": "paused",
      "outputs": [
        {
          "internalType": "bool",
          "name": "",
          "type": "bool"
        }
      ],
      "stateMutability": "view",
      "type": "function"
    },
    {
      "inputs": [],
      "name": "renounceOwnership",
      "outputs": [],
      "stateMutability": "nonpayable",
      "type": "function"
    },
    {
      "inputs": [
        {
          "internalType": "address",
          "name": "to",
          "type": "address"
        }
      ],
      "name": "safeMint",
      "outputs": [],
      "stateMutability": "payable",
      "type": "function"
    },
    {
      "inputs": [
        {
          "internalType": "address",
          "name": "from",
          "type": "address"
        },
        {
          "internalType": "address",
          "name": "to",
          "type": "address"
        },
        {
          "internalType": "uint256",
          "name": "tokenId",
          "type": "uint256"
        }
      ],
      "name": "safeTransferFrom",
      "outputs": [],
      "stateMutability": "nonpayable",
      "type": "function"
    },
    {
      "inputs": [
        {
          "internalType": "address",
          "name": "from",
          "type": "address"
        },
        {
          "internalType": "address",
          "name": "to",
          "type": "address"
        },
        {
          "internalType": "uint256",
          "name": "tokenId",
          "type": "uint256"
        },
        {
          "internalType": "bytes",
          "name": "data",
          "type": "bytes"
        }
      ],
      "name": "safeTransferFrom",
      "outputs": [],
      "stateMutability": "nonpayable",
      "type": "function"
    },
    {
      "inputs": [
        {
          "internalType": "address",
          "name": "operator",
          "type": "address"
        },
        {
          "internalType": "bool",
          "name": "approved",
          "type": "bool"
        }
      ],
      "name": "setApprovalForAll",
      "outputs": [],
      "stateMutability": "nonpayable",
      "type": "function"
    },
    {
      "inputs": [
        {
          "internalType": "bytes4",
          "name": "interfaceId",
          "type": "bytes4"
        }
      ],
      "name": "supportsInterface",
      "outputs": [
        {
          "internalType": "bool",
          "name": "",
          "type": "bool"
        }
      ],
      "stateMutability": "view",
      "type": "function"
    },
    {
      "inputs": [],
      "name": "symbol",
      "outputs": [
        {
          "internalType": "string",
          "name": "",
          "type": "string"
        }
      ],
      "stateMutability": "view",
      "type": "function"
    },
    {
      "inputs": [
        {
          "internalType": "uint256",
          "name": "index",
          "type": "uint256"
        }
      ],
      "name": "tokenByIndex",
      "outputs": [
        {
          "internalType": "uint256",
          "name": "",
          "type": "uint256"
        }
      ],
      "stateMutability": "view",
      "type": "function"
    },
    {
      "inputs": [
        {
          "internalType": "address",
          "name": "owner",
          "type": "address"
        },
        {
          "internalType": "uint256",
          "name": "index",
          "type": "uint256"
        }
      ],
      "name": "tokenOfOwnerByIndex",
      "outputs": [
        {
          "internalType": "uint256",
          "name": "",
          "type": "uint256"
        }
      ],
      "stateMutability": "view",
      "type": "function"
    },
    {
      "inputs": [
        {
          "internalType": "uint256",
          "name": "tokenId",
          "type": "uint256"
        }
      ],
      "name": "tokenURI",
      "outputs": [
        {
          "internalType": "string",
          "name": "",
          "type": "string"
        }
      ],
      "stateMutability": "view",
      "type": "function"
    },
    {
      "inputs": [],
      "name": "totalSupply",
      "outputs": [
        {
          "internalType": "uint256",
          "name": "",
          "type": "uint256"
        }
      ],
      "stateMutability": "view",
      "type": "function"
    },
    {
      "inputs": [
        {
          "internalType": "address",
          "name": "from",
          "type": "address"
        },
        {
          "internalType": "address",
          "name": "to",
          "type": "address"
        },
        {
          "internalType": "uint256",
          "name": "tokenId",
          "type": "uint256"
        }
      ],
      "name": "transferFrom",
      "outputs": [],
      "stateMutability": "nonpayable",
      "type": "function"
    },
    {
      "inputs": [
        {
          "internalType": "address",
          "name": "newOwner",
          "type": "address"
        }
      ],
      "name": "transferOwnership",
      "outputs": [],
      "stateMutability": "nonpayable",
      "type": "function"
    },
    {
      "inputs": [],
      "name": "unpause",
      "outputs": [],
      "stateMutability": "nonpayable",
      "type": "function"
    },
    {
      "inputs": [],
      "name": "withDraw",
      "outputs": [],
      "stateMutability": "nonpayable",
      "type": "function"
    }
  ],
  "bytecode": "0x6080604052600a600c553480156200001657600080fd5b506040518060400160405280600581526020017f4d794e46540000000000000000000000000000000000000000000000000000008152506040518060400160405280600481526020017f4d4e46540000000000000000000000000000000000000000000000000000000081525081600090805190602001906200009b929190620001c6565b508060019080519060200190620000b4929190620001c6565b5050506000600a60006101000a81548160ff021916908315150217905550620000f2620000e6620000f860201b60201c565b6200010060201b60201c565b620002db565b600033905090565b6000600a60019054906101000a900473ffffffffffffffffffffffffffffffffffffffff16905081600a60016101000a81548173ffffffffffffffffffffffffffffffffffffffff021916908373ffffffffffffffffffffffffffffffffffffffff1602179055508173ffffffffffffffffffffffffffffffffffffffff168173ffffffffffffffffffffffffffffffffffffffff167f8be0079c531659141344cd1fd0a4f28419497f9722a3daafe3b4186f6b6457e060405160405180910390a35050565b828054620001d490620002a5565b90600052602060002090601f016020900481019282620001f8576000855562000244565b82601f106200021357805160ff191683800117855562000244565b8280016001018555821562000244579182015b828111156200024357825182559160200191906001019062000226565b5b50905062000253919062000257565b5090565b5b808211156200027257600081600090555060010162000258565b5090565b7f4e487b7100000000000000000000000000000000000000000000000000000000600052602260045260246000fd5b60006002820490506001821680620002be57607f821691505b60208210811415620002d557620002d462000276565b5b50919050565b61388480620002eb6000396000f3fe6080604052600436106101815760003560e01c80635c975abb116100d157806395d89b411161008a578063c87b56dd11610064578063c87b56dd14610539578063d5abeb0114610576578063e985e9c5146105a1578063f2fde38b146105de57610181565b806395d89b41146104bc578063a22cb465146104e7578063b88d4fde1461051057610181565b80635c975abb146103be5780636352211e146103e957806370a0823114610426578063715018a6146104635780638456cb591461047a5780638da5cb5b1461049157610181565b806323b872dd1161013e57806340d097c31161011857806340d097c31461031357806342842e0e1461032f57806342966c68146103585780634f6ccce71461038157610181565b806323b872dd146102965780632f745c59146102bf5780633f4ba83a146102fc57610181565b806301ffc9a71461018657806306fdde03146101c3578063081812fc146101ee578063095ea7b31461022b5780630fdb1c101461025457806318160ddd1461026b575b600080fd5b34801561019257600080fd5b506101ad60048036038101906101a891906125bc565b610607565b6040516101ba9190612604565b60405180910390f35b3480156101cf57600080fd5b506101d8610619565b6040516101e591906126b8565b60405180910390f35b3480156101fa57600080fd5b5061021560048036038101906102109190612710565b6106ab565b604051610222919061277e565b60405180910390f35b34801561023757600080fd5b50610252600480360381019061024d91906127c5565b6106f1565b005b34801561026057600080fd5b50610269610809565b005b34801561027757600080fd5b506102806108a4565b60405161028d9190612814565b60405180910390f35b3480156102a257600080fd5b506102bd60048036038101906102b8919061282f565b6108b1565b005b3480156102cb57600080fd5b506102e660048036038101906102e191906127c5565b610911565b6040516102f39190612814565b60405180910390f35b34801561030857600080fd5b506103116109b6565b005b61032d60048036038101906103289190612882565b6109c8565b005b34801561033b57600080fd5b506103566004803603810190610351919061282f565b610a3a565b005b34801561036457600080fd5b5061037f600480360381019061037a9190612710565b610a5a565b005b34801561038d57600080fd5b506103a860048036038101906103a39190612710565b610ab6565b6040516103b59190612814565b60405180910390f35b3480156103ca57600080fd5b506103d3610b27565b6040516103e09190612604565b60405180910390f35b3480156103f557600080fd5b50610410600480360381019061040b9190612710565b610b3e565b60405161041d919061277e565b60405180910390f35b34801561043257600080fd5b5061044d60048036038101906104489190612882565b610bf0565b60405161045a9190612814565b60405180910390f35b34801561046f57600080fd5b50610478610ca8565b005b34801561048657600080fd5b5061048f610cbc565b005b34801561049d57600080fd5b506104a6610cce565b6040516104b3919061277e565b60405180910390f35b3480156104c857600080fd5b506104d1610cf8565b6040516104de91906126b8565b60405180910390f35b3480156104f357600080fd5b5061050e600480360381019061050991906128db565b610d8a565b005b34801561051c57600080fd5b5061053760048036038101906105329190612a50565b610da0565b005b34801561054557600080fd5b50610560600480360381019061055b9190612710565b610e02565b60405161056d91906126b8565b60405180910390f35b34801561058257600080fd5b5061058b610e6a565b6040516105989190612814565b60405180910390f35b3480156105ad57600080fd5b506105c860048036038101906105c39190612ad3565b610e70565b6040516105d59190612604565b60405180910390f35b3480156105ea57600080fd5b5061060560048036038101906106009190612882565b610f04565b005b600061061282610f88565b9050919050565b60606000805461062890612b42565b80601f016020809104026020016040519081016040528092919081815260200182805461065490612b42565b80156106a15780601f10610676576101008083540402835291602001916106a1565b820191906000526020600020905b81548152906001019060200180831161068457829003601f168201915b5050505050905090565b60006106b682611002565b6004600083815260200190815260200160002060009054906101000a900473ffffffffffffffffffffffffffffffffffffffff169050919050565b60006106fc82610b3e565b90508073ffffffffffffffffffffffffffffffffffffffff168373ffffffffffffffffffffffffffffffffffffffff16141561076d576040517f08c379a000000000000000000000000000000000000000000000000000000000815260040161076490612be6565b60405180910390fd5b8073ffffffffffffffffffffffffffffffffffffffff1661078c61104d565b73ffffffffffffffffffffffffffffffffffffffff1614806107bb57506107ba816107b561104d565b610e70565b5b6107fa576040517f08c379a00000000000000000000000000000000000000000000000000000000081526004016107f190612c78565b60405180910390fd5b6108048383611055565b505050565b61081161110e565b60004711610854576040517f08c379a000000000000000000000000000000000000000000000000000000000815260040161084b90612ce4565b60405180910390fd5b61085c610cce565b73ffffffffffffffffffffffffffffffffffffffff166108fc479081150290604051600060405180830381858888f193505050501580156108a1573d6000803e3d6000fd5b50565b6000600880549050905090565b6108c26108bc61104d565b8261118c565b610901576040517f08c379a00000000000000000000000000000000000000000000000000000000081526004016108f890612d76565b60405180910390fd5b61090c838383611221565b505050565b600061091c83610bf0565b821061095d576040517f08c379a000000000000000000000000000000000000000000000000000000000815260040161095490612e08565b60405180910390fd5b600660008473ffffffffffffffffffffffffffffffffffffffff1673ffffffffffffffffffffffffffffffffffffffff168152602001908152602001600020600083815260200190815260200160002054905092915050565b6109be61110e565b6109c6611488565b565b600c546109d36108a4565b1115610a14576040517f08c379a0000000000000000000000000000000000000000000000000000000008152600401610a0b90612e9a565b60405180910390fd5b6000610a20600b6114eb565b9050610a2c600b6114f9565b610a36828261150f565b5050565b610a5583838360405180602001604052806000815250610da0565b505050565b610a6b610a6561104d565b8261118c565b610aaa576040517f08c379a0000000000000000000000000000000000000000000000000000000008152600401610aa190612d76565b60405180910390fd5b610ab38161152d565b50565b6000610ac06108a4565b8210610b01576040517f08c379a0000000000000000000000000000000000000000000000000000000008152600401610af890612f2c565b60405180910390fd5b60088281548110610b1557610b14612f4c565b5b90600052602060002001549050919050565b6000600a60009054906101000a900460ff16905090565b6000806002600084815260200190815260200160002060009054906101000a900473ffffffffffffffffffffffffffffffffffffffff169050600073ffffffffffffffffffffffffffffffffffffffff168173ffffffffffffffffffffffffffffffffffffffff161415610be7576040517f08c379a0000000000000000000000000000000000000000000000000000000008152600401610bde90612fc7565b60405180910390fd5b80915050919050565b60008073ffffffffffffffffffffffffffffffffffffffff168273ffffffffffffffffffffffffffffffffffffffff161415610c61576040517f08c379a0000000000000000000000000000000000000000000000000000000008152600401610c5890613059565b60405180910390fd5b600360008373ffffffffffffffffffffffffffffffffffffffff1673ffffffffffffffffffffffffffffffffffffffff168152602001908152602001600020549050919050565b610cb061110e565b610cba600061164a565b565b610cc461110e565b610ccc611710565b565b6000600a60019054906101000a900473ffffffffffffffffffffffffffffffffffffffff16905090565b606060018054610d0790612b42565b80601f0160208091040260200160405190810160405280929190818152602001828054610d3390612b42565b8015610d805780601f10610d5557610100808354040283529160200191610d80565b820191906000526020600020905b815481529060010190602001808311610d6357829003601f168201915b5050505050905090565b610d9c610d9561104d565b8383611773565b5050565b610db1610dab61104d565b8361118c565b610df0576040517f08c379a0000000000000000000000000000000000000000000000000000000008152600401610de790612d76565b60405180910390fd5b610dfc848484846118e0565b50505050565b6060610e0d82611002565b6000610e1761193c565b90506000815111610e375760405180602001604052806000815250610e62565b80610e4184611979565b604051602001610e529291906130b5565b6040516020818303038152906040525b915050919050565b600c5481565b6000600560008473ffffffffffffffffffffffffffffffffffffffff1673ffffffffffffffffffffffffffffffffffffffff16815260200190815260200160002060008373ffffffffffffffffffffffffffffffffffffffff1673ffffffffffffffffffffffffffffffffffffffff16815260200190815260200160002060009054906101000a900460ff16905092915050565b610f0c61110e565b600073ffffffffffffffffffffffffffffffffffffffff168173ffffffffffffffffffffffffffffffffffffffff161415610f7c576040517f08c379a0000000000000000000000000000000000000000000000000000000008152600401610f739061314b565b60405180910390fd5b610f858161164a565b50565b60007f780e9d63000000000000000000000000000000000000000000000000000000007bffffffffffffffffffffffffffffffffffffffffffffffffffffffff1916827bffffffffffffffffffffffffffffffffffffffffffffffffffffffff19161480610ffb5750610ffa82611ada565b5b9050919050565b61100b81611bbc565b61104a576040517f08c379a000000000000000000000000000000000000000000000000000000000815260040161104190612fc7565b60405180910390fd5b50565b600033905090565b816004600083815260200190815260200160002060006101000a81548173ffffffffffffffffffffffffffffffffffffffff021916908373ffffffffffffffffffffffffffffffffffffffff160217905550808273ffffffffffffffffffffffffffffffffffffffff166110c883610b3e565b73ffffffffffffffffffffffffffffffffffffffff167f8c5be1e5ebec7d5bd14f71427d1e84f3dd0314c0f7b2291e5b200ac8c7c3b92560405160405180910390a45050565b61111661104d565b73ffffffffffffffffffffffffffffffffffffffff16611134610cce565b73ffffffffffffffffffffffffffffffffffffffff161461118a576040517f08c379a0000000000000000000000000000000000000000000000000000000008152600401611181906131b7565b60405180910390fd5b565b60008061119883610b3e565b90508073ffffffffffffffffffffffffffffffffffffffff168473ffffffffffffffffffffffffffffffffffffffff1614806111da57506111d98185610e70565b5b8061121857508373ffffffffffffffffffffffffffffffffffffffff16611200846106ab565b73ffffffffffffffffffffffffffffffffffffffff16145b91505092915050565b8273ffffffffffffffffffffffffffffffffffffffff1661124182610b3e565b73ffffffffffffffffffffffffffffffffffffffff1614611297576040517f08c379a000000000000000000000000000000000000000000000000000000000815260040161128e90613249565b60405180910390fd5b600073ffffffffffffffffffffffffffffffffffffffff168273ffffffffffffffffffffffffffffffffffffffff161415611307576040517f08c379a00000000000000000000000000000000000000000000000000000000081526004016112fe906132db565b60405180910390fd5b611312838383611c28565b61131d600082611055565b6001600360008573ffffffffffffffffffffffffffffffffffffffff1673ffffffffffffffffffffffffffffffffffffffff168152602001908152602001600020600082825461136d919061332a565b925050819055506001600360008473ffffffffffffffffffffffffffffffffffffffff1673ffffffffffffffffffffffffffffffffffffffff16815260200190815260200160002060008282546113c4919061335e565b92505081905550816002600083815260200190815260200160002060006101000a81548173ffffffffffffffffffffffffffffffffffffffff021916908373ffffffffffffffffffffffffffffffffffffffff160217905550808273ffffffffffffffffffffffffffffffffffffffff168473ffffffffffffffffffffffffffffffffffffffff167fddf252ad1be2c89b69c2b068fc378daa952ba7f163c4a11628f55a4df523b3ef60405160405180910390a4611483838383611c40565b505050565b611490611c45565b6000600a60006101000a81548160ff0219169083151502179055507f5db9ee0a495bf2e6ff9c91a7834c1ba4fdd244a5e8aa4e537bd38aeae4b073aa6114d461104d565b6040516114e1919061277e565b60405180910390a1565b600081600001549050919050565b6001816000016000828254019250508190555050565b611529828260405180602001604052806000815250611c8e565b5050565b600061153882610b3e565b905061154681600084611c28565b611551600083611055565b6001600360008373ffffffffffffffffffffffffffffffffffffffff1673ffffffffffffffffffffffffffffffffffffffff16815260200190815260200160002060008282546115a1919061332a565b925050819055506002600083815260200190815260200160002060006101000a81549073ffffffffffffffffffffffffffffffffffffffff021916905581600073ffffffffffffffffffffffffffffffffffffffff168273ffffffffffffffffffffffffffffffffffffffff167fddf252ad1be2c89b69c2b068fc378daa952ba7f163c4a11628f55a4df523b3ef60405160405180910390a461164681600084611c40565b5050565b6000600a60019054906101000a900473ffffffffffffffffffffffffffffffffffffffff16905081600a60016101000a81548173ffffffffffffffffffffffffffffffffffffffff021916908373ffffffffffffffffffffffffffffffffffffffff1602179055508173ffffffffffffffffffffffffffffffffffffffff168173ffffffffffffffffffffffffffffffffffffffff167f8be0079c531659141344cd1fd0a4f28419497f9722a3daafe3b4186f6b6457e060405160405180910390a35050565b611718611ce9565b6001600a60006101000a81548160ff0219169083151502179055507f62e78cea01bee320cd4e420270b5ea74000d11b0c9f74754ebdbfc544b05a25861175c61104d565b604051611769919061277e565b60405180910390a1565b8173ffffffffffffffffffffffffffffffffffffffff168373ffffffffffffffffffffffffffffffffffffffff1614156117e2576040517f08c379a00000000000000000000000000000000000000000000000000000000081526004016117d990613400565b60405180910390fd5b80600560008573ffffffffffffffffffffffffffffffffffffffff1673ffffffffffffffffffffffffffffffffffffffff16815260200190815260200160002060008473ffffffffffffffffffffffffffffffffffffffff1673ffffffffffffffffffffffffffffffffffffffff16815260200190815260200160002060006101000a81548160ff0219169083151502179055508173ffffffffffffffffffffffffffffffffffffffff168373ffffffffffffffffffffffffffffffffffffffff167f17307eab39ab6107e8899845ad3d59bd9653f200f220920489ca2b5937696c31836040516118d39190612604565b60405180910390a3505050565b6118eb848484611221565b6118f784848484611d33565b611936576040517f08c379a000000000000000000000000000000000000000000000000000000000815260040161192d90613492565b60405180910390fd5b50505050565b60606040518060400160405280601d81526020017f68747470733a2f2f6170692e6d796e66742e636f6d2f746f6b656e732f000000815250905090565b606060008214156119c1576040518060400160405280600181526020017f30000000000000000000000000000000000000000000000000000000000000008152509050611ad5565b600082905060005b600082146119f35780806119dc906134b2565b915050600a826119ec919061352a565b91506119c9565b60008167ffffffffffffffff811115611a0f57611a0e612925565b5b6040519080825280601f01601f191660200182016040528015611a415781602001600182028036833780820191505090505b5090505b60008514611ace57600182611a5a919061332a565b9150600a85611a69919061355b565b6030611a75919061335e565b60f81b818381518110611a8b57611a8a612f4c565b5b60200101907effffffffffffffffffffffffffffffffffffffffffffffffffffffffffffff1916908160001a905350600a85611ac7919061352a565b9450611a45565b8093505050505b919050565b60007f80ac58cd000000000000000000000000000000000000000000000000000000007bffffffffffffffffffffffffffffffffffffffffffffffffffffffff1916827bffffffffffffffffffffffffffffffffffffffffffffffffffffffff19161480611ba557507f5b5e139f000000000000000000000000000000000000000000000000000000007bffffffffffffffffffffffffffffffffffffffffffffffffffffffff1916827bffffffffffffffffffffffffffffffffffffffffffffffffffffffff1916145b80611bb55750611bb482611eca565b5b9050919050565b60008073ffffffffffffffffffffffffffffffffffffffff166002600084815260200190815260200160002060009054906101000a900473ffffffffffffffffffffffffffffffffffffffff1673ffffffffffffffffffffffffffffffffffffffff1614159050919050565b611c30611ce9565b611c3b838383611f34565b505050565b505050565b611c4d610b27565b611c8c576040517f08c379a0000000000000000000000000000000000000000000000000000000008152600401611c83906135d8565b60405180910390fd5b565b611c988383612048565b611ca56000848484611d33565b611ce4576040517f08c379a0000000000000000000000000000000000000000000000000000000008152600401611cdb90613492565b60405180910390fd5b505050565b611cf1610b27565b15611d31576040517f08c379a0000000000000000000000000000000000000000000000000000000008152600401611d2890613644565b60405180910390fd5b565b6000611d548473ffffffffffffffffffffffffffffffffffffffff16612222565b15611ebd578373ffffffffffffffffffffffffffffffffffffffff1663150b7a02611d7d61104d565b8786866040518563ffffffff1660e01b8152600401611d9f94939291906136b9565b602060405180830381600087803b158015611db957600080fd5b505af1925050508015611dea57506040513d601f19601f82011682018060405250810190611de7919061371a565b60015b611e6d573d8060008114611e1a576040519150601f19603f3d011682016040523d82523d6000602084013e611e1f565b606091505b50600081511415611e65576040517f08c379a0000000000000000000000000000000000000000000000000000000008152600401611e5c90613492565b60405180910390fd5b805181602001fd5b63150b7a0260e01b7bffffffffffffffffffffffffffffffffffffffffffffffffffffffff1916817bffffffffffffffffffffffffffffffffffffffffffffffffffffffff191614915050611ec2565b600190505b949350505050565b60007f01ffc9a7000000000000000000000000000000000000000000000000000000007bffffffffffffffffffffffffffffffffffffffffffffffffffffffff1916827bffffffffffffffffffffffffffffffffffffffffffffffffffffffff1916149050919050565b611f3f838383612245565b600073ffffffffffffffffffffffffffffffffffffffff168373ffffffffffffffffffffffffffffffffffffffff161415611f8257611f7d8161224a565b611fc1565b8173ffffffffffffffffffffffffffffffffffffffff168373ffffffffffffffffffffffffffffffffffffffff1614611fc057611fbf8382612293565b5b5b600073ffffffffffffffffffffffffffffffffffffffff168273ffffffffffffffffffffffffffffffffffffffff16141561200457611fff81612400565b612043565b8273ffffffffffffffffffffffffffffffffffffffff168273ffffffffffffffffffffffffffffffffffffffff16146120425761204182826124d1565b5b5b505050565b600073ffffffffffffffffffffffffffffffffffffffff168273ffffffffffffffffffffffffffffffffffffffff1614156120b8576040517f08c379a00000000000000000000000000000000000000000000000000000000081526004016120af90613793565b60405180910390fd5b6120c181611bbc565b15612101576040517f08c379a00000000000000000000000000000000000000000000000000000000081526004016120f8906137ff565b60405180910390fd5b61210d60008383611c28565b6001600360008473ffffffffffffffffffffffffffffffffffffffff1673ffffffffffffffffffffffffffffffffffffffff168152602001908152602001600020600082825461215d919061335e565b92505081905550816002600083815260200190815260200160002060006101000a81548173ffffffffffffffffffffffffffffffffffffffff021916908373ffffffffffffffffffffffffffffffffffffffff160217905550808273ffffffffffffffffffffffffffffffffffffffff16600073ffffffffffffffffffffffffffffffffffffffff167fddf252ad1be2c89b69c2b068fc378daa952ba7f163c4a11628f55a4df523b3ef60405160405180910390a461221e60008383611c40565b5050565b6000808273ffffffffffffffffffffffffffffffffffffffff163b119050919050565b505050565b6008805490506009600083815260200190815260200160002081905550600881908060018154018082558091505060019003906000526020600020016000909190919091505550565b600060016122a084610bf0565b6122aa919061332a565b905060006007600084815260200190815260200160002054905081811461238f576000600660008673ffffffffffffffffffffffffffffffffffffffff1673ffffffffffffffffffffffffffffffffffffffff168152602001908152602001600020600084815260200190815260200160002054905080600660008773ffffffffffffffffffffffffffffffffffffffff1673ffffffffffffffffffffffffffffffffffffffff168152602001908152602001600020600084815260200190815260200160002081905550816007600083815260200190815260200160002081905550505b6007600084815260200190815260200160002060009055600660008573ffffffffffffffffffffffffffffffffffffffff1673ffffffffffffffffffffffffffffffffffffffff16815260200190815260200160002060008381526020019081526020016000206000905550505050565b60006001600880549050612414919061332a565b905060006009600084815260200190815260200160002054905060006008838154811061244457612443612f4c565b5b90600052602060002001549050806008838154811061246657612465612f4c565b5b9060005260206000200181905550816009600083815260200190815260200160002081905550600960008581526020019081526020016000206000905560088054806124b5576124b461381f565b5b6001900381819060005260206000200160009055905550505050565b60006124dc83610bf0565b905081600660008573ffffffffffffffffffffffffffffffffffffffff1673ffffffffffffffffffffffffffffffffffffffff168152602001908152602001600020600083815260200190815260200160002081905550806007600084815260200190815260200160002081905550505050565b6000604051905090565b600080fd5b600080fd5b60007fffffffff0000000000000000000000000000000000000000000000000000000082169050919050565b61259981612564565b81146125a457600080fd5b50565b6000813590506125b681612590565b92915050565b6000602082840312156125d2576125d161255a565b5b60006125e0848285016125a7565b91505092915050565b60008115159050919050565b6125fe816125e9565b82525050565b600060208201905061261960008301846125f5565b92915050565b600081519050919050565b600082825260208201905092915050565b60005b8381101561265957808201518184015260208101905061263e565b83811115612668576000848401525b50505050565b6000601f19601f8301169050919050565b600061268a8261261f565b612694818561262a565b93506126a481856020860161263b565b6126ad8161266e565b840191505092915050565b600060208201905081810360008301526126d2818461267f565b905092915050565b6000819050919050565b6126ed816126da565b81146126f857600080fd5b50565b60008135905061270a816126e4565b92915050565b6000602082840312156127265761272561255a565b5b6000612734848285016126fb565b91505092915050565b600073ffffffffffffffffffffffffffffffffffffffff82169050919050565b60006127688261273d565b9050919050565b6127788161275d565b82525050565b6000602082019050612793600083018461276f565b92915050565b6127a28161275d565b81146127ad57600080fd5b50565b6000813590506127bf81612799565b92915050565b600080604083850312156127dc576127db61255a565b5b60006127ea858286016127b0565b92505060206127fb858286016126fb565b9150509250929050565b61280e816126da565b82525050565b60006020820190506128296000830184612805565b92915050565b6000806000606084860312156128485761284761255a565b5b6000612856868287016127b0565b9350506020612867868287016127b0565b9250506040612878868287016126fb565b9150509250925092565b6000602082840312156128985761289761255a565b5b60006128a6848285016127b0565b91505092915050565b6128b8816125e9565b81146128c357600080fd5b50565b6000813590506128d5816128af565b92915050565b600080604083850312156128f2576128f161255a565b5b6000612900858286016127b0565b9250506020612911858286016128c6565b9150509250929050565b600080fd5b600080fd5b7f4e487b7100000000000000000000000000000000000000000000000000000000600052604160045260246000fd5b61295d8261266e565b810181811067ffffffffffffffff8211171561297c5761297b612925565b5b80604052505050565b600061298f612550565b905061299b8282612954565b919050565b600067ffffffffffffffff8211156129bb576129ba612925565b5b6129c48261266e565b9050602081019050919050565b82818337600083830152505050565b60006129f36129ee846129a0565b612985565b905082815260208101848484011115612a0f57612a0e612920565b5b612a1a8482856129d1565b509392505050565b600082601f830112612a3757612a3661291b565b5b8135612a478482602086016129e0565b91505092915050565b60008060008060808587031215612a6a57612a6961255a565b5b6000612a78878288016127b0565b9450506020612a89878288016127b0565b9350506040612a9a878288016126fb565b925050606085013567ffffffffffffffff811115612abb57612aba61255f565b5b612ac787828801612a22565b91505092959194509250565b60008060408385031215612aea57612ae961255a565b5b6000612af8858286016127b0565b9250506020612b09858286016127b0565b9150509250929050565b7f4e487b7100000000000000000000000000000000000000000000000000000000600052602260045260246000fd5b60006002820490506001821680612b5a57607f821691505b60208210811415612b6e57612b6d612b13565b5b50919050565b7f4552433732313a20617070726f76616c20746f2063757272656e74206f776e6560008201527f7200000000000000000000000000000000000000000000000000000000000000602082015250565b6000612bd060218361262a565b9150612bdb82612b74565b604082019050919050565b60006020820190508181036000830152612bff81612bc3565b9050919050565b7f4552433732313a20617070726f76652063616c6c6572206973206e6f7420746f60008201527f6b656e206f776e6572206e6f7220617070726f76656420666f7220616c6c0000602082015250565b6000612c62603e8361262a565b9150612c6d82612c06565b604082019050919050565b60006020820190508181036000830152612c9181612c55565b9050919050565b7f42616c616e636520697320300000000000000000000000000000000000000000600082015250565b6000612cce600c8361262a565b9150612cd982612c98565b602082019050919050565b60006020820190508181036000830152612cfd81612cc1565b9050919050565b7f4552433732313a2063616c6c6572206973206e6f7420746f6b656e206f776e6560008201527f72206e6f7220617070726f766564000000000000000000000000000000000000602082015250565b6000612d60602e8361262a565b9150612d6b82612d04565b604082019050919050565b60006020820190508181036000830152612d8f81612d53565b9050919050565b7f455243373231456e756d657261626c653a206f776e657220696e646578206f7560008201527f74206f6620626f756e6473000000000000000000000000000000000000000000602082015250565b6000612df2602b8361262a565b9150612dfd82612d96565b604082019050919050565b60006020820190508181036000830152612e2181612de5565b9050919050565b7f546865206d696e74696e67206c696d697420686173207265616368656420746f60008201527f20697473206d61782c20536f7272792100000000000000000000000000000000602082015250565b6000612e8460308361262a565b9150612e8f82612e28565b604082019050919050565b60006020820190508181036000830152612eb381612e77565b9050919050565b7f455243373231456e756d657261626c653a20676c6f62616c20696e646578206f60008201527f7574206f6620626f756e64730000000000000000000000000000000000000000602082015250565b6000612f16602c8361262a565b9150612f2182612eba565b604082019050919050565b60006020820190508181036000830152612f4581612f09565b9050919050565b7f4e487b7100000000000000000000000000000000000000000000000000000000600052603260045260246000fd5b7f4552433732313a20696e76616c696420746f6b656e2049440000000000000000600082015250565b6000612fb160188361262a565b9150612fbc82612f7b565b602082019050919050565b60006020820190508181036000830152612fe081612fa4565b9050919050565b7f4552433732313a2061646472657373207a65726f206973206e6f74206120766160008201527f6c6964206f776e65720000000000000000000000000000000000000000000000602082015250565b600061304360298361262a565b915061304e82612fe7565b604082019050919050565b6000602082019050818103600083015261307281613036565b9050919050565b600081905092915050565b600061308f8261261f565b6130998185613079565b93506130a981856020860161263b565b80840191505092915050565b60006130c18285613084565b91506130cd8284613084565b91508190509392505050565b7f4f776e61626c653a206e6577206f776e657220697320746865207a65726f206160008201527f6464726573730000000000000000000000000000000000000000000000000000602082015250565b600061313560268361262a565b9150613140826130d9565b604082019050919050565b6000602082019050818103600083015261316481613128565b9050919050565b7f4f776e61626c653a2063616c6c6572206973206e6f7420746865206f776e6572600082015250565b60006131a160208361262a565b91506131ac8261316b565b602082019050919050565b600060208201905081810360008301526131d081613194565b9050919050565b7f4552433732313a207472616e736665722066726f6d20696e636f72726563742060008201527f6f776e6572000000000000000000000000000000000000000000000000000000602082015250565b600061323360258361262a565b915061323e826131d7565b604082019050919050565b6000602082019050818103600083015261326281613226565b9050919050565b7f4552433732313a207472616e7366657220746f20746865207a65726f2061646460008201527f7265737300000000000000000000000000000000000000000000000000000000602082015250565b60006132c560248361262a565b91506132d082613269565b604082019050919050565b600060208201905081810360008301526132f4816132b8565b9050919050565b7f4e487b7100000000000000000000000000000000000000000000000000000000600052601160045260246000fd5b6000613335826126da565b9150613340836126da565b925082821015613353576133526132fb565b5b828203905092915050565b6000613369826126da565b9150613374836126da565b9250827fffffffffffffffffffffffffffffffffffffffffffffffffffffffffffffffff038211156133a9576133a86132fb565b5b828201905092915050565b7f4552433732313a20617070726f766520746f2063616c6c657200000000000000600082015250565b60006133ea60198361262a565b91506133f5826133b4565b602082019050919050565b60006020820190508181036000830152613419816133dd565b9050919050565b7f4552433732313a207472616e7366657220746f206e6f6e20455243373231526560008201527f63656976657220696d706c656d656e7465720000000000000000000000000000602082015250565b600061347c60328361262a565b915061348782613420565b604082019050919050565b600060208201905081810360008301526134ab8161346f565b9050919050565b60006134bd826126da565b91507fffffffffffffffffffffffffffffffffffffffffffffffffffffffffffffffff8214156134f0576134ef6132fb565b5b600182019050919050565b7f4e487b7100000000000000000000000000000000000000000000000000000000600052601260045260246000fd5b6000613535826126da565b9150613540836126da565b9250826135505761354f6134fb565b5b828204905092915050565b6000613566826126da565b9150613571836126da565b925082613581576135806134fb565b5b828206905092915050565b7f5061757361626c653a206e6f7420706175736564000000000000000000000000600082015250565b60006135c260148361262a565b91506135cd8261358c565b602082019050919050565b600060208201905081810360008301526135f1816135b5565b9050919050565b7f5061757361626c653a2070617573656400000000000000000000000000000000600082015250565b600061362e60108361262a565b9150613639826135f8565b602082019050919050565b6000602082019050818103600083015261365d81613621565b9050919050565b600081519050919050565b600082825260208201905092915050565b600061368b82613664565b613695818561366f565b93506136a581856020860161263b565b6136ae8161266e565b840191505092915050565b60006080820190506136ce600083018761276f565b6136db602083018661276f565b6136e86040830185612805565b81810360608301526136fa8184613680565b905095945050505050565b60008151905061371481612590565b92915050565b6000602082840312156137305761372f61255a565b5b600061373e84828501613705565b91505092915050565b7f4552433732313a206d696e7420746f20746865207a65726f2061646472657373600082015250565b600061377d60208361262a565b915061378882613747565b602082019050919050565b600060208201905081810360008301526137ac81613770565b9050919050565b7f4552433732313a20746f6b656e20616c7265616479206d696e74656400000000600082015250565b60006137e9601c8361262a565b91506137f4826137b3565b602082019050919050565b60006020820190508181036000830152613818816137dc565b9050919050565b7f4e487b7100000000000000000000000000000000000000000000000000000000600052603160045260246000fdfea264697066735822122087139eb16c26c091931b20d892cc177ca562104b34452ed4bbd12ea7889b1cef64736f6c63430008090033",
  "linkReferences": {},
  "deployedLinkReferences": {}
}