{
  "_format": "hh-sol-artifact-1",
  "contractName": "MyNFT",
  "sourceName": "contracts/MyNFT.sol",
  "abi": [
    {
      "inputs": [],
      "stateMutability": "nonpayable",
      "type": "constructor"
    },
    {
      "anonymous": false,
      "inputs": [
        {
          "indexed": true,
          "internalType": "address",
          "name": "owner",
          "type": "address"
        },
        {
          "indexed": true,
          "internalType": "address",
          "name": "approved",
          "type": "address"
        },
        {
          "indexed": true,
          "internalType": "uint256",
          "name": "tokenId",
          "type": "uint256"
        }
      ],
      "name": "Approval",
      "type": "event"
    },
    {
      "anonymous": false,
      "inputs": [
        {
          "indexed": true,
          "internalType": "address",
          "name": "owner",
          "type": "address"
        },
        {
          "indexed": true,
          "internalType": "address",
          "name": "operator",
          "type": "address"
        },
        {
          "indexed": false,
          "internalType": "bool",
          "name": "approved",
          "type": "bool"
        }
      ],
      "name": "ApprovalForAll",
      "type": "event"
    },
    {
      "anonymous": false,
      "inputs": [
        {
          "indexed": true,
          "internalType": "address",
          "name": "previousOwner",
          "type": "address"
        },
        {
          "indexed": true,
          "internalType": "address",
          "name": "newOwner",
          "type": "address"
        }
      ],
      "name": "OwnershipTransferred",
      "type": "event"
    },
    {
      "anonymous": false,
      "inputs": [
        {
          "indexed": false,
          "internalType": "address",
          "name": "account",
          "type": "address"
        }
      ],
      "name": "Paused",
      "type": "event"
    },
    {
      "anonymous": false,
      "inputs": [
        {
          "indexed": true,
          "internalType": "address",
          "name": "from",
          "type": "address"
        },
        {
          "indexed": true,
          "internalType": "address",
          "name": "to",
          "type": "address"
        },
        {
          "indexed": true,
          "internalType": "uint256",
          "name": "tokenId",
          "type": "uint256"
        }
      ],
      "name": "Transfer",
      "type": "event"
    },
    {
      "anonymous": false,
      "inputs": [
        {
          "indexed": false,
          "internalType": "address",
          "name": "account",
          "type": "address"
        }
      ],
      "name": "Unpaused",
      "type": "event"
    },
    {
      "inputs": [
        {
          "internalType": "address",
          "name": "to",
          "type": "address"
        },
        {
          "internalType": "uint256",
          "name": "tokenId",
          "type": "uint256"
        }
      ],
      "name": "approve",
      "outputs": [],
      "stateMutability": "nonpayable",
      "type": "function"
    },
    {
      "inputs": [
        {
          "internalType": "address",
          "name": "owner",
          "type": "address"
        }
      ],
      "name": "balanceOf",
      "outputs": [
        {
          "internalType": "uint256",
          "name": "",
          "type": "uint256"
        }
      ],
      "stateMutability": "view",
      "type": "function"
    },
    {
      "inputs": [
        {
          "internalType": "uint256",
          "name": "tokenId",
          "type": "uint256"
        }
      ],
      "name": "burn",
      "outputs": [],
      "stateMutability": "nonpayable",
      "type": "function"
    },
    {
      "inputs": [
        {
          "internalType": "uint256",
          "name": "tokenId",
          "type": "uint256"
        }
      ],
      "name": "getApproved",
      "outputs": [
        {
          "internalType": "address",
          "name": "",
          "type": "address"
        }
      ],
      "stateMutability": "view",
      "type": "function"
    },
    {
      "inputs": [
        {
          "internalType": "address",
          "name": "owner",
          "type": "address"
        },
        {
          "internalType": "address",
          "name": "operator",
          "type": "address"
        }
      ],
      "name": "isApprovedForAll",
      "outputs": [
        {
          "internalType": "bool",
          "name": "",
          "type": "bool"
        }
      ],
      "stateMutability": "view",
      "type": "function"
    },
    {
      "inputs": [],
      "name": "mintRate",
      "outputs": [
        {
          "internalType": "uint256",
          "name": "",
          "type": "uint256"
        }
      ],
      "stateMutability": "view",
      "type": "function"
    },
    {
      "inputs": [],
      "name": "name",
      "outputs": [
        {
          "internalType": "string",
          "name": "",
          "type": "string"
        }
      ],
      "stateMutability": "view",
      "type": "function"
    },
    {
      "inputs": [],
      "name": "owner",
      "outputs": [
        {
          "internalType": "address",
          "name": "",
          "type": "address"
        }
      ],
      "stateMutability": "view",
      "type": "function"
    },
    {
      "inputs": [
        {
          "internalType": "uint256",
          "name": "tokenId",
          "type": "uint256"
        }
      ],
      "name": "ownerOf",
      "outputs": [
        {
          "internalType": "address",
          "name": "",
          "type": "address"
        }
      ],
      "stateMutability": "view",
      "type": "function"
    },
    {
      "inputs": [],
      "name": "pause",
      "outputs": [],
      "stateMutability": "nonpayable",
      "type": "function"
    },
    {
      "inputs": [],
      "name": "paused",
      "outputs": [
        {
          "internalType": "bool",
          "name": "",
          "type": "bool"
        }
      ],
      "stateMutability": "view",
      "type": "function"
    },
    {
      "inputs": [],
      "name": "renounceOwnership",
      "outputs": [],
      "stateMutability": "nonpayable",
      "type": "function"
    },
    {
      "inputs": [
        {
          "internalType": "address",
          "name": "to",
          "type": "address"
        }
      ],
      "name": "safeMint",
      "outputs": [],
      "stateMutability": "payable",
      "type": "function"
    },
    {
      "inputs": [
        {
          "internalType": "address",
          "name": "from",
          "type": "address"
        },
        {
          "internalType": "address",
          "name": "to",
          "type": "address"
        },
        {
          "internalType": "uint256",
          "name": "tokenId",
          "type": "uint256"
        }
      ],
      "name": "safeTransferFrom",
      "outputs": [],
      "stateMutability": "nonpayable",
      "type": "function"
    },
    {
      "inputs": [
        {
          "internalType": "address",
          "name": "from",
          "type": "address"
        },
        {
          "internalType": "address",
          "name": "to",
          "type": "address"
        },
        {
          "internalType": "uint256",
          "name": "tokenId",
          "type": "uint256"
        },
        {
          "internalType": "bytes",
          "name": "data",
          "type": "bytes"
        }
      ],
      "name": "safeTransferFrom",
      "outputs": [],
      "stateMutability": "nonpayable",
      "type": "function"
    },
    {
      "inputs": [
        {
          "internalType": "address",
          "name": "operator",
          "type": "address"
        },
        {
          "internalType": "bool",
          "name": "approved",
          "type": "bool"
        }
      ],
      "name": "setApprovalForAll",
      "outputs": [],
      "stateMutability": "nonpayable",
      "type": "function"
    },
    {
      "inputs": [
        {
          "internalType": "bytes4",
          "name": "interfaceId",
          "type": "bytes4"
        }
      ],
      "name": "supportsInterface",
      "outputs": [
        {
          "internalType": "bool",
          "name": "",
          "type": "bool"
        }
      ],
      "stateMutability": "view",
      "type": "function"
    },
    {
      "inputs": [],
      "name": "symbol",
      "outputs": [
        {
          "internalType": "string",
          "name": "",
          "type": "string"
        }
      ],
      "stateMutability": "view",
      "type": "function"
    },
    {
      "inputs": [
        {
          "internalType": "uint256",
          "name": "index",
          "type": "uint256"
        }
      ],
      "name": "tokenByIndex",
      "outputs": [
        {
          "internalType": "uint256",
          "name": "",
          "type": "uint256"
        }
      ],
      "stateMutability": "view",
      "type": "function"
    },
    {
      "inputs": [
        {
          "internalType": "address",
          "name": "owner",
          "type": "address"
        },
        {
          "internalType": "uint256",
          "name": "index",
          "type": "uint256"
        }
      ],
      "name": "tokenOfOwnerByIndex",
      "outputs": [
        {
          "internalType": "uint256",
          "name": "",
          "type": "uint256"
        }
      ],
      "stateMutability": "view",
      "type": "function"
    },
    {
      "inputs": [
        {
          "internalType": "uint256",
          "name": "tokenId",
          "type": "uint256"
        }
      ],
      "name": "tokenURI",
      "outputs": [
        {
          "internalType": "string",
          "name": "",
          "type": "string"
        }
      ],
      "stateMutability": "view",
      "type": "function"
    },
    {
      "inputs": [],
      "name": "totalSupply",
      "outputs": [
        {
          "internalType": "uint256",
          "name": "",
          "type": "uint256"
        }
      ],
      "stateMutability": "view",
      "type": "function"
    },
    {
      "inputs": [
        {
          "internalType": "address",
          "name": "from",
          "type": "address"
        },
        {
          "internalType": "address",
          "name": "to",
          "type": "address"
        },
        {
          "internalType": "uint256",
          "name": "tokenId",
          "type": "uint256"
        }
      ],
      "name": "transferFrom",
      "outputs": [],
      "stateMutability": "nonpayable",
      "type": "function"
    },
    {
      "inputs": [
        {
          "internalType": "address",
          "name": "newOwner",
          "type": "address"
        }
      ],
      "name": "transferOwnership",
      "outputs": [],
      "stateMutability": "nonpayable",
      "type": "function"
    },
    {
      "inputs": [],
      "name": "unpause",
      "outputs": [],
      "stateMutability": "nonpayable",
      "type": "function"
    },
    {
      "inputs": [],
      "name": "withDraw",
      "outputs": [],
      "stateMutability": "nonpayable",
      "type": "function"
    }
  ],
  "bytecode": "0x6080604052662386f26fc10000600c553480156200001c57600080fd5b506040518060400160405280600581526020017f4d794e46540000000000000000000000000000000000000000000000000000008152506040518060400160405280600481526020017f4d4e4654000000000000000000000000000000000000000000000000000000008152508160009080519060200190620000a1929190620001cc565b508060019080519060200190620000ba929190620001cc565b5050506000600a60006101000a81548160ff021916908315150217905550620000f8620000ec620000fe60201b60201c565b6200010660201b60201c565b620002e1565b600033905090565b6000600a60019054906101000a900473ffffffffffffffffffffffffffffffffffffffff16905081600a60016101000a81548173ffffffffffffffffffffffffffffffffffffffff021916908373ffffffffffffffffffffffffffffffffffffffff1602179055508173ffffffffffffffffffffffffffffffffffffffff168173ffffffffffffffffffffffffffffffffffffffff167f8be0079c531659141344cd1fd0a4f28419497f9722a3daafe3b4186f6b6457e060405160405180910390a35050565b828054620001da90620002ab565b90600052602060002090601f016020900481019282620001fe57600085556200024a565b82601f106200021957805160ff19168380011785556200024a565b828001600101855582156200024a579182015b82811115620002495782518255916020019190600101906200022c565b5b5090506200025991906200025d565b5090565b5b80821115620002785760008160009055506001016200025e565b5090565b7f4e487b7100000000000000000000000000000000000000000000000000000000600052602260045260246000fd5b60006002820490506001821680620002c457607f821691505b60208210811415620002db57620002da6200027c565b5b50919050565b61385780620002f16000396000f3fe6080604052600436106101815760003560e01c80635c975abb116100d157806395d89b411161008a578063c87b56dd11610064578063c87b56dd14610539578063ca0dcf1614610576578063e985e9c5146105a1578063f2fde38b146105de57610181565b806395d89b41146104bc578063a22cb465146104e7578063b88d4fde1461051057610181565b80635c975abb146103be5780636352211e146103e957806370a0823114610426578063715018a6146104635780638456cb591461047a5780638da5cb5b1461049157610181565b806323b872dd1161013e57806340d097c31161011857806340d097c31461031357806342842e0e1461032f57806342966c68146103585780634f6ccce71461038157610181565b806323b872dd146102965780632f745c59146102bf5780633f4ba83a146102fc57610181565b806301ffc9a71461018657806306fdde03146101c3578063081812fc146101ee578063095ea7b31461022b5780630fdb1c101461025457806318160ddd1461026b575b600080fd5b34801561019257600080fd5b506101ad60048036038101906101a891906125b5565b610607565b6040516101ba91906125fd565b60405180910390f35b3480156101cf57600080fd5b506101d8610619565b6040516101e591906126b1565b60405180910390f35b3480156101fa57600080fd5b5061021560048036038101906102109190612709565b6106ab565b6040516102229190612777565b60405180910390f35b34801561023757600080fd5b50610252600480360381019061024d91906127be565b6106f1565b005b34801561026057600080fd5b50610269610809565b005b34801561027757600080fd5b506102806108a4565b60405161028d919061280d565b60405180910390f35b3480156102a257600080fd5b506102bd60048036038101906102b89190612828565b6108b1565b005b3480156102cb57600080fd5b506102e660048036038101906102e191906127be565b610911565b6040516102f3919061280d565b60405180910390f35b34801561030857600080fd5b506103116109b6565b005b61032d6004803603810190610328919061287b565b6109c8565b005b34801561033b57600080fd5b5061035660048036038101906103519190612828565b610a33565b005b34801561036457600080fd5b5061037f600480360381019061037a9190612709565b610a53565b005b34801561038d57600080fd5b506103a860048036038101906103a39190612709565b610aaf565b6040516103b5919061280d565b60405180910390f35b3480156103ca57600080fd5b506103d3610b20565b6040516103e091906125fd565b60405180910390f35b3480156103f557600080fd5b50610410600480360381019061040b9190612709565b610b37565b60405161041d9190612777565b60405180910390f35b34801561043257600080fd5b5061044d6004803603810190610448919061287b565b610be9565b60405161045a919061280d565b60405180910390f35b34801561046f57600080fd5b50610478610ca1565b005b34801561048657600080fd5b5061048f610cb5565b005b34801561049d57600080fd5b506104a6610cc7565b6040516104b39190612777565b60405180910390f35b3480156104c857600080fd5b506104d1610cf1565b6040516104de91906126b1565b60405180910390f35b3480156104f357600080fd5b5061050e600480360381019061050991906128d4565b610d83565b005b34801561051c57600080fd5b5061053760048036038101906105329190612a49565b610d99565b005b34801561054557600080fd5b50610560600480360381019061055b9190612709565b610dfb565b60405161056d91906126b1565b60405180910390f35b34801561058257600080fd5b5061058b610e63565b604051610598919061280d565b60405180910390f35b3480156105ad57600080fd5b506105c860048036038101906105c39190612acc565b610e69565b6040516105d591906125fd565b60405180910390f35b3480156105ea57600080fd5b506106056004803603810190610600919061287b565b610efd565b005b600061061282610f81565b9050919050565b60606000805461062890612b3b565b80601f016020809104026020016040519081016040528092919081815260200182805461065490612b3b565b80156106a15780601f10610676576101008083540402835291602001916106a1565b820191906000526020600020905b81548152906001019060200180831161068457829003601f168201915b5050505050905090565b60006106b682610ffb565b6004600083815260200190815260200160002060009054906101000a900473ffffffffffffffffffffffffffffffffffffffff169050919050565b60006106fc82610b37565b90508073ffffffffffffffffffffffffffffffffffffffff168373ffffffffffffffffffffffffffffffffffffffff16141561076d576040517f08c379a000000000000000000000000000000000000000000000000000000000815260040161076490612bdf565b60405180910390fd5b8073ffffffffffffffffffffffffffffffffffffffff1661078c611046565b73ffffffffffffffffffffffffffffffffffffffff1614806107bb57506107ba816107b5611046565b610e69565b5b6107fa576040517f08c379a00000000000000000000000000000000000000000000000000000000081526004016107f190612c71565b60405180910390fd5b610804838361104e565b505050565b610811611107565b60004711610854576040517f08c379a000000000000000000000000000000000000000000000000000000000815260040161084b90612cdd565b60405180910390fd5b61085c610cc7565b73ffffffffffffffffffffffffffffffffffffffff166108fc479081150290604051600060405180830381858888f193505050501580156108a1573d6000803e3d6000fd5b50565b6000600880549050905090565b6108c26108bc611046565b82611185565b610901576040517f08c379a00000000000000000000000000000000000000000000000000000000081526004016108f890612d6f565b60405180910390fd5b61090c83838361121a565b505050565b600061091c83610be9565b821061095d576040517f08c379a000000000000000000000000000000000000000000000000000000000815260040161095490612e01565b60405180910390fd5b600660008473ffffffffffffffffffffffffffffffffffffffff1673ffffffffffffffffffffffffffffffffffffffff168152602001908152602001600020600083815260200190815260200160002054905092915050565b6109be611107565b6109c6611481565b565b600c54341015610a0d576040517f08c379a0000000000000000000000000000000000000000000000000000000008152600401610a0490612e6d565b60405180910390fd5b6000610a19600b6114e4565b9050610a25600b6114f2565b610a2f8282611508565b5050565b610a4e83838360405180602001604052806000815250610d99565b505050565b610a64610a5e611046565b82611185565b610aa3576040517f08c379a0000000000000000000000000000000000000000000000000000000008152600401610a9a90612d6f565b60405180910390fd5b610aac81611526565b50565b6000610ab96108a4565b8210610afa576040517f08c379a0000000000000000000000000000000000000000000000000000000008152600401610af190612eff565b60405180910390fd5b60088281548110610b0e57610b0d612f1f565b5b90600052602060002001549050919050565b6000600a60009054906101000a900460ff16905090565b6000806002600084815260200190815260200160002060009054906101000a900473ffffffffffffffffffffffffffffffffffffffff169050600073ffffffffffffffffffffffffffffffffffffffff168173ffffffffffffffffffffffffffffffffffffffff161415610be0576040517f08c379a0000000000000000000000000000000000000000000000000000000008152600401610bd790612f9a565b60405180910390fd5b80915050919050565b60008073ffffffffffffffffffffffffffffffffffffffff168273ffffffffffffffffffffffffffffffffffffffff161415610c5a576040517f08c379a0000000000000000000000000000000000000000000000000000000008152600401610c519061302c565b60405180910390fd5b600360008373ffffffffffffffffffffffffffffffffffffffff1673ffffffffffffffffffffffffffffffffffffffff168152602001908152602001600020549050919050565b610ca9611107565b610cb36000611643565b565b610cbd611107565b610cc5611709565b565b6000600a60019054906101000a900473ffffffffffffffffffffffffffffffffffffffff16905090565b606060018054610d0090612b3b565b80601f0160208091040260200160405190810160405280929190818152602001828054610d2c90612b3b565b8015610d795780601f10610d4e57610100808354040283529160200191610d79565b820191906000526020600020905b815481529060010190602001808311610d5c57829003601f168201915b5050505050905090565b610d95610d8e611046565b838361176c565b5050565b610daa610da4611046565b83611185565b610de9576040517f08c379a0000000000000000000000000000000000000000000000000000000008152600401610de090612d6f565b60405180910390fd5b610df5848484846118d9565b50505050565b6060610e0682610ffb565b6000610e10611935565b90506000815111610e305760405180602001604052806000815250610e5b565b80610e3a84611972565b604051602001610e4b929190613088565b6040516020818303038152906040525b915050919050565b600c5481565b6000600560008473ffffffffffffffffffffffffffffffffffffffff1673ffffffffffffffffffffffffffffffffffffffff16815260200190815260200160002060008373ffffffffffffffffffffffffffffffffffffffff1673ffffffffffffffffffffffffffffffffffffffff16815260200190815260200160002060009054906101000a900460ff16905092915050565b610f05611107565b600073ffffffffffffffffffffffffffffffffffffffff168173ffffffffffffffffffffffffffffffffffffffff161415610f75576040517f08c379a0000000000000000000000000000000000000000000000000000000008152600401610f6c9061311e565b60405180910390fd5b610f7e81611643565b50565b60007f780e9d63000000000000000000000000000000000000000000000000000000007bffffffffffffffffffffffffffffffffffffffffffffffffffffffff1916827bffffffffffffffffffffffffffffffffffffffffffffffffffffffff19161480610ff45750610ff382611ad3565b5b9050919050565b61100481611bb5565b611043576040517f08c379a000000000000000000000000000000000000000000000000000000000815260040161103a90612f9a565b60405180910390fd5b50565b600033905090565b816004600083815260200190815260200160002060006101000a81548173ffffffffffffffffffffffffffffffffffffffff021916908373ffffffffffffffffffffffffffffffffffffffff160217905550808273ffffffffffffffffffffffffffffffffffffffff166110c183610b37565b73ffffffffffffffffffffffffffffffffffffffff167f8c5be1e5ebec7d5bd14f71427d1e84f3dd0314c0f7b2291e5b200ac8c7c3b92560405160405180910390a45050565b61110f611046565b73ffffffffffffffffffffffffffffffffffffffff1661112d610cc7565b73ffffffffffffffffffffffffffffffffffffffff1614611183576040517f08c379a000000000000000000000000000000000000000000000000000000000815260040161117a9061318a565b60405180910390fd5b565b60008061119183610b37565b90508073ffffffffffffffffffffffffffffffffffffffff168473ffffffffffffffffffffffffffffffffffffffff1614806111d357506111d28185610e69565b5b8061121157508373ffffffffffffffffffffffffffffffffffffffff166111f9846106ab565b73ffffffffffffffffffffffffffffffffffffffff16145b91505092915050565b8273ffffffffffffffffffffffffffffffffffffffff1661123a82610b37565b73ffffffffffffffffffffffffffffffffffffffff1614611290576040517f08c379a00000000000000000000000000000000000000000000000000000000081526004016112879061321c565b60405180910390fd5b600073ffffffffffffffffffffffffffffffffffffffff168273ffffffffffffffffffffffffffffffffffffffff161415611300576040517f08c379a00000000000000000000000000000000000000000000000000000000081526004016112f7906132ae565b60405180910390fd5b61130b838383611c21565b61131660008261104e565b6001600360008573ffffffffffffffffffffffffffffffffffffffff1673ffffffffffffffffffffffffffffffffffffffff168152602001908152602001600020600082825461136691906132fd565b925050819055506001600360008473ffffffffffffffffffffffffffffffffffffffff1673ffffffffffffffffffffffffffffffffffffffff16815260200190815260200160002060008282546113bd9190613331565b92505081905550816002600083815260200190815260200160002060006101000a81548173ffffffffffffffffffffffffffffffffffffffff021916908373ffffffffffffffffffffffffffffffffffffffff160217905550808273ffffffffffffffffffffffffffffffffffffffff168473ffffffffffffffffffffffffffffffffffffffff167fddf252ad1be2c89b69c2b068fc378daa952ba7f163c4a11628f55a4df523b3ef60405160405180910390a461147c838383611c39565b505050565b611489611c3e565b6000600a60006101000a81548160ff0219169083151502179055507f5db9ee0a495bf2e6ff9c91a7834c1ba4fdd244a5e8aa4e537bd38aeae4b073aa6114cd611046565b6040516114da9190612777565b60405180910390a1565b600081600001549050919050565b6001816000016000828254019250508190555050565b611522828260405180602001604052806000815250611c87565b5050565b600061153182610b37565b905061153f81600084611c21565b61154a60008361104e565b6001600360008373ffffffffffffffffffffffffffffffffffffffff1673ffffffffffffffffffffffffffffffffffffffff168152602001908152602001600020600082825461159a91906132fd565b925050819055506002600083815260200190815260200160002060006101000a81549073ffffffffffffffffffffffffffffffffffffffff021916905581600073ffffffffffffffffffffffffffffffffffffffff168273ffffffffffffffffffffffffffffffffffffffff167fddf252ad1be2c89b69c2b068fc378daa952ba7f163c4a11628f55a4df523b3ef60405160405180910390a461163f81600084611c39565b5050565b6000600a60019054906101000a900473ffffffffffffffffffffffffffffffffffffffff16905081600a60016101000a81548173ffffffffffffffffffffffffffffffffffffffff021916908373ffffffffffffffffffffffffffffffffffffffff1602179055508173ffffffffffffffffffffffffffffffffffffffff168173ffffffffffffffffffffffffffffffffffffffff167f8be0079c531659141344cd1fd0a4f28419497f9722a3daafe3b4186f6b6457e060405160405180910390a35050565b611711611ce2565b6001600a60006101000a81548160ff0219169083151502179055507f62e78cea01bee320cd4e420270b5ea74000d11b0c9f74754ebdbfc544b05a258611755611046565b6040516117629190612777565b60405180910390a1565b8173ffffffffffffffffffffffffffffffffffffffff168373ffffffffffffffffffffffffffffffffffffffff1614156117db576040517f08c379a00000000000000000000000000000000000000000000000000000000081526004016117d2906133d3565b60405180910390fd5b80600560008573ffffffffffffffffffffffffffffffffffffffff1673ffffffffffffffffffffffffffffffffffffffff16815260200190815260200160002060008473ffffffffffffffffffffffffffffffffffffffff1673ffffffffffffffffffffffffffffffffffffffff16815260200190815260200160002060006101000a81548160ff0219169083151502179055508173ffffffffffffffffffffffffffffffffffffffff168373ffffffffffffffffffffffffffffffffffffffff167f17307eab39ab6107e8899845ad3d59bd9653f200f220920489ca2b5937696c31836040516118cc91906125fd565b60405180910390a3505050565b6118e484848461121a565b6118f084848484611d2c565b61192f576040517f08c379a000000000000000000000000000000000000000000000000000000000815260040161192690613465565b60405180910390fd5b50505050565b60606040518060400160405280601d81526020017f68747470733a2f2f6170692e6d796e66742e636f6d2f746f6b656e732f000000815250905090565b606060008214156119ba576040518060400160405280600181526020017f30000000000000000000000000000000000000000000000000000000000000008152509050611ace565b600082905060005b600082146119ec5780806119d590613485565b915050600a826119e591906134fd565b91506119c2565b60008167ffffffffffffffff811115611a0857611a0761291e565b5b6040519080825280601f01601f191660200182016040528015611a3a5781602001600182028036833780820191505090505b5090505b60008514611ac757600182611a5391906132fd565b9150600a85611a62919061352e565b6030611a6e9190613331565b60f81b818381518110611a8457611a83612f1f565b5b60200101907effffffffffffffffffffffffffffffffffffffffffffffffffffffffffffff1916908160001a905350600a85611ac091906134fd565b9450611a3e565b8093505050505b919050565b60007f80ac58cd000000000000000000000000000000000000000000000000000000007bffffffffffffffffffffffffffffffffffffffffffffffffffffffff1916827bffffffffffffffffffffffffffffffffffffffffffffffffffffffff19161480611b9e57507f5b5e139f000000000000000000000000000000000000000000000000000000007bffffffffffffffffffffffffffffffffffffffffffffffffffffffff1916827bffffffffffffffffffffffffffffffffffffffffffffffffffffffff1916145b80611bae5750611bad82611ec3565b5b9050919050565b60008073ffffffffffffffffffffffffffffffffffffffff166002600084815260200190815260200160002060009054906101000a900473ffffffffffffffffffffffffffffffffffffffff1673ffffffffffffffffffffffffffffffffffffffff1614159050919050565b611c29611ce2565b611c34838383611f2d565b505050565b505050565b611c46610b20565b611c85576040517f08c379a0000000000000000000000000000000000000000000000000000000008152600401611c7c906135ab565b60405180910390fd5b565b611c918383612041565b611c9e6000848484611d2c565b611cdd576040517f08c379a0000000000000000000000000000000000000000000000000000000008152600401611cd490613465565b60405180910390fd5b505050565b611cea610b20565b15611d2a576040517f08c379a0000000000000000000000000000000000000000000000000000000008152600401611d2190613617565b60405180910390fd5b565b6000611d4d8473ffffffffffffffffffffffffffffffffffffffff1661221b565b15611eb6578373ffffffffffffffffffffffffffffffffffffffff1663150b7a02611d76611046565b8786866040518563ffffffff1660e01b8152600401611d98949392919061368c565b602060405180830381600087803b158015611db257600080fd5b505af1925050508015611de357506040513d601f19601f82011682018060405250810190611de091906136ed565b60015b611e66573d8060008114611e13576040519150601f19603f3d011682016040523d82523d6000602084013e611e18565b606091505b50600081511415611e5e576040517f08c379a0000000000000000000000000000000000000000000000000000000008152600401611e5590613465565b60405180910390fd5b805181602001fd5b63150b7a0260e01b7bffffffffffffffffffffffffffffffffffffffffffffffffffffffff1916817bffffffffffffffffffffffffffffffffffffffffffffffffffffffff191614915050611ebb565b600190505b949350505050565b60007f01ffc9a7000000000000000000000000000000000000000000000000000000007bffffffffffffffffffffffffffffffffffffffffffffffffffffffff1916827bffffffffffffffffffffffffffffffffffffffffffffffffffffffff1916149050919050565b611f3883838361223e565b600073ffffffffffffffffffffffffffffffffffffffff168373ffffffffffffffffffffffffffffffffffffffff161415611f7b57611f7681612243565b611fba565b8173ffffffffffffffffffffffffffffffffffffffff168373ffffffffffffffffffffffffffffffffffffffff1614611fb957611fb8838261228c565b5b5b600073ffffffffffffffffffffffffffffffffffffffff168273ffffffffffffffffffffffffffffffffffffffff161415611ffd57611ff8816123f9565b61203c565b8273ffffffffffffffffffffffffffffffffffffffff168273ffffffffffffffffffffffffffffffffffffffff161461203b5761203a82826124ca565b5b5b505050565b600073ffffffffffffffffffffffffffffffffffffffff168273ffffffffffffffffffffffffffffffffffffffff1614156120b1576040517f08c379a00000000000000000000000000000000000000000000000000000000081526004016120a890613766565b60405180910390fd5b6120ba81611bb5565b156120fa576040517f08c379a00000000000000000000000000000000000000000000000000000000081526004016120f1906137d2565b60405180910390fd5b61210660008383611c21565b6001600360008473ffffffffffffffffffffffffffffffffffffffff1673ffffffffffffffffffffffffffffffffffffffff16815260200190815260200160002060008282546121569190613331565b92505081905550816002600083815260200190815260200160002060006101000a81548173ffffffffffffffffffffffffffffffffffffffff021916908373ffffffffffffffffffffffffffffffffffffffff160217905550808273ffffffffffffffffffffffffffffffffffffffff16600073ffffffffffffffffffffffffffffffffffffffff167fddf252ad1be2c89b69c2b068fc378daa952ba7f163c4a11628f55a4df523b3ef60405160405180910390a461221760008383611c39565b5050565b6000808273ffffffffffffffffffffffffffffffffffffffff163b119050919050565b505050565b6008805490506009600083815260200190815260200160002081905550600881908060018154018082558091505060019003906000526020600020016000909190919091505550565b6000600161229984610be9565b6122a391906132fd565b9050600060076000848152602001908152602001600020549050818114612388576000600660008673ffffffffffffffffffffffffffffffffffffffff1673ffffffffffffffffffffffffffffffffffffffff168152602001908152602001600020600084815260200190815260200160002054905080600660008773ffffffffffffffffffffffffffffffffffffffff1673ffffffffffffffffffffffffffffffffffffffff168152602001908152602001600020600084815260200190815260200160002081905550816007600083815260200190815260200160002081905550505b6007600084815260200190815260200160002060009055600660008573ffffffffffffffffffffffffffffffffffffffff1673ffffffffffffffffffffffffffffffffffffffff16815260200190815260200160002060008381526020019081526020016000206000905550505050565b6000600160088054905061240d91906132fd565b905060006009600084815260200190815260200160002054905060006008838154811061243d5761243c612f1f565b5b90600052602060002001549050806008838154811061245f5761245e612f1f565b5b9060005260206000200181905550816009600083815260200190815260200160002081905550600960008581526020019081526020016000206000905560088054806124ae576124ad6137f2565b5b6001900381819060005260206000200160009055905550505050565b60006124d583610be9565b905081600660008573ffffffffffffffffffffffffffffffffffffffff1673ffffffffffffffffffffffffffffffffffffffff168152602001908152602001600020600083815260200190815260200160002081905550806007600084815260200190815260200160002081905550505050565b6000604051905090565b600080fd5b600080fd5b60007fffffffff0000000000000000000000000000000000000000000000000000000082169050919050565b6125928161255d565b811461259d57600080fd5b50565b6000813590506125af81612589565b92915050565b6000602082840312156125cb576125ca612553565b5b60006125d9848285016125a0565b91505092915050565b60008115159050919050565b6125f7816125e2565b82525050565b600060208201905061261260008301846125ee565b92915050565b600081519050919050565b600082825260208201905092915050565b60005b83811015612652578082015181840152602081019050612637565b83811115612661576000848401525b50505050565b6000601f19601f8301169050919050565b600061268382612618565b61268d8185612623565b935061269d818560208601612634565b6126a681612667565b840191505092915050565b600060208201905081810360008301526126cb8184612678565b905092915050565b6000819050919050565b6126e6816126d3565b81146126f157600080fd5b50565b600081359050612703816126dd565b92915050565b60006020828403121561271f5761271e612553565b5b600061272d848285016126f4565b91505092915050565b600073ffffffffffffffffffffffffffffffffffffffff82169050919050565b600061276182612736565b9050919050565b61277181612756565b82525050565b600060208201905061278c6000830184612768565b92915050565b61279b81612756565b81146127a657600080fd5b50565b6000813590506127b881612792565b92915050565b600080604083850312156127d5576127d4612553565b5b60006127e3858286016127a9565b92505060206127f4858286016126f4565b9150509250929050565b612807816126d3565b82525050565b600060208201905061282260008301846127fe565b92915050565b60008060006060848603121561284157612840612553565b5b600061284f868287016127a9565b9350506020612860868287016127a9565b9250506040612871868287016126f4565b9150509250925092565b60006020828403121561289157612890612553565b5b600061289f848285016127a9565b91505092915050565b6128b1816125e2565b81146128bc57600080fd5b50565b6000813590506128ce816128a8565b92915050565b600080604083850312156128eb576128ea612553565b5b60006128f9858286016127a9565b925050602061290a858286016128bf565b9150509250929050565b600080fd5b600080fd5b7f4e487b7100000000000000000000000000000000000000000000000000000000600052604160045260246000fd5b61295682612667565b810181811067ffffffffffffffff821117156129755761297461291e565b5b80604052505050565b6000612988612549565b9050612994828261294d565b919050565b600067ffffffffffffffff8211156129b4576129b361291e565b5b6129bd82612667565b9050602081019050919050565b82818337600083830152505050565b60006129ec6129e784612999565b61297e565b905082815260208101848484011115612a0857612a07612919565b5b612a138482856129ca565b509392505050565b600082601f830112612a3057612a2f612914565b5b8135612a408482602086016129d9565b91505092915050565b60008060008060808587031215612a6357612a62612553565b5b6000612a71878288016127a9565b9450506020612a82878288016127a9565b9350506040612a93878288016126f4565b925050606085013567ffffffffffffffff811115612ab457612ab3612558565b5b612ac087828801612a1b565b91505092959194509250565b60008060408385031215612ae357612ae2612553565b5b6000612af1858286016127a9565b9250506020612b02858286016127a9565b9150509250929050565b7f4e487b7100000000000000000000000000000000000000000000000000000000600052602260045260246000fd5b60006002820490506001821680612b5357607f821691505b60208210811415612b6757612b66612b0c565b5b50919050565b7f4552433732313a20617070726f76616c20746f2063757272656e74206f776e6560008201527f7200000000000000000000000000000000000000000000000000000000000000602082015250565b6000612bc9602183612623565b9150612bd482612b6d565b604082019050919050565b60006020820190508181036000830152612bf881612bbc565b9050919050565b7f4552433732313a20617070726f76652063616c6c6572206973206e6f7420746f60008201527f6b656e206f776e6572206e6f7220617070726f76656420666f7220616c6c0000602082015250565b6000612c5b603e83612623565b9150612c6682612bff565b604082019050919050565b60006020820190508181036000830152612c8a81612c4e565b9050919050565b7f42616c616e636520697320300000000000000000000000000000000000000000600082015250565b6000612cc7600c83612623565b9150612cd282612c91565b602082019050919050565b60006020820190508181036000830152612cf681612cba565b9050919050565b7f4552433732313a2063616c6c6572206973206e6f7420746f6b656e206f776e6560008201527f72206e6f7220617070726f766564000000000000000000000000000000000000602082015250565b6000612d59602e83612623565b9150612d6482612cfd565b604082019050919050565b60006020820190508181036000830152612d8881612d4c565b9050919050565b7f455243373231456e756d657261626c653a206f776e657220696e646578206f7560008201527f74206f6620626f756e6473000000000000000000000000000000000000000000602082015250565b6000612deb602b83612623565b9150612df682612d8f565b604082019050919050565b60006020820190508181036000830152612e1a81612dde565b9050919050565b7f4e6f7420656e6f75676820657468657200000000000000000000000000000000600082015250565b6000612e57601083612623565b9150612e6282612e21565b602082019050919050565b60006020820190508181036000830152612e8681612e4a565b9050919050565b7f455243373231456e756d657261626c653a20676c6f62616c20696e646578206f60008201527f7574206f6620626f756e64730000000000000000000000000000000000000000602082015250565b6000612ee9602c83612623565b9150612ef482612e8d565b604082019050919050565b60006020820190508181036000830152612f1881612edc565b9050919050565b7f4e487b7100000000000000000000000000000000000000000000000000000000600052603260045260246000fd5b7f4552433732313a20696e76616c696420746f6b656e2049440000000000000000600082015250565b6000612f84601883612623565b9150612f8f82612f4e565b602082019050919050565b60006020820190508181036000830152612fb381612f77565b9050919050565b7f4552433732313a2061646472657373207a65726f206973206e6f74206120766160008201527f6c6964206f776e65720000000000000000000000000000000000000000000000602082015250565b6000613016602983612623565b915061302182612fba565b604082019050919050565b6000602082019050818103600083015261304581613009565b9050919050565b600081905092915050565b600061306282612618565b61306c818561304c565b935061307c818560208601612634565b80840191505092915050565b60006130948285613057565b91506130a08284613057565b91508190509392505050565b7f4f776e61626c653a206e6577206f776e657220697320746865207a65726f206160008201527f6464726573730000000000000000000000000000000000000000000000000000602082015250565b6000613108602683612623565b9150613113826130ac565b604082019050919050565b60006020820190508181036000830152613137816130fb565b9050919050565b7f4f776e61626c653a2063616c6c6572206973206e6f7420746865206f776e6572600082015250565b6000613174602083612623565b915061317f8261313e565b602082019050919050565b600060208201905081810360008301526131a381613167565b9050919050565b7f4552433732313a207472616e736665722066726f6d20696e636f72726563742060008201527f6f776e6572000000000000000000000000000000000000000000000000000000602082015250565b6000613206602583612623565b9150613211826131aa565b604082019050919050565b60006020820190508181036000830152613235816131f9565b9050919050565b7f4552433732313a207472616e7366657220746f20746865207a65726f2061646460008201527f7265737300000000000000000000000000000000000000000000000000000000602082015250565b6000613298602483612623565b91506132a38261323c565b604082019050919050565b600060208201905081810360008301526132c78161328b565b9050919050565b7f4e487b7100000000000000000000000000000000000000000000000000000000600052601160045260246000fd5b6000613308826126d3565b9150613313836126d3565b925082821015613326576133256132ce565b5b828203905092915050565b600061333c826126d3565b9150613347836126d3565b9250827fffffffffffffffffffffffffffffffffffffffffffffffffffffffffffffffff0382111561337c5761337b6132ce565b5b828201905092915050565b7f4552433732313a20617070726f766520746f2063616c6c657200000000000000600082015250565b60006133bd601983612623565b91506133c882613387565b602082019050919050565b600060208201905081810360008301526133ec816133b0565b9050919050565b7f4552433732313a207472616e7366657220746f206e6f6e20455243373231526560008201527f63656976657220696d706c656d656e7465720000000000000000000000000000602082015250565b600061344f603283612623565b915061345a826133f3565b604082019050919050565b6000602082019050818103600083015261347e81613442565b9050919050565b6000613490826126d3565b91507fffffffffffffffffffffffffffffffffffffffffffffffffffffffffffffffff8214156134c3576134c26132ce565b5b600182019050919050565b7f4e487b7100000000000000000000000000000000000000000000000000000000600052601260045260246000fd5b6000613508826126d3565b9150613513836126d3565b925082613523576135226134ce565b5b828204905092915050565b6000613539826126d3565b9150613544836126d3565b925082613554576135536134ce565b5b828206905092915050565b7f5061757361626c653a206e6f7420706175736564000000000000000000000000600082015250565b6000613595601483612623565b91506135a08261355f565b602082019050919050565b600060208201905081810360008301526135c481613588565b9050919050565b7f5061757361626c653a2070617573656400000000000000000000000000000000600082015250565b6000613601601083612623565b915061360c826135cb565b602082019050919050565b60006020820190508181036000830152613630816135f4565b9050919050565b600081519050919050565b600082825260208201905092915050565b600061365e82613637565b6136688185613642565b9350613678818560208601612634565b61368181612667565b840191505092915050565b60006080820190506136a16000830187612768565b6136ae6020830186612768565b6136bb60408301856127fe565b81810360608301526136cd8184613653565b905095945050505050565b6000815190506136e781612589565b92915050565b60006020828403121561370357613702612553565b5b6000613711848285016136d8565b91505092915050565b7f4552433732313a206d696e7420746f20746865207a65726f2061646472657373600082015250565b6000613750602083612623565b915061375b8261371a565b602082019050919050565b6000602082019050818103600083015261377f81613743565b9050919050565b7f4552433732313a20746f6b656e20616c7265616479206d696e74656400000000600082015250565b60006137bc601c83612623565b91506137c782613786565b602082019050919050565b600060208201905081810360008301526137eb816137af565b9050919050565b7f4e487b7100000000000000000000000000000000000000000000000000000000600052603160045260246000fdfea26469706673582212204713f5ce2a4feec2a59769d5a40cf291bc25f3a25e7d23bfe092b705c16b4a5b64736f6c63430008090033",
  "linkReferences": {},
  "deployedLinkReferences": {}
}