{
  "_format": "hh-sol-artifact-1",
  "contractName": "MyNFT",
  "sourceName": "contracts/MyNFT.sol",
  "abi": [
    {
      "inputs": [],
      "stateMutability": "nonpayable",
      "type": "constructor"
    },
    {
      "anonymous": false,
      "inputs": [
        {
          "indexed": true,
          "internalType": "address",
          "name": "owner",
          "type": "address"
        },
        {
          "indexed": true,
          "internalType": "address",
          "name": "approved",
          "type": "address"
        },
        {
          "indexed": true,
          "internalType": "uint256",
          "name": "tokenId",
          "type": "uint256"
        }
      ],
      "name": "Approval",
      "type": "event"
    },
    {
      "anonymous": false,
      "inputs": [
        {
          "indexed": true,
          "internalType": "address",
          "name": "owner",
          "type": "address"
        },
        {
          "indexed": true,
          "internalType": "address",
          "name": "operator",
          "type": "address"
        },
        {
          "indexed": false,
          "internalType": "bool",
          "name": "approved",
          "type": "bool"
        }
      ],
      "name": "ApprovalForAll",
      "type": "event"
    },
    {
      "anonymous": false,
      "inputs": [
        {
          "indexed": true,
          "internalType": "address",
          "name": "previousOwner",
          "type": "address"
        },
        {
          "indexed": true,
          "internalType": "address",
          "name": "newOwner",
          "type": "address"
        }
      ],
      "name": "OwnershipTransferred",
      "type": "event"
    },
    {
      "anonymous": false,
      "inputs": [
        {
          "indexed": false,
          "internalType": "address",
          "name": "account",
          "type": "address"
        }
      ],
      "name": "Paused",
      "type": "event"
    },
    {
      "anonymous": false,
      "inputs": [
        {
          "indexed": true,
          "internalType": "address",
          "name": "from",
          "type": "address"
        },
        {
          "indexed": true,
          "internalType": "address",
          "name": "to",
          "type": "address"
        },
        {
          "indexed": true,
          "internalType": "uint256",
          "name": "tokenId",
          "type": "uint256"
        }
      ],
      "name": "Transfer",
      "type": "event"
    },
    {
      "anonymous": false,
      "inputs": [
        {
          "indexed": false,
          "internalType": "address",
          "name": "account",
          "type": "address"
        }
      ],
      "name": "Unpaused",
      "type": "event"
    },
    {
      "inputs": [
        {
          "internalType": "address",
          "name": "to",
          "type": "address"
        },
        {
          "internalType": "uint256",
          "name": "tokenId",
          "type": "uint256"
        }
      ],
      "name": "approve",
      "outputs": [],
      "stateMutability": "nonpayable",
      "type": "function"
    },
    {
      "inputs": [
        {
          "internalType": "address",
          "name": "owner",
          "type": "address"
        }
      ],
      "name": "balanceOf",
      "outputs": [
        {
          "internalType": "uint256",
          "name": "",
          "type": "uint256"
        }
      ],
      "stateMutability": "view",
      "type": "function"
    },
    {
      "inputs": [
        {
          "internalType": "uint256",
          "name": "tokenId",
          "type": "uint256"
        }
      ],
      "name": "burn",
      "outputs": [],
      "stateMutability": "nonpayable",
      "type": "function"
    },
    {
      "inputs": [
        {
          "internalType": "uint256",
          "name": "tokenId",
          "type": "uint256"
        }
      ],
      "name": "getApproved",
      "outputs": [
        {
          "internalType": "address",
          "name": "",
          "type": "address"
        }
      ],
      "stateMutability": "view",
      "type": "function"
    },
    {
      "inputs": [
        {
          "internalType": "address",
          "name": "owner",
          "type": "address"
        },
        {
          "internalType": "address",
          "name": "operator",
          "type": "address"
        }
      ],
      "name": "isApprovedForAll",
      "outputs": [
        {
          "internalType": "bool",
          "name": "",
          "type": "bool"
        }
      ],
      "stateMutability": "view",
      "type": "function"
    },
    {
      "inputs": [],
      "name": "maxSupply",
      "outputs": [
        {
          "internalType": "uint256",
          "name": "",
          "type": "uint256"
        }
      ],
      "stateMutability": "view",
      "type": "function"
    },
    {
      "inputs": [],
      "name": "mintRate",
      "outputs": [
        {
          "internalType": "uint256",
          "name": "",
          "type": "uint256"
        }
      ],
      "stateMutability": "view",
      "type": "function"
    },
    {
      "inputs": [],
      "name": "name",
      "outputs": [
        {
          "internalType": "string",
          "name": "",
          "type": "string"
        }
      ],
      "stateMutability": "view",
      "type": "function"
    },
    {
      "inputs": [],
      "name": "owner",
      "outputs": [
        {
          "internalType": "address",
          "name": "",
          "type": "address"
        }
      ],
      "stateMutability": "view",
      "type": "function"
    },
    {
      "inputs": [
        {
          "internalType": "uint256",
          "name": "tokenId",
          "type": "uint256"
        }
      ],
      "name": "ownerOf",
      "outputs": [
        {
          "internalType": "address",
          "name": "",
          "type": "address"
        }
      ],
      "stateMutability": "view",
      "type": "function"
    },
    {
      "inputs": [],
      "name": "pause",
      "outputs": [],
      "stateMutability": "nonpayable",
      "type": "function"
    },
    {
      "inputs": [],
      "name": "paused",
      "outputs": [
        {
          "internalType": "bool",
          "name": "",
          "type": "bool"
        }
      ],
      "stateMutability": "view",
      "type": "function"
    },
    {
      "inputs": [],
      "name": "renounceOwnership",
      "outputs": [],
      "stateMutability": "nonpayable",
      "type": "function"
    },
    {
      "inputs": [
        {
          "internalType": "address",
          "name": "to",
          "type": "address"
        }
      ],
      "name": "safeMint",
      "outputs": [],
      "stateMutability": "payable",
      "type": "function"
    },
    {
      "inputs": [
        {
          "internalType": "address",
          "name": "from",
          "type": "address"
        },
        {
          "internalType": "address",
          "name": "to",
          "type": "address"
        },
        {
          "internalType": "uint256",
          "name": "tokenId",
          "type": "uint256"
        }
      ],
      "name": "safeTransferFrom",
      "outputs": [],
      "stateMutability": "nonpayable",
      "type": "function"
    },
    {
      "inputs": [
        {
          "internalType": "address",
          "name": "from",
          "type": "address"
        },
        {
          "internalType": "address",
          "name": "to",
          "type": "address"
        },
        {
          "internalType": "uint256",
          "name": "tokenId",
          "type": "uint256"
        },
        {
          "internalType": "bytes",
          "name": "data",
          "type": "bytes"
        }
      ],
      "name": "safeTransferFrom",
      "outputs": [],
      "stateMutability": "nonpayable",
      "type": "function"
    },
    {
      "inputs": [
        {
          "internalType": "address",
          "name": "operator",
          "type": "address"
        },
        {
          "internalType": "bool",
          "name": "approved",
          "type": "bool"
        }
      ],
      "name": "setApprovalForAll",
      "outputs": [],
      "stateMutability": "nonpayable",
      "type": "function"
    },
    {
      "inputs": [
        {
          "internalType": "bytes4",
          "name": "interfaceId",
          "type": "bytes4"
        }
      ],
      "name": "supportsInterface",
      "outputs": [
        {
          "internalType": "bool",
          "name": "",
          "type": "bool"
        }
      ],
      "stateMutability": "view",
      "type": "function"
    },
    {
      "inputs": [],
      "name": "symbol",
      "outputs": [
        {
          "internalType": "string",
          "name": "",
          "type": "string"
        }
      ],
      "stateMutability": "view",
      "type": "function"
    },
    {
      "inputs": [
        {
          "internalType": "uint256",
          "name": "index",
          "type": "uint256"
        }
      ],
      "name": "tokenByIndex",
      "outputs": [
        {
          "internalType": "uint256",
          "name": "",
          "type": "uint256"
        }
      ],
      "stateMutability": "view",
      "type": "function"
    },
    {
      "inputs": [
        {
          "internalType": "address",
          "name": "owner",
          "type": "address"
        },
        {
          "internalType": "uint256",
          "name": "index",
          "type": "uint256"
        }
      ],
      "name": "tokenOfOwnerByIndex",
      "outputs": [
        {
          "internalType": "uint256",
          "name": "",
          "type": "uint256"
        }
      ],
      "stateMutability": "view",
      "type": "function"
    },
    {
      "inputs": [
        {
          "internalType": "uint256",
          "name": "tokenId",
          "type": "uint256"
        }
      ],
      "name": "tokenURI",
      "outputs": [
        {
          "internalType": "string",
          "name": "",
          "type": "string"
        }
      ],
      "stateMutability": "view",
      "type": "function"
    },
    {
      "inputs": [],
      "name": "totalSupply",
      "outputs": [
        {
          "internalType": "uint256",
          "name": "",
          "type": "uint256"
        }
      ],
      "stateMutability": "view",
      "type": "function"
    },
    {
      "inputs": [
        {
          "internalType": "address",
          "name": "from",
          "type": "address"
        },
        {
          "internalType": "address",
          "name": "to",
          "type": "address"
        },
        {
          "internalType": "uint256",
          "name": "tokenId",
          "type": "uint256"
        }
      ],
      "name": "transferFrom",
      "outputs": [],
      "stateMutability": "nonpayable",
      "type": "function"
    },
    {
      "inputs": [
        {
          "internalType": "address",
          "name": "newOwner",
          "type": "address"
        }
      ],
      "name": "transferOwnership",
      "outputs": [],
      "stateMutability": "nonpayable",
      "type": "function"
    },
    {
      "inputs": [],
      "name": "unpause",
      "outputs": [],
      "stateMutability": "nonpayable",
      "type": "function"
    },
    {
      "inputs": [],
      "name": "withDraw",
      "outputs": [],
      "stateMutability": "nonpayable",
      "type": "function"
    }
  ],
  "bytecode": "0x6080604052662386f26fc10000600c55600a600d553480156200002157600080fd5b506040518060400160405280600581526020017f4d794e46540000000000000000000000000000000000000000000000000000008152506040518060400160405280600481526020017f4d4e4654000000000000000000000000000000000000000000000000000000008152508160009080519060200190620000a6929190620001d1565b508060019080519060200190620000bf929190620001d1565b5050506000600a60006101000a81548160ff021916908315150217905550620000fd620000f16200010360201b60201c565b6200010b60201b60201c565b620002e6565b600033905090565b6000600a60019054906101000a900473ffffffffffffffffffffffffffffffffffffffff16905081600a60016101000a81548173ffffffffffffffffffffffffffffffffffffffff021916908373ffffffffffffffffffffffffffffffffffffffff1602179055508173ffffffffffffffffffffffffffffffffffffffff168173ffffffffffffffffffffffffffffffffffffffff167f8be0079c531659141344cd1fd0a4f28419497f9722a3daafe3b4186f6b6457e060405160405180910390a35050565b828054620001df90620002b0565b90600052602060002090601f0160209004810192826200020357600085556200024f565b82601f106200021e57805160ff19168380011785556200024f565b828001600101855582156200024f579182015b828111156200024e57825182559160200191906001019062000231565b5b5090506200025e919062000262565b5090565b5b808211156200027d57600081600090555060010162000263565b5090565b7f4e487b7100000000000000000000000000000000000000000000000000000000600052602260045260246000fd5b60006002820490506001821680620002c957607f821691505b60208210811415620002e057620002df62000281565b5b50919050565b61398080620002f66000396000f3fe60806040526004361061019c5760003560e01c80635c975abb116100ec578063a22cb4651161008a578063ca0dcf1611610064578063ca0dcf1614610591578063d5abeb01146105bc578063e985e9c5146105e7578063f2fde38b146106245761019c565b8063a22cb46514610502578063b88d4fde1461052b578063c87b56dd146105545761019c565b8063715018a6116100c6578063715018a61461047e5780638456cb59146104955780638da5cb5b146104ac57806395d89b41146104d75761019c565b80635c975abb146103d95780636352211e1461040457806370a08231146104415761019c565b806323b872dd1161015957806340d097c31161013357806340d097c31461032e57806342842e0e1461034a57806342966c68146103735780634f6ccce71461039c5761019c565b806323b872dd146102b15780632f745c59146102da5780633f4ba83a146103175761019c565b806301ffc9a7146101a157806306fdde03146101de578063081812fc14610209578063095ea7b3146102465780630fdb1c101461026f57806318160ddd14610286575b600080fd5b3480156101ad57600080fd5b506101c860048036038101906101c3919061264c565b61064d565b6040516101d59190612694565b60405180910390f35b3480156101ea57600080fd5b506101f361065f565b6040516102009190612748565b60405180910390f35b34801561021557600080fd5b50610230600480360381019061022b91906127a0565b6106f1565b60405161023d919061280e565b60405180910390f35b34801561025257600080fd5b5061026d60048036038101906102689190612855565b610737565b005b34801561027b57600080fd5b5061028461084f565b005b34801561029257600080fd5b5061029b6108ea565b6040516102a891906128a4565b60405180910390f35b3480156102bd57600080fd5b506102d860048036038101906102d391906128bf565b6108f7565b005b3480156102e657600080fd5b5061030160048036038101906102fc9190612855565b610957565b60405161030e91906128a4565b60405180910390f35b34801561032357600080fd5b5061032c6109fc565b005b61034860048036038101906103439190612912565b610a0e565b005b34801561035657600080fd5b50610371600480360381019061036c91906128bf565b610ac4565b005b34801561037f57600080fd5b5061039a600480360381019061039591906127a0565b610ae4565b005b3480156103a857600080fd5b506103c360048036038101906103be91906127a0565b610b40565b6040516103d091906128a4565b60405180910390f35b3480156103e557600080fd5b506103ee610bb1565b6040516103fb9190612694565b60405180910390f35b34801561041057600080fd5b5061042b600480360381019061042691906127a0565b610bc8565b604051610438919061280e565b60405180910390f35b34801561044d57600080fd5b5061046860048036038101906104639190612912565b610c7a565b60405161047591906128a4565b60405180910390f35b34801561048a57600080fd5b50610493610d32565b005b3480156104a157600080fd5b506104aa610d46565b005b3480156104b857600080fd5b506104c1610d58565b6040516104ce919061280e565b60405180910390f35b3480156104e357600080fd5b506104ec610d82565b6040516104f99190612748565b60405180910390f35b34801561050e57600080fd5b506105296004803603810190610524919061296b565b610e14565b005b34801561053757600080fd5b50610552600480360381019061054d9190612ae0565b610e2a565b005b34801561056057600080fd5b5061057b600480360381019061057691906127a0565b610e8c565b6040516105889190612748565b60405180910390f35b34801561059d57600080fd5b506105a6610ef4565b6040516105b391906128a4565b60405180910390f35b3480156105c857600080fd5b506105d1610efa565b6040516105de91906128a4565b60405180910390f35b3480156105f357600080fd5b5061060e60048036038101906106099190612b63565b610f00565b60405161061b9190612694565b60405180910390f35b34801561063057600080fd5b5061064b60048036038101906106469190612912565b610f94565b005b600061065882611018565b9050919050565b60606000805461066e90612bd2565b80601f016020809104026020016040519081016040528092919081815260200182805461069a90612bd2565b80156106e75780601f106106bc576101008083540402835291602001916106e7565b820191906000526020600020905b8154815290600101906020018083116106ca57829003601f168201915b5050505050905090565b60006106fc82611092565b6004600083815260200190815260200160002060009054906101000a900473ffffffffffffffffffffffffffffffffffffffff169050919050565b600061074282610bc8565b90508073ffffffffffffffffffffffffffffffffffffffff168373ffffffffffffffffffffffffffffffffffffffff1614156107b3576040517f08c379a00000000000000000000000000000000000000000000000000000000081526004016107aa90612c76565b60405180910390fd5b8073ffffffffffffffffffffffffffffffffffffffff166107d26110dd565b73ffffffffffffffffffffffffffffffffffffffff1614806108015750610800816107fb6110dd565b610f00565b5b610840576040517f08c379a000000000000000000000000000000000000000000000000000000000815260040161083790612d08565b60405180910390fd5b61084a83836110e5565b505050565b61085761119e565b6000471161089a576040517f08c379a000000000000000000000000000000000000000000000000000000000815260040161089190612d74565b60405180910390fd5b6108a2610d58565b73ffffffffffffffffffffffffffffffffffffffff166108fc479081150290604051600060405180830381858888f193505050501580156108e7573d6000803e3d6000fd5b50565b6000600880549050905090565b6109086109026110dd565b8261121c565b610947576040517f08c379a000000000000000000000000000000000000000000000000000000000815260040161093e90612e06565b60405180910390fd5b6109528383836112b1565b505050565b600061096283610c7a565b82106109a3576040517f08c379a000000000000000000000000000000000000000000000000000000000815260040161099a90612e98565b60405180910390fd5b600660008473ffffffffffffffffffffffffffffffffffffffff1673ffffffffffffffffffffffffffffffffffffffff168152602001908152602001600020600083815260200190815260200160002054905092915050565b610a0461119e565b610a0c611518565b565b600d54610a196108ea565b10610a59576040517f08c379a0000000000000000000000000000000000000000000000000000000008152600401610a5090612f2a565b60405180910390fd5b600c54341015610a9e576040517f08c379a0000000000000000000000000000000000000000000000000000000008152600401610a9590612f96565b60405180910390fd5b6000610aaa600b61157b565b9050610ab6600b611589565b610ac0828261159f565b5050565b610adf83838360405180602001604052806000815250610e2a565b505050565b610af5610aef6110dd565b8261121c565b610b34576040517f08c379a0000000000000000000000000000000000000000000000000000000008152600401610b2b90612e06565b60405180910390fd5b610b3d816115bd565b50565b6000610b4a6108ea565b8210610b8b576040517f08c379a0000000000000000000000000000000000000000000000000000000008152600401610b8290613028565b60405180910390fd5b60088281548110610b9f57610b9e613048565b5b90600052602060002001549050919050565b6000600a60009054906101000a900460ff16905090565b6000806002600084815260200190815260200160002060009054906101000a900473ffffffffffffffffffffffffffffffffffffffff169050600073ffffffffffffffffffffffffffffffffffffffff168173ffffffffffffffffffffffffffffffffffffffff161415610c71576040517f08c379a0000000000000000000000000000000000000000000000000000000008152600401610c68906130c3565b60405180910390fd5b80915050919050565b60008073ffffffffffffffffffffffffffffffffffffffff168273ffffffffffffffffffffffffffffffffffffffff161415610ceb576040517f08c379a0000000000000000000000000000000000000000000000000000000008152600401610ce290613155565b60405180910390fd5b600360008373ffffffffffffffffffffffffffffffffffffffff1673ffffffffffffffffffffffffffffffffffffffff168152602001908152602001600020549050919050565b610d3a61119e565b610d4460006116da565b565b610d4e61119e565b610d566117a0565b565b6000600a60019054906101000a900473ffffffffffffffffffffffffffffffffffffffff16905090565b606060018054610d9190612bd2565b80601f0160208091040260200160405190810160405280929190818152602001828054610dbd90612bd2565b8015610e0a5780601f10610ddf57610100808354040283529160200191610e0a565b820191906000526020600020905b815481529060010190602001808311610ded57829003601f168201915b5050505050905090565b610e26610e1f6110dd565b8383611803565b5050565b610e3b610e356110dd565b8361121c565b610e7a576040517f08c379a0000000000000000000000000000000000000000000000000000000008152600401610e7190612e06565b60405180910390fd5b610e8684848484611970565b50505050565b6060610e9782611092565b6000610ea16119cc565b90506000815111610ec15760405180602001604052806000815250610eec565b80610ecb84611a09565b604051602001610edc9291906131b1565b6040516020818303038152906040525b915050919050565b600c5481565b600d5481565b6000600560008473ffffffffffffffffffffffffffffffffffffffff1673ffffffffffffffffffffffffffffffffffffffff16815260200190815260200160002060008373ffffffffffffffffffffffffffffffffffffffff1673ffffffffffffffffffffffffffffffffffffffff16815260200190815260200160002060009054906101000a900460ff16905092915050565b610f9c61119e565b600073ffffffffffffffffffffffffffffffffffffffff168173ffffffffffffffffffffffffffffffffffffffff16141561100c576040517f08c379a000000000000000000000000000000000000000000000000000000000815260040161100390613247565b60405180910390fd5b611015816116da565b50565b60007f780e9d63000000000000000000000000000000000000000000000000000000007bffffffffffffffffffffffffffffffffffffffffffffffffffffffff1916827bffffffffffffffffffffffffffffffffffffffffffffffffffffffff1916148061108b575061108a82611b6a565b5b9050919050565b61109b81611c4c565b6110da576040517f08c379a00000000000000000000000000000000000000000000000000000000081526004016110d1906130c3565b60405180910390fd5b50565b600033905090565b816004600083815260200190815260200160002060006101000a81548173ffffffffffffffffffffffffffffffffffffffff021916908373ffffffffffffffffffffffffffffffffffffffff160217905550808273ffffffffffffffffffffffffffffffffffffffff1661115883610bc8565b73ffffffffffffffffffffffffffffffffffffffff167f8c5be1e5ebec7d5bd14f71427d1e84f3dd0314c0f7b2291e5b200ac8c7c3b92560405160405180910390a45050565b6111a66110dd565b73ffffffffffffffffffffffffffffffffffffffff166111c4610d58565b73ffffffffffffffffffffffffffffffffffffffff161461121a576040517f08c379a0000000000000000000000000000000000000000000000000000000008152600401611211906132b3565b60405180910390fd5b565b60008061122883610bc8565b90508073ffffffffffffffffffffffffffffffffffffffff168473ffffffffffffffffffffffffffffffffffffffff16148061126a57506112698185610f00565b5b806112a857508373ffffffffffffffffffffffffffffffffffffffff16611290846106f1565b73ffffffffffffffffffffffffffffffffffffffff16145b91505092915050565b8273ffffffffffffffffffffffffffffffffffffffff166112d182610bc8565b73ffffffffffffffffffffffffffffffffffffffff1614611327576040517f08c379a000000000000000000000000000000000000000000000000000000000815260040161131e90613345565b60405180910390fd5b600073ffffffffffffffffffffffffffffffffffffffff168273ffffffffffffffffffffffffffffffffffffffff161415611397576040517f08c379a000000000000000000000000000000000000000000000000000000000815260040161138e906133d7565b60405180910390fd5b6113a2838383611cb8565b6113ad6000826110e5565b6001600360008573ffffffffffffffffffffffffffffffffffffffff1673ffffffffffffffffffffffffffffffffffffffff16815260200190815260200160002060008282546113fd9190613426565b925050819055506001600360008473ffffffffffffffffffffffffffffffffffffffff1673ffffffffffffffffffffffffffffffffffffffff1681526020019081526020016000206000828254611454919061345a565b92505081905550816002600083815260200190815260200160002060006101000a81548173ffffffffffffffffffffffffffffffffffffffff021916908373ffffffffffffffffffffffffffffffffffffffff160217905550808273ffffffffffffffffffffffffffffffffffffffff168473ffffffffffffffffffffffffffffffffffffffff167fddf252ad1be2c89b69c2b068fc378daa952ba7f163c4a11628f55a4df523b3ef60405160405180910390a4611513838383611cd0565b505050565b611520611cd5565b6000600a60006101000a81548160ff0219169083151502179055507f5db9ee0a495bf2e6ff9c91a7834c1ba4fdd244a5e8aa4e537bd38aeae4b073aa6115646110dd565b604051611571919061280e565b60405180910390a1565b600081600001549050919050565b6001816000016000828254019250508190555050565b6115b9828260405180602001604052806000815250611d1e565b5050565b60006115c882610bc8565b90506115d681600084611cb8565b6115e16000836110e5565b6001600360008373ffffffffffffffffffffffffffffffffffffffff1673ffffffffffffffffffffffffffffffffffffffff16815260200190815260200160002060008282546116319190613426565b925050819055506002600083815260200190815260200160002060006101000a81549073ffffffffffffffffffffffffffffffffffffffff021916905581600073ffffffffffffffffffffffffffffffffffffffff168273ffffffffffffffffffffffffffffffffffffffff167fddf252ad1be2c89b69c2b068fc378daa952ba7f163c4a11628f55a4df523b3ef60405160405180910390a46116d681600084611cd0565b5050565b6000600a60019054906101000a900473ffffffffffffffffffffffffffffffffffffffff16905081600a60016101000a81548173ffffffffffffffffffffffffffffffffffffffff021916908373ffffffffffffffffffffffffffffffffffffffff1602179055508173ffffffffffffffffffffffffffffffffffffffff168173ffffffffffffffffffffffffffffffffffffffff167f8be0079c531659141344cd1fd0a4f28419497f9722a3daafe3b4186f6b6457e060405160405180910390a35050565b6117a8611d79565b6001600a60006101000a81548160ff0219169083151502179055507f62e78cea01bee320cd4e420270b5ea74000d11b0c9f74754ebdbfc544b05a2586117ec6110dd565b6040516117f9919061280e565b60405180910390a1565b8173ffffffffffffffffffffffffffffffffffffffff168373ffffffffffffffffffffffffffffffffffffffff161415611872576040517f08c379a0000000000000000000000000000000000000000000000000000000008152600401611869906134fc565b60405180910390fd5b80600560008573ffffffffffffffffffffffffffffffffffffffff1673ffffffffffffffffffffffffffffffffffffffff16815260200190815260200160002060008473ffffffffffffffffffffffffffffffffffffffff1673ffffffffffffffffffffffffffffffffffffffff16815260200190815260200160002060006101000a81548160ff0219169083151502179055508173ffffffffffffffffffffffffffffffffffffffff168373ffffffffffffffffffffffffffffffffffffffff167f17307eab39ab6107e8899845ad3d59bd9653f200f220920489ca2b5937696c31836040516119639190612694565b60405180910390a3505050565b61197b8484846112b1565b61198784848484611dc3565b6119c6576040517f08c379a00000000000000000000000000000000000000000000000000000000081526004016119bd9061358e565b60405180910390fd5b50505050565b60606040518060400160405280601d81526020017f68747470733a2f2f6170692e6d796e66742e636f6d2f746f6b656e732f000000815250905090565b60606000821415611a51576040518060400160405280600181526020017f30000000000000000000000000000000000000000000000000000000000000008152509050611b65565b600082905060005b60008214611a83578080611a6c906135ae565b915050600a82611a7c9190613626565b9150611a59565b60008167ffffffffffffffff811115611a9f57611a9e6129b5565b5b6040519080825280601f01601f191660200182016040528015611ad15781602001600182028036833780820191505090505b5090505b60008514611b5e57600182611aea9190613426565b9150600a85611af99190613657565b6030611b05919061345a565b60f81b818381518110611b1b57611b1a613048565b5b60200101907effffffffffffffffffffffffffffffffffffffffffffffffffffffffffffff1916908160001a905350600a85611b579190613626565b9450611ad5565b8093505050505b919050565b60007f80ac58cd000000000000000000000000000000000000000000000000000000007bffffffffffffffffffffffffffffffffffffffffffffffffffffffff1916827bffffffffffffffffffffffffffffffffffffffffffffffffffffffff19161480611c3557507f5b5e139f000000000000000000000000000000000000000000000000000000007bffffffffffffffffffffffffffffffffffffffffffffffffffffffff1916827bffffffffffffffffffffffffffffffffffffffffffffffffffffffff1916145b80611c455750611c4482611f5a565b5b9050919050565b60008073ffffffffffffffffffffffffffffffffffffffff166002600084815260200190815260200160002060009054906101000a900473ffffffffffffffffffffffffffffffffffffffff1673ffffffffffffffffffffffffffffffffffffffff1614159050919050565b611cc0611d79565b611ccb838383611fc4565b505050565b505050565b611cdd610bb1565b611d1c576040517f08c379a0000000000000000000000000000000000000000000000000000000008152600401611d13906136d4565b60405180910390fd5b565b611d2883836120d8565b611d356000848484611dc3565b611d74576040517f08c379a0000000000000000000000000000000000000000000000000000000008152600401611d6b9061358e565b60405180910390fd5b505050565b611d81610bb1565b15611dc1576040517f08c379a0000000000000000000000000000000000000000000000000000000008152600401611db890613740565b60405180910390fd5b565b6000611de48473ffffffffffffffffffffffffffffffffffffffff166122b2565b15611f4d578373ffffffffffffffffffffffffffffffffffffffff1663150b7a02611e0d6110dd565b8786866040518563ffffffff1660e01b8152600401611e2f94939291906137b5565b602060405180830381600087803b158015611e4957600080fd5b505af1925050508015611e7a57506040513d601f19601f82011682018060405250810190611e779190613816565b60015b611efd573d8060008114611eaa576040519150601f19603f3d011682016040523d82523d6000602084013e611eaf565b606091505b50600081511415611ef5576040517f08c379a0000000000000000000000000000000000000000000000000000000008152600401611eec9061358e565b60405180910390fd5b805181602001fd5b63150b7a0260e01b7bffffffffffffffffffffffffffffffffffffffffffffffffffffffff1916817bffffffffffffffffffffffffffffffffffffffffffffffffffffffff191614915050611f52565b600190505b949350505050565b60007f01ffc9a7000000000000000000000000000000000000000000000000000000007bffffffffffffffffffffffffffffffffffffffffffffffffffffffff1916827bffffffffffffffffffffffffffffffffffffffffffffffffffffffff1916149050919050565b611fcf8383836122d5565b600073ffffffffffffffffffffffffffffffffffffffff168373ffffffffffffffffffffffffffffffffffffffff1614156120125761200d816122da565b612051565b8173ffffffffffffffffffffffffffffffffffffffff168373ffffffffffffffffffffffffffffffffffffffff16146120505761204f8382612323565b5b5b600073ffffffffffffffffffffffffffffffffffffffff168273ffffffffffffffffffffffffffffffffffffffff1614156120945761208f81612490565b6120d3565b8273ffffffffffffffffffffffffffffffffffffffff168273ffffffffffffffffffffffffffffffffffffffff16146120d2576120d18282612561565b5b5b505050565b600073ffffffffffffffffffffffffffffffffffffffff168273ffffffffffffffffffffffffffffffffffffffff161415612148576040517f08c379a000000000000000000000000000000000000000000000000000000000815260040161213f9061388f565b60405180910390fd5b61215181611c4c565b15612191576040517f08c379a0000000000000000000000000000000000000000000000000000000008152600401612188906138fb565b60405180910390fd5b61219d60008383611cb8565b6001600360008473ffffffffffffffffffffffffffffffffffffffff1673ffffffffffffffffffffffffffffffffffffffff16815260200190815260200160002060008282546121ed919061345a565b92505081905550816002600083815260200190815260200160002060006101000a81548173ffffffffffffffffffffffffffffffffffffffff021916908373ffffffffffffffffffffffffffffffffffffffff160217905550808273ffffffffffffffffffffffffffffffffffffffff16600073ffffffffffffffffffffffffffffffffffffffff167fddf252ad1be2c89b69c2b068fc378daa952ba7f163c4a11628f55a4df523b3ef60405160405180910390a46122ae60008383611cd0565b5050565b6000808273ffffffffffffffffffffffffffffffffffffffff163b119050919050565b505050565b6008805490506009600083815260200190815260200160002081905550600881908060018154018082558091505060019003906000526020600020016000909190919091505550565b6000600161233084610c7a565b61233a9190613426565b905060006007600084815260200190815260200160002054905081811461241f576000600660008673ffffffffffffffffffffffffffffffffffffffff1673ffffffffffffffffffffffffffffffffffffffff168152602001908152602001600020600084815260200190815260200160002054905080600660008773ffffffffffffffffffffffffffffffffffffffff1673ffffffffffffffffffffffffffffffffffffffff168152602001908152602001600020600084815260200190815260200160002081905550816007600083815260200190815260200160002081905550505b6007600084815260200190815260200160002060009055600660008573ffffffffffffffffffffffffffffffffffffffff1673ffffffffffffffffffffffffffffffffffffffff16815260200190815260200160002060008381526020019081526020016000206000905550505050565b600060016008805490506124a49190613426565b90506000600960008481526020019081526020016000205490506000600883815481106124d4576124d3613048565b5b9060005260206000200154905080600883815481106124f6576124f5613048565b5b9060005260206000200181905550816009600083815260200190815260200160002081905550600960008581526020019081526020016000206000905560088054806125455761254461391b565b5b6001900381819060005260206000200160009055905550505050565b600061256c83610c7a565b905081600660008573ffffffffffffffffffffffffffffffffffffffff1673ffffffffffffffffffffffffffffffffffffffff168152602001908152602001600020600083815260200190815260200160002081905550806007600084815260200190815260200160002081905550505050565b6000604051905090565b600080fd5b600080fd5b60007fffffffff0000000000000000000000000000000000000000000000000000000082169050919050565b612629816125f4565b811461263457600080fd5b50565b60008135905061264681612620565b92915050565b600060208284031215612662576126616125ea565b5b600061267084828501612637565b91505092915050565b60008115159050919050565b61268e81612679565b82525050565b60006020820190506126a96000830184612685565b92915050565b600081519050919050565b600082825260208201905092915050565b60005b838110156126e95780820151818401526020810190506126ce565b838111156126f8576000848401525b50505050565b6000601f19601f8301169050919050565b600061271a826126af565b61272481856126ba565b93506127348185602086016126cb565b61273d816126fe565b840191505092915050565b60006020820190508181036000830152612762818461270f565b905092915050565b6000819050919050565b61277d8161276a565b811461278857600080fd5b50565b60008135905061279a81612774565b92915050565b6000602082840312156127b6576127b56125ea565b5b60006127c48482850161278b565b91505092915050565b600073ffffffffffffffffffffffffffffffffffffffff82169050919050565b60006127f8826127cd565b9050919050565b612808816127ed565b82525050565b600060208201905061282360008301846127ff565b92915050565b612832816127ed565b811461283d57600080fd5b50565b60008135905061284f81612829565b92915050565b6000806040838503121561286c5761286b6125ea565b5b600061287a85828601612840565b925050602061288b8582860161278b565b9150509250929050565b61289e8161276a565b82525050565b60006020820190506128b96000830184612895565b92915050565b6000806000606084860312156128d8576128d76125ea565b5b60006128e686828701612840565b93505060206128f786828701612840565b92505060406129088682870161278b565b9150509250925092565b600060208284031215612928576129276125ea565b5b600061293684828501612840565b91505092915050565b61294881612679565b811461295357600080fd5b50565b6000813590506129658161293f565b92915050565b60008060408385031215612982576129816125ea565b5b600061299085828601612840565b92505060206129a185828601612956565b9150509250929050565b600080fd5b600080fd5b7f4e487b7100000000000000000000000000000000000000000000000000000000600052604160045260246000fd5b6129ed826126fe565b810181811067ffffffffffffffff82111715612a0c57612a0b6129b5565b5b80604052505050565b6000612a1f6125e0565b9050612a2b82826129e4565b919050565b600067ffffffffffffffff821115612a4b57612a4a6129b5565b5b612a54826126fe565b9050602081019050919050565b82818337600083830152505050565b6000612a83612a7e84612a30565b612a15565b905082815260208101848484011115612a9f57612a9e6129b0565b5b612aaa848285612a61565b509392505050565b600082601f830112612ac757612ac66129ab565b5b8135612ad7848260208601612a70565b91505092915050565b60008060008060808587031215612afa57612af96125ea565b5b6000612b0887828801612840565b9450506020612b1987828801612840565b9350506040612b2a8782880161278b565b925050606085013567ffffffffffffffff811115612b4b57612b4a6125ef565b5b612b5787828801612ab2565b91505092959194509250565b60008060408385031215612b7a57612b796125ea565b5b6000612b8885828601612840565b9250506020612b9985828601612840565b9150509250929050565b7f4e487b7100000000000000000000000000000000000000000000000000000000600052602260045260246000fd5b60006002820490506001821680612bea57607f821691505b60208210811415612bfe57612bfd612ba3565b5b50919050565b7f4552433732313a20617070726f76616c20746f2063757272656e74206f776e6560008201527f7200000000000000000000000000000000000000000000000000000000000000602082015250565b6000612c606021836126ba565b9150612c6b82612c04565b604082019050919050565b60006020820190508181036000830152612c8f81612c53565b9050919050565b7f4552433732313a20617070726f76652063616c6c6572206973206e6f7420746f60008201527f6b656e206f776e6572206e6f7220617070726f76656420666f7220616c6c0000602082015250565b6000612cf2603e836126ba565b9150612cfd82612c96565b604082019050919050565b60006020820190508181036000830152612d2181612ce5565b9050919050565b7f42616c616e636520697320300000000000000000000000000000000000000000600082015250565b6000612d5e600c836126ba565b9150612d6982612d28565b602082019050919050565b60006020820190508181036000830152612d8d81612d51565b9050919050565b7f4552433732313a2063616c6c6572206973206e6f7420746f6b656e206f776e6560008201527f72206e6f7220617070726f766564000000000000000000000000000000000000602082015250565b6000612df0602e836126ba565b9150612dfb82612d94565b604082019050919050565b60006020820190508181036000830152612e1f81612de3565b9050919050565b7f455243373231456e756d657261626c653a206f776e657220696e646578206f7560008201527f74206f6620626f756e6473000000000000000000000000000000000000000000602082015250565b6000612e82602b836126ba565b9150612e8d82612e26565b604082019050919050565b60006020820190508181036000830152612eb181612e75565b9050919050565b7f546865206d696e74696e67206c696d697420686173207265616368656420746f60008201527f20697473206d61782c20536f7272792100000000000000000000000000000000602082015250565b6000612f146030836126ba565b9150612f1f82612eb8565b604082019050919050565b60006020820190508181036000830152612f4381612f07565b9050919050565b7f4e6f7420656e6f75676820657468657200000000000000000000000000000000600082015250565b6000612f806010836126ba565b9150612f8b82612f4a565b602082019050919050565b60006020820190508181036000830152612faf81612f73565b9050919050565b7f455243373231456e756d657261626c653a20676c6f62616c20696e646578206f60008201527f7574206f6620626f756e64730000000000000000000000000000000000000000602082015250565b6000613012602c836126ba565b915061301d82612fb6565b604082019050919050565b6000602082019050818103600083015261304181613005565b9050919050565b7f4e487b7100000000000000000000000000000000000000000000000000000000600052603260045260246000fd5b7f4552433732313a20696e76616c696420746f6b656e2049440000000000000000600082015250565b60006130ad6018836126ba565b91506130b882613077565b602082019050919050565b600060208201905081810360008301526130dc816130a0565b9050919050565b7f4552433732313a2061646472657373207a65726f206973206e6f74206120766160008201527f6c6964206f776e65720000000000000000000000000000000000000000000000602082015250565b600061313f6029836126ba565b915061314a826130e3565b604082019050919050565b6000602082019050818103600083015261316e81613132565b9050919050565b600081905092915050565b600061318b826126af565b6131958185613175565b93506131a58185602086016126cb565b80840191505092915050565b60006131bd8285613180565b91506131c98284613180565b91508190509392505050565b7f4f776e61626c653a206e6577206f776e657220697320746865207a65726f206160008201527f6464726573730000000000000000000000000000000000000000000000000000602082015250565b60006132316026836126ba565b915061323c826131d5565b604082019050919050565b6000602082019050818103600083015261326081613224565b9050919050565b7f4f776e61626c653a2063616c6c6572206973206e6f7420746865206f776e6572600082015250565b600061329d6020836126ba565b91506132a882613267565b602082019050919050565b600060208201905081810360008301526132cc81613290565b9050919050565b7f4552433732313a207472616e736665722066726f6d20696e636f72726563742060008201527f6f776e6572000000000000000000000000000000000000000000000000000000602082015250565b600061332f6025836126ba565b915061333a826132d3565b604082019050919050565b6000602082019050818103600083015261335e81613322565b9050919050565b7f4552433732313a207472616e7366657220746f20746865207a65726f2061646460008201527f7265737300000000000000000000000000000000000000000000000000000000602082015250565b60006133c16024836126ba565b91506133cc82613365565b604082019050919050565b600060208201905081810360008301526133f0816133b4565b9050919050565b7f4e487b7100000000000000000000000000000000000000000000000000000000600052601160045260246000fd5b60006134318261276a565b915061343c8361276a565b92508282101561344f5761344e6133f7565b5b828203905092915050565b60006134658261276a565b91506134708361276a565b9250827fffffffffffffffffffffffffffffffffffffffffffffffffffffffffffffffff038211156134a5576134a46133f7565b5b828201905092915050565b7f4552433732313a20617070726f766520746f2063616c6c657200000000000000600082015250565b60006134e66019836126ba565b91506134f1826134b0565b602082019050919050565b60006020820190508181036000830152613515816134d9565b9050919050565b7f4552433732313a207472616e7366657220746f206e6f6e20455243373231526560008201527f63656976657220696d706c656d656e7465720000000000000000000000000000602082015250565b60006135786032836126ba565b91506135838261351c565b604082019050919050565b600060208201905081810360008301526135a78161356b565b9050919050565b60006135b98261276a565b91507fffffffffffffffffffffffffffffffffffffffffffffffffffffffffffffffff8214156135ec576135eb6133f7565b5b600182019050919050565b7f4e487b7100000000000000000000000000000000000000000000000000000000600052601260045260246000fd5b60006136318261276a565b915061363c8361276a565b92508261364c5761364b6135f7565b5b828204905092915050565b60006136628261276a565b915061366d8361276a565b92508261367d5761367c6135f7565b5b828206905092915050565b7f5061757361626c653a206e6f7420706175736564000000000000000000000000600082015250565b60006136be6014836126ba565b91506136c982613688565b602082019050919050565b600060208201905081810360008301526136ed816136b1565b9050919050565b7f5061757361626c653a2070617573656400000000000000000000000000000000600082015250565b600061372a6010836126ba565b9150613735826136f4565b602082019050919050565b600060208201905081810360008301526137598161371d565b9050919050565b600081519050919050565b600082825260208201905092915050565b600061378782613760565b613791818561376b565b93506137a18185602086016126cb565b6137aa816126fe565b840191505092915050565b60006080820190506137ca60008301876127ff565b6137d760208301866127ff565b6137e46040830185612895565b81810360608301526137f6818461377c565b905095945050505050565b60008151905061381081612620565b92915050565b60006020828403121561382c5761382b6125ea565b5b600061383a84828501613801565b91505092915050565b7f4552433732313a206d696e7420746f20746865207a65726f2061646472657373600082015250565b60006138796020836126ba565b915061388482613843565b602082019050919050565b600060208201905081810360008301526138a88161386c565b9050919050565b7f4552433732313a20746f6b656e20616c7265616479206d696e74656400000000600082015250565b60006138e5601c836126ba565b91506138f0826138af565b602082019050919050565b60006020820190508181036000830152613914816138d8565b9050919050565b7f4e487b7100000000000000000000000000000000000000000000000000000000600052603160045260246000fdfea2646970667358221220657dedf5a7746ffe0ec51ef7d969aa9957929d6fa94acf251a645bf74bd3ff0364736f6c63430008090033",
  "linkReferences": {},
  "deployedLinkReferences": {}
}